{
  "_format": "hh-sol-artifact-1",
  "contractName": "NFTMarketplace",
  "sourceName": "contracts/NFTMarketplace.sol",
  "abi": [
    {
      "inputs": [],
      "stateMutability": "nonpayable",
      "type": "constructor"
    },
    {
      "anonymous": false,
      "inputs": [
        {
          "indexed": true,
          "internalType": "address",
          "name": "owner",
          "type": "address"
        },
        {
          "indexed": true,
          "internalType": "address",
          "name": "approved",
          "type": "address"
        },
        {
          "indexed": true,
          "internalType": "uint256",
          "name": "tokenId",
          "type": "uint256"
        }
      ],
      "name": "Approval",
      "type": "event"
    },
    {
      "anonymous": false,
      "inputs": [
        {
          "indexed": true,
          "internalType": "address",
          "name": "owner",
          "type": "address"
        },
        {
          "indexed": true,
          "internalType": "address",
          "name": "operator",
          "type": "address"
        },
        {
          "indexed": false,
          "internalType": "bool",
          "name": "approved",
          "type": "bool"
        }
      ],
      "name": "ApprovalForAll",
      "type": "event"
    },
    {
      "anonymous": false,
      "inputs": [
        {
          "indexed": true,
          "internalType": "uint256",
          "name": "auctionId",
          "type": "uint256"
        },
        {
          "indexed": true,
          "internalType": "address",
          "name": "seller",
          "type": "address"
        },
        {
          "indexed": false,
          "internalType": "uint256",
          "name": "tokenId",
          "type": "uint256"
        },
        {
          "indexed": false,
          "internalType": "uint256",
          "name": "minBid",
          "type": "uint256"
        },
        {
          "indexed": false,
          "internalType": "uint256",
          "name": "endTime",
          "type": "uint256"
        },
        {
          "indexed": false,
          "internalType": "string",
          "name": "auctionURI",
          "type": "string"
        }
      ],
      "name": "AuctionCreated",
      "type": "event"
    },
    {
      "anonymous": false,
      "inputs": [
        {
          "indexed": true,
          "internalType": "uint256",
          "name": "auctionId",
          "type": "uint256"
        },
        {
          "indexed": true,
          "internalType": "uint256",
          "name": "tokenId",
          "type": "uint256"
        },
        {
          "indexed": false,
          "internalType": "address",
          "name": "winner",
          "type": "address"
        },
        {
          "indexed": false,
          "internalType": "uint256",
          "name": "amount",
          "type": "uint256"
        }
      ],
      "name": "AuctionFinalized",
      "type": "event"
    },
    {
      "anonymous": false,
      "inputs": [
        {
          "indexed": false,
          "internalType": "uint256",
          "name": "_fromTokenId",
          "type": "uint256"
        },
        {
          "indexed": false,
          "internalType": "uint256",
          "name": "_toTokenId",
          "type": "uint256"
        }
      ],
      "name": "BatchMetadataUpdate",
      "type": "event"
    },
    {
      "anonymous": false,
      "inputs": [
        {
          "indexed": true,
          "internalType": "uint256",
          "name": "auctionId",
          "type": "uint256"
        },
        {
          "indexed": true,
          "internalType": "address",
          "name": "bidder",
          "type": "address"
        },
        {
          "indexed": false,
          "internalType": "uint256",
          "name": "amount",
          "type": "uint256"
        }
      ],
      "name": "BidPlaced",
      "type": "event"
    },
    {
      "anonymous": false,
      "inputs": [
        {
          "indexed": false,
          "internalType": "uint256",
          "name": "_tokenId",
          "type": "uint256"
        }
      ],
      "name": "MetadataUpdate",
      "type": "event"
    },
    {
      "anonymous": false,
      "inputs": [
        {
          "indexed": true,
          "internalType": "uint256",
          "name": "tokenId",
          "type": "uint256"
        },
        {
          "indexed": false,
          "internalType": "uint256",
          "name": "price",
          "type": "uint256"
        },
        {
          "indexed": false,
          "internalType": "address",
          "name": "owner",
          "type": "address"
        },
        {
          "indexed": false,
          "internalType": "bool",
          "name": "currentlyListed",
          "type": "bool"
        }
      ],
      "name": "TokenBoughtSuccess",
      "type": "event"
    },
    {
      "anonymous": false,
      "inputs": [
        {
          "indexed": true,
          "internalType": "uint256",
          "name": "tokenId",
          "type": "uint256"
        },
        {
          "indexed": false,
          "internalType": "address",
          "name": "owner",
          "type": "address"
        },
        {
          "indexed": false,
          "internalType": "address",
          "name": "seller",
          "type": "address"
        },
        {
          "indexed": false,
          "internalType": "uint256",
          "name": "price",
          "type": "uint256"
        },
        {
          "indexed": false,
          "internalType": "bool",
          "name": "currentlyListed",
          "type": "bool"
        },
        {
          "indexed": false,
          "internalType": "string",
          "name": "tokenURI",
          "type": "string"
        }
      ],
      "name": "TokenListedSuccess",
      "type": "event"
    },
    {
      "anonymous": false,
      "inputs": [
        {
          "indexed": true,
          "internalType": "address",
          "name": "from",
          "type": "address"
        },
        {
          "indexed": true,
          "internalType": "address",
          "name": "to",
          "type": "address"
        },
        {
          "indexed": true,
          "internalType": "uint256",
          "name": "tokenId",
          "type": "uint256"
        }
      ],
      "name": "Transfer",
      "type": "event"
    },
    {
      "inputs": [
        {
          "internalType": "address",
          "name": "to",
          "type": "address"
        },
        {
          "internalType": "uint256",
          "name": "tokenId",
          "type": "uint256"
        }
      ],
      "name": "approve",
      "outputs": [],
      "stateMutability": "nonpayable",
      "type": "function"
    },
    {
      "inputs": [
        {
          "internalType": "uint256",
          "name": "",
          "type": "uint256"
        },
        {
          "internalType": "uint256",
          "name": "",
          "type": "uint256"
        }
      ],
      "name": "auctionBids",
      "outputs": [
        {
          "internalType": "address",
          "name": "bidder",
          "type": "address"
        },
        {
          "internalType": "uint128",
          "name": "amount",
          "type": "uint128"
        },
        {
          "internalType": "string",
          "name": "name",
          "type": "string"
        }
      ],
      "stateMutability": "view",
      "type": "function"
    },
    {
      "inputs": [],
      "name": "auctionFee",
      "outputs": [
        {
          "internalType": "uint256",
          "name": "",
          "type": "uint256"
        }
      ],
      "stateMutability": "view",
      "type": "function"
    },
    {
      "inputs": [
        {
          "internalType": "uint256",
          "name": "",
          "type": "uint256"
        }
      ],
      "name": "auctions",
      "outputs": [
        {
          "internalType": "uint256",
          "name": "auctionId",
          "type": "uint256"
        },
        {
          "internalType": "address",
          "name": "seller",
          "type": "address"
        },
        {
          "internalType": "uint256",
          "name": "tokenId",
          "type": "uint256"
        },
        {
          "internalType": "uint128",
          "name": "minBid",
          "type": "uint128"
        },
        {
          "internalType": "uint128",
          "name": "highestBid",
          "type": "uint128"
        },
        {
          "internalType": "address",
          "name": "highestBidder",
          "type": "address"
        },
        {
          "internalType": "uint128",
          "name": "startTime",
          "type": "uint128"
        },
        {
          "internalType": "uint128",
          "name": "duration",
          "type": "uint128"
        },
        {
          "internalType": "bool",
          "name": "settled",
          "type": "bool"
        },
        {
          "internalType": "string",
          "name": "auctionURI",
          "type": "string"
        }
      ],
      "stateMutability": "view",
      "type": "function"
    },
    {
      "inputs": [
        {
          "internalType": "address",
          "name": "owner",
          "type": "address"
        }
      ],
      "name": "balanceOf",
      "outputs": [
        {
          "internalType": "uint256",
          "name": "",
          "type": "uint256"
        }
      ],
      "stateMutability": "view",
      "type": "function"
    },
    {
      "inputs": [
        {
          "internalType": "uint256",
          "name": "",
          "type": "uint256"
        },
        {
          "internalType": "address",
          "name": "",
          "type": "address"
        }
      ],
      "name": "bids",
      "outputs": [
        {
          "internalType": "uint256",
          "name": "",
          "type": "uint256"
        }
      ],
      "stateMutability": "view",
      "type": "function"
    },
    {
      "inputs": [
        {
          "internalType": "uint256",
          "name": "tokenId",
          "type": "uint256"
        }
      ],
      "name": "buyNFT",
      "outputs": [],
      "stateMutability": "payable",
      "type": "function"
    },
    {
      "inputs": [
        {
          "internalType": "uint256",
          "name": "tokenId",
          "type": "uint256"
        },
        {
          "internalType": "uint128",
          "name": "minBid",
          "type": "uint128"
        },
        {
          "internalType": "uint128",
          "name": "duration",
          "type": "uint128"
        },
        {
          "internalType": "string",
          "name": "auctionURI",
          "type": "string"
        }
      ],
      "name": "createAuction",
      "outputs": [],
      "stateMutability": "payable",
      "type": "function"
    },
    {
      "inputs": [],
      "name": "getActiveAuctions",
      "outputs": [
        {
          "components": [
            {
              "internalType": "uint256",
              "name": "auctionId",
              "type": "uint256"
            },
            {
              "internalType": "address",
              "name": "seller",
              "type": "address"
            },
            {
              "internalType": "uint256",
              "name": "tokenId",
              "type": "uint256"
            },
            {
              "internalType": "uint128",
              "name": "minBid",
              "type": "uint128"
            },
            {
              "internalType": "uint128",
              "name": "highestBid",
              "type": "uint128"
            },
            {
              "internalType": "address",
              "name": "highestBidder",
              "type": "address"
            },
            {
              "internalType": "uint128",
              "name": "startTime",
              "type": "uint128"
            },
            {
              "internalType": "uint128",
              "name": "duration",
              "type": "uint128"
            },
            {
              "internalType": "bool",
              "name": "settled",
              "type": "bool"
            },
            {
              "internalType": "string",
              "name": "auctionURI",
              "type": "string"
            }
          ],
          "internalType": "struct NFTMarketplace.AuctionItem[]",
          "name": "",
          "type": "tuple[]"
        }
      ],
      "stateMutability": "view",
      "type": "function"
    },
    {
      "inputs": [
        {
          "internalType": "uint256",
          "name": "auctionId",
          "type": "uint256"
        }
      ],
      "name": "getAllBids",
      "outputs": [
        {
          "components": [
            {
              "internalType": "address",
              "name": "bidder",
              "type": "address"
            },
            {
              "internalType": "uint128",
              "name": "amount",
              "type": "uint128"
            },
            {
              "internalType": "string",
              "name": "name",
              "type": "string"
            }
          ],
          "internalType": "struct NFTMarketplace.Bid[]",
          "name": "",
          "type": "tuple[]"
        }
      ],
      "stateMutability": "view",
      "type": "function"
    },
    {
      "inputs": [],
      "name": "getAllNFTs",
      "outputs": [
        {
          "components": [
            {
              "internalType": "uint256",
              "name": "tokenId",
              "type": "uint256"
            },
            {
              "internalType": "address payable",
              "name": "owner",
              "type": "address"
            },
            {
              "internalType": "address payable",
              "name": "seller",
              "type": "address"
            },
            {
              "internalType": "uint256",
              "name": "price",
              "type": "uint256"
            },
            {
              "internalType": "bool",
              "name": "currentlyListed",
              "type": "bool"
            },
            {
              "internalType": "string",
              "name": "tokenURI",
              "type": "string"
            }
          ],
          "internalType": "struct NFTMarketplace.ListedToken[]",
          "name": "",
          "type": "tuple[]"
        }
      ],
      "stateMutability": "view",
      "type": "function"
    },
    {
      "inputs": [
        {
          "internalType": "uint256",
          "name": "tokenId",
          "type": "uint256"
        }
      ],
      "name": "getApproved",
      "outputs": [
        {
          "internalType": "address",
          "name": "",
          "type": "address"
        }
      ],
      "stateMutability": "view",
      "type": "function"
    },
    {
      "inputs": [],
      "name": "getCurrentAuctionId",
      "outputs": [
        {
          "internalType": "uint256",
          "name": "",
          "type": "uint256"
        }
      ],
      "stateMutability": "view",
      "type": "function"
    },
    {
      "inputs": [],
      "name": "getCurrentToken",
      "outputs": [
        {
          "internalType": "uint256",
          "name": "",
          "type": "uint256"
        }
      ],
      "stateMutability": "view",
      "type": "function"
    },
    {
      "inputs": [],
      "name": "getListPrice",
      "outputs": [
        {
          "internalType": "uint256",
          "name": "",
          "type": "uint256"
        }
      ],
      "stateMutability": "view",
      "type": "function"
    },
    {
      "inputs": [
        {
          "internalType": "uint256",
          "name": "tokenId",
          "type": "uint256"
        }
      ],
      "name": "getListedTokenForId",
      "outputs": [
        {
          "components": [
            {
              "internalType": "uint256",
              "name": "tokenId",
              "type": "uint256"
            },
            {
              "internalType": "address payable",
              "name": "owner",
              "type": "address"
            },
            {
              "internalType": "address payable",
              "name": "seller",
              "type": "address"
            },
            {
              "internalType": "uint256",
              "name": "price",
              "type": "uint256"
            },
            {
              "internalType": "bool",
              "name": "currentlyListed",
              "type": "bool"
            },
            {
              "internalType": "string",
              "name": "tokenURI",
              "type": "string"
            }
          ],
          "internalType": "struct NFTMarketplace.ListedToken",
          "name": "",
          "type": "tuple"
        }
      ],
      "stateMutability": "view",
      "type": "function"
    },
    {
      "inputs": [
        {
          "internalType": "address",
          "name": "user",
          "type": "address"
        }
      ],
      "name": "getMyAuctions",
      "outputs": [
        {
          "components": [
            {
              "internalType": "uint256",
              "name": "auctionId",
              "type": "uint256"
            },
            {
              "internalType": "address",
              "name": "seller",
              "type": "address"
            },
            {
              "internalType": "uint256",
              "name": "tokenId",
              "type": "uint256"
            },
            {
              "internalType": "uint128",
              "name": "minBid",
              "type": "uint128"
            },
            {
              "internalType": "uint128",
              "name": "highestBid",
              "type": "uint128"
            },
            {
              "internalType": "address",
              "name": "highestBidder",
              "type": "address"
            },
            {
              "internalType": "uint128",
              "name": "startTime",
              "type": "uint128"
            },
            {
              "internalType": "uint128",
              "name": "duration",
              "type": "uint128"
            },
            {
              "internalType": "bool",
              "name": "settled",
              "type": "bool"
            },
            {
              "internalType": "string",
              "name": "auctionURI",
              "type": "string"
            }
          ],
          "internalType": "struct NFTMarketplace.AuctionItem[]",
          "name": "",
          "type": "tuple[]"
        }
      ],
      "stateMutability": "view",
      "type": "function"
    },
    {
      "inputs": [],
      "name": "getMyNFTs",
      "outputs": [
        {
          "components": [
            {
              "internalType": "uint256",
              "name": "tokenId",
              "type": "uint256"
            },
            {
              "internalType": "address payable",
              "name": "owner",
              "type": "address"
            },
            {
              "internalType": "address payable",
              "name": "seller",
              "type": "address"
            },
            {
              "internalType": "uint256",
              "name": "price",
              "type": "uint256"
            },
            {
              "internalType": "bool",
              "name": "currentlyListed",
              "type": "bool"
            },
            {
              "internalType": "string",
              "name": "tokenURI",
              "type": "string"
            }
          ],
          "internalType": "struct NFTMarketplace.ListedToken[]",
          "name": "",
          "type": "tuple[]"
        }
      ],
      "stateMutability": "view",
      "type": "function"
    },
    {
      "inputs": [],
      "name": "getNonActiveAuctions",
      "outputs": [
        {
          "components": [
            {
              "internalType": "uint256",
              "name": "auctionId",
              "type": "uint256"
            },
            {
              "internalType": "address",
              "name": "seller",
              "type": "address"
            },
            {
              "internalType": "uint256",
              "name": "tokenId",
              "type": "uint256"
            },
            {
              "internalType": "uint128",
              "name": "minBid",
              "type": "uint128"
            },
            {
              "internalType": "uint128",
              "name": "highestBid",
              "type": "uint128"
            },
            {
              "internalType": "address",
              "name": "highestBidder",
              "type": "address"
            },
            {
              "internalType": "uint128",
              "name": "startTime",
              "type": "uint128"
            },
            {
              "internalType": "uint128",
              "name": "duration",
              "type": "uint128"
            },
            {
              "internalType": "bool",
              "name": "settled",
              "type": "bool"
            },
            {
              "internalType": "string",
              "name": "auctionURI",
              "type": "string"
            }
          ],
          "internalType": "struct NFTMarketplace.AuctionItem[]",
          "name": "",
          "type": "tuple[]"
        }
      ],
      "stateMutability": "view",
      "type": "function"
    },
    {
      "inputs": [
        {
          "internalType": "address",
          "name": "owner",
          "type": "address"
        },
        {
          "internalType": "address",
          "name": "operator",
          "type": "address"
        }
      ],
      "name": "isApprovedForAll",
      "outputs": [
        {
          "internalType": "bool",
          "name": "",
          "type": "bool"
        }
      ],
      "stateMutability": "view",
      "type": "function"
    },
    {
      "inputs": [],
      "name": "listPrice",
      "outputs": [
        {
          "internalType": "uint256",
          "name": "",
          "type": "uint256"
        }
      ],
      "stateMutability": "view",
      "type": "function"
    },
    {
      "inputs": [
        {
          "internalType": "string",
          "name": "tokenURI",
          "type": "string"
        },
        {
          "internalType": "uint256",
          "name": "price",
          "type": "uint256"
        }
      ],
      "name": "mintNFT",
      "outputs": [
        {
          "internalType": "uint256",
          "name": "",
          "type": "uint256"
        }
      ],
      "stateMutability": "payable",
      "type": "function"
    },
    {
      "inputs": [],
      "name": "name",
      "outputs": [
        {
          "internalType": "string",
          "name": "",
          "type": "string"
        }
      ],
      "stateMutability": "view",
      "type": "function"
    },
    {
      "inputs": [],
      "name": "owner",
      "outputs": [
        {
          "internalType": "address payable",
          "name": "",
          "type": "address"
        }
      ],
      "stateMutability": "view",
      "type": "function"
    },
    {
      "inputs": [
        {
          "internalType": "uint256",
          "name": "tokenId",
          "type": "uint256"
        }
      ],
      "name": "ownerOf",
      "outputs": [
        {
          "internalType": "address",
          "name": "",
          "type": "address"
        }
      ],
      "stateMutability": "view",
      "type": "function"
    },
    {
      "inputs": [
        {
          "internalType": "uint256",
          "name": "auctionId",
          "type": "uint256"
        },
        {
          "internalType": "string",
          "name": "name",
          "type": "string"
        }
      ],
      "name": "placeBid",
      "outputs": [],
      "stateMutability": "payable",
      "type": "function"
    },
    {
      "inputs": [
        {
          "internalType": "uint256",
          "name": "tokenId",
          "type": "uint256"
        },
        {
          "internalType": "uint256",
          "name": "price",
          "type": "uint256"
        }
      ],
      "name": "relistNFT",
      "outputs": [],
      "stateMutability": "nonpayable",
      "type": "function"
    },
    {
      "inputs": [
        {
          "internalType": "address",
          "name": "from",
          "type": "address"
        },
        {
          "internalType": "address",
          "name": "to",
          "type": "address"
        },
        {
          "internalType": "uint256",
          "name": "tokenId",
          "type": "uint256"
        }
      ],
      "name": "safeTransferFrom",
      "outputs": [],
      "stateMutability": "nonpayable",
      "type": "function"
    },
    {
      "inputs": [
        {
          "internalType": "address",
          "name": "from",
          "type": "address"
        },
        {
          "internalType": "address",
          "name": "to",
          "type": "address"
        },
        {
          "internalType": "uint256",
          "name": "tokenId",
          "type": "uint256"
        },
        {
          "internalType": "bytes",
          "name": "data",
          "type": "bytes"
        }
      ],
      "name": "safeTransferFrom",
      "outputs": [],
      "stateMutability": "nonpayable",
      "type": "function"
    },
    {
      "inputs": [
        {
          "internalType": "address",
          "name": "operator",
          "type": "address"
        },
        {
          "internalType": "bool",
          "name": "approved",
          "type": "bool"
        }
      ],
      "name": "setApprovalForAll",
      "outputs": [],
      "stateMutability": "nonpayable",
      "type": "function"
    },
    {
      "inputs": [
        {
          "internalType": "uint256",
          "name": "auctionId",
          "type": "uint256"
        }
      ],
      "name": "settleAuction",
      "outputs": [],
      "stateMutability": "nonpayable",
      "type": "function"
    },
    {
      "inputs": [
        {
          "internalType": "bytes4",
          "name": "interfaceId",
          "type": "bytes4"
        }
      ],
      "name": "supportsInterface",
      "outputs": [
        {
          "internalType": "bool",
          "name": "",
          "type": "bool"
        }
      ],
      "stateMutability": "view",
      "type": "function"
    },
    {
      "inputs": [],
      "name": "symbol",
      "outputs": [
        {
          "internalType": "string",
          "name": "",
          "type": "string"
        }
      ],
      "stateMutability": "view",
      "type": "function"
    },
    {
      "inputs": [
        {
          "internalType": "uint256",
          "name": "tokenId",
          "type": "uint256"
        }
      ],
      "name": "tokenURI",
      "outputs": [
        {
          "internalType": "string",
          "name": "",
          "type": "string"
        }
      ],
      "stateMutability": "view",
      "type": "function"
    },
    {
      "inputs": [
        {
          "internalType": "address",
          "name": "from",
          "type": "address"
        },
        {
          "internalType": "address",
          "name": "to",
          "type": "address"
        },
        {
          "internalType": "uint256",
          "name": "tokenId",
          "type": "uint256"
        }
      ],
      "name": "transferFrom",
      "outputs": [],
      "stateMutability": "nonpayable",
      "type": "function"
    },
    {
      "inputs": [
        {
          "internalType": "uint256",
          "name": "_listPrice",
          "type": "uint256"
        }
      ],
      "name": "updateListPrice",
      "outputs": [],
      "stateMutability": "payable",
      "type": "function"
    },
    {
      "inputs": [
        {
          "internalType": "uint256",
          "name": "tokenId",
          "type": "uint256"
        },
        {
          "internalType": "string",
          "name": "newTokenURI",
          "type": "string"
        }
      ],
      "name": "updateTokenURI",
      "outputs": [],
      "stateMutability": "nonpayable",
      "type": "function"
    }
  ],
  "bytecode": "0x6080604052662386f26fc10000600b55662386f26fc1000060105534801561002657600080fd5b506040518060400160405280600e81526020016d4e46544d61726b6574706c61636560901b815250604051806040016040528060048152602001634e46544d60e01b815250816000908161007a9190610145565b5060016100878282610145565b5050600160075550600a80546001600160a01b03191633179055610203565b634e487b7160e01b600052604160045260246000fd5b600181811c908216806100d057607f821691505b6020821081036100f057634e487b7160e01b600052602260045260246000fd5b50919050565b601f82111561014057806000526020600020601f840160051c8101602085101561011d5750805b601f840160051c820191505b8181101561013d5760008155600101610129565b50505b505050565b81516001600160401b0381111561015e5761015e6100a6565b6101728161016c84546100bc565b846100f6565b6020601f8211600181146101a6576000831561018e5750848201515b600019600385901b1c1916600184901b17845561013d565b600084815260208120601f198516915b828110156101d657878501518255602094850194600190920191016101b6565b50848210156101f45786840151600019600387901b60f8161c191681555b50505050600190811b01905550565b6142a7806102126000396000f3fe60806040526004361061021a5760003560e01c80636352211e11610123578063a528ff83116100ab578063c87b56dd1161006f578063c87b56dd14610643578063cf44b5d514610663578063e0391b0914610678578063e985e9c51461068d578063ef2d1746146106d657600080fd5b8063a528ff83146105b0578063b1fb9472146105dd578063b88d4fde146105f0578063bcf05bf714610610578063c322579c1461063057600080fd5b80638da5cb5b116100f25780638da5cb5b1461050e5780638e2645901461052e57806395d89b411461055b578063a22cb46514610570578063a2e4e4941461059057600080fd5b80636352211e146104a357806368f1945f146104c35780636eb588d9146104d857806370a08231146104ee57600080fd5b80632e993611116101a657806351ed82881161017557806351ed8288146103f6578063571a26a0146104095780635afa3a721461043f5780635f93de4914610452578063629cb2e41461048157600080fd5b80632e9936111461036b57806337aab0631461038b5780633f1ffcec1461039e57806342842e0e146103d657600080fd5b806314525b6b116101ed57806314525b6b146102d0578063157db316146102f457806318e97fd11461030957806323b872dd146103295780632ade28a51461034957600080fd5b806301ffc9a71461021f57806306fdde0314610254578063081812fc14610276578063095ea7b3146102ae575b600080fd5b34801561022b57600080fd5b5061023f61023a3660046136ba565b6106eb565b60405190151581526020015b60405180910390f35b34801561026057600080fd5b50610269610716565b60405161024b9190613727565b34801561028257600080fd5b5061029661029136600461373a565b6107a8565b6040516001600160a01b03909116815260200161024b565b3480156102ba57600080fd5b506102ce6102c936600461376f565b6107cf565b005b3480156102dc57600080fd5b506102e660105481565b60405190815260200161024b565b34801561030057600080fd5b506102e66108e9565b34801561031557600080fd5b506102ce610324366004613847565b6108f9565b34801561033557600080fd5b506102ce61034436600461388d565b6109db565b34801561035557600080fd5b5061035e610a0c565b60405161024b91906138ca565b34801561037757600080fd5b506102ce61038636600461373a565b610c61565b6102ce610399366004613847565b610f00565b3480156103aa57600080fd5b506102e66103b9366004613a0c565b600f60209081526000928352604080842090915290825290205481565b3480156103e257600080fd5b506102ce6103f136600461388d565b611179565b6102ce61040436600461373a565b611194565b34801561041557600080fd5b5061042961042436600461373a565b611335565b60405161024b9a99989796959493929190613a38565b6102e661044d366004613ab4565b61142e565b34801561045e57600080fd5b5061047261046d366004613af8565b6116b9565b60405161024b93929190613b1a565b34801561048d57600080fd5b50610496611799565b60405161024b9190613baf565b3480156104af57600080fd5b506102966104be36600461373a565b611a44565b3480156104cf57600080fd5b50600b546102e6565b3480156104e457600080fd5b506102e6600b5481565b3480156104fa57600080fd5b506102e6610509366004613c08565b611aa4565b34801561051a57600080fd5b50600a54610296906001600160a01b031681565b34801561053a57600080fd5b5061054e61054936600461373a565b611b2a565b60405161024b9190613c23565b34801561056757600080fd5b50610269611c30565b34801561057c57600080fd5b506102ce61058b366004613c36565b611c3f565b34801561059c57600080fd5b506102ce6105ab366004613af8565b611c4a565b3480156105bc57600080fd5b506105d06105cb36600461373a565b611dac565b60405161024b9190613c72565b6102ce6105eb366004613d15565b611ed9565b3480156105fc57600080fd5b506102ce61060b366004613d7c565b612402565b34801561061c57600080fd5b5061035e61062b366004613c08565b612434565b6102ce61063e36600461373a565b6126c2565b34801561064f57600080fd5b5061026961065e36600461373a565b61272d565b34801561066f57600080fd5b5061035e61283d565b34801561068457600080fd5b50610496612a86565b34801561069957600080fd5b5061023f6106a8366004613deb565b6001600160a01b03918216600090815260056020908152604080832093909416825291909152205460ff1690565b3480156106e257600080fd5b506102e6612c3d565b60006001600160e01b03198216632483248360e11b1480610710575061071082612c48565b92915050565b60606000805461072590613e15565b80601f016020809104026020016040519081016040528092919081815260200182805461075190613e15565b801561079e5780601f106107735761010080835404028352916020019161079e565b820191906000526020600020905b81548152906001019060200180831161078157829003601f168201915b5050505050905090565b60006107b382612c98565b506000908152600460205260409020546001600160a01b031690565b60006107da82611a44565b9050806001600160a01b0316836001600160a01b03160361084c5760405162461bcd60e51b815260206004820152602160248201527f4552433732313a20617070726f76616c20746f2063757272656e74206f776e656044820152603960f91b60648201526084015b60405180910390fd5b336001600160a01b0382161480610868575061086881336106a8565b6108da5760405162461bcd60e51b815260206004820152603d60248201527f4552433732313a20617070726f76652063616c6c6572206973206e6f7420746f60448201527f6b656e206f776e6572206f7220617070726f76656420666f7220616c6c0000006064820152608401610843565b6108e48383612ce8565b505050565b60006108f4600d5490565b905090565b61090282612d56565b6109455760405162461bcd60e51b8152602060048201526014602482015273151bdad95b88191bd95cc81b9bdd08195e1a5cdd60621b6044820152606401610843565b600061095083611a44565b9050336001600160a01b03821614806109735750600a546001600160a01b031633145b6109b05760405162461bcd60e51b815260206004820152600e60248201526d139bdd08185d5d1a1bdc9a5e995960921b6044820152606401610843565b6109ba8383612d73565b6000838152600c602052604090206005016109d58382613e9d565b50505050565b6109e53382612e2f565b610a015760405162461bcd60e51b815260040161084390613f5b565b6108e4838383612ead565b60606000610a19600d5490565b90506000805b82811015610a6e576000600e81610a37846001613fbe565b81526020810191909152604001600020600681015490915060ff1615610a655782610a6181613fd1565b9350505b50600101610a1f565b506000816001600160401b03811115610a8957610a89613799565b604051908082528060200260200182016040528015610ac257816020015b610aaf613604565b815260200190600190039081610aa75790505b5090506000805b84811015610c57576000600e81610ae1846001613fbe565b81526020810191909152604001600020600681015490915060ff1615610c4e5760408051610140810182528254815260018301546001600160a01b03908116602083015260028401549282019290925260038301546001600160801b038082166060840152600160801b9182900481166080840152600485015490931660a0830152600584015480841660c08401520490911660e0820152600682015460ff1615156101008201526007820180548391610120840191610ba090613e15565b80601f0160208091040260200160405190810160405280929190818152602001828054610bcc90613e15565b8015610c195780601f10610bee57610100808354040283529160200191610c19565b820191906000526020600020905b815481529060010190602001808311610bfc57829003601f168201915b505050505081525050848481518110610c3457610c34613fea565b60200260200101819052508280610c4a90613fd1565b9350505b50600101610ac9565b5090949350505050565b610c69613011565b6000818152600e602052604090206005810154610c98906001600160801b03600160801b820481169116614000565b6001600160801b0316421015610ce45760405162461bcd60e51b8152602060048201526011602482015270105d58dd1a5bdb881b9bdd08195b991959607a1b6044820152606401610843565b600681015460ff1615610d2b5760405162461bcd60e51b815260206004820152600f60248201526e105b1c9958591e481cd95d1d1b1959608a1b6044820152606401610843565b60068101805460ff1916600117905560048101546001600160a01b031615610e185760048101546002820154610d6e9130916001600160a01b0390911690612ead565b600181015460038201546040516001600160a01b03909216916001600160801b03600160801b9092049190911680156108fc02916000818181858888f19350505050158015610dc1573d6000803e3d6000fd5b50600481018054600280840180546000908152600c602052604080822060010180546001600160a01b03199081166001600160a01b0397881617909155955492548252902090910180549093169116179055610e8f565b60018101546002820154610e399130916001600160a01b0390911690612ead565b60018082018054600280850180546000908152600c602052604080822090960180546001600160a01b03199081166001600160a01b03968716179091559454915481529490942001805490921692169190911790555b600281015460048201546003830154604080516001600160a01b039093168352600160801b9091046001600160801b0316602083015284917f446087716b3a41f4a80627ad75ee7f352afc92d2aef521502620231ba64c0e1b910160405180910390a350610efd6001600755565b50565b610f08613011565b6000828152600e602052604090206005810154610f37906001600160801b03600160801b820481169116614000565b6001600160801b03164210610f7e5760405162461bcd60e51b815260206004820152600d60248201526c105d58dd1a5bdb88195b991959609a1b6044820152606401610843565b6003810154600160801b90046001600160801b031634118015610fae575060038101546001600160801b03163410155b610fe85760405162461bcd60e51b815260206004820152600b60248201526a42696420746f6f206c6f7760a81b6044820152606401610843565b60048101546001600160a01b03161561105057600481015460038201546040516001600160a01b03909216916001600160801b03600160801b9092049190911680156108fc02916000818181858888f1935050505015801561104e573d6000803e3d6000fd5b505b600381810180546001600160801b03908116600160801b3480841691820292909217909355600485018054336001600160a01b031991821681179092556000898152600f602090815260408083208584528252808320959095558a82526011815284822085516060810187529485528482019788529484018a81528554600181810188559684529190922084519190980290970180549092166001600160a01b03909716969096178155935191840180546fffffffffffffffffffffffffffffffff19169290931691909117909155915160028201906111309082613e9d565b505060405134815233915084907f0e54eff26401bf69b81b26f60bd85ef47f5d85275c1d268d84f68d6897431c479060200160405180910390a3506111756001600755565b5050565b6108e483838360405180602001604052806000815250612402565b61119c613011565b6000818152600c6020526040902060038101546002909101546001600160a01b0316348214611235576040805162461bcd60e51b81526020600482015260248101919091527f506c65617365207375626d6974207468652061736b696e67207072696365206960448201527f6e206f7264657220746f20636f6d706c657465207468652070757263686173656064820152608401610843565b6000838152600c6020526040902060048101805460ff191690556001810180546001600160a01b03199081163390811790925560029092018054909216179055611283600980546001019055565b61128e303385612ead565b61129830846107cf565b6040516001600160a01b038216903480156108fc02916000818181858888f193505050501580156112cd573d6000803e3d6000fd5b506000838152600c6020908152604091829020600401548251858152339281019290925260ff16151581830152905184917fa6fcef706a46784e1a391af3cb4d93b8606d16168685050658b2690f82a4f59f919081900360600190a25050610efd6001600755565b600e602052600090815260409020805460018201546002830154600384015460048501546005860154600687015460078801805497986001600160a01b039788169896976001600160801b0380881698600160801b9889900482169897909216968682169604169360ff1692906113ab90613e15565b80601f01602080910402602001604051908101604052809291908181526020018280546113d790613e15565b80156114245780601f106113f957610100808354040283529160200191611424565b820191906000526020600020905b81548152906001019060200180831161140757829003601f168201915b505050505090508a565b6000600b54341461148d5760405162461bcd60e51b815260206004820152602360248201527f486f706566756c6c792073656e64696e672074686520636f727265637420707260448201526269636560e81b6064820152608401610843565b600082116114e85760405162461bcd60e51b815260206004820152602260248201527f4d616b652073757265207468652070726963652069736e2774206e6567617469604482015261766560f01b6064820152608401610843565b600a546040516000916001600160a01b03169034908381818185875af1925050503d8060008114611535576040519150601f19603f3d011682016040523d82523d6000602084013e61153a565b606091505b505090508061158b5760405162461bcd60e51b815260206004820181905260248201527f4661696c656420746f2073656e64206d696e742066656520746f206f776e65726044820152606401610843565b611599600880546001019055565b60006115a460085490565b90506115b0338261306a565b6115ba8186612d73565b6040805160c081018252828152306020808301918252338385019081526060840189815260016080860181815260a087018d815260008a8152600c9096529790942086518155945190850180546001600160a01b03199081166001600160a01b039384161790915592516002860180549094169116179091555160038301555160048201805460ff1916911515919091179055915190919060058201906116619082613e9d565b50905050611670333083612ead565b807fbe03728682d1fb99860367c3b95f7c28a74af28403c7805ebc7ae722543222cc30338760018a6040516116a995949392919061401f565b60405180910390a2949350505050565b601160205281600052604060002081815481106116d557600080fd5b60009182526020909120600390910201805460018201546002830180546001600160a01b0390931695506001600160801b0390911693509061171690613e15565b80601f016020809104026020016040519081016040528092919081815260200182805461174290613e15565b801561178f5780601f106117645761010080835404028352916020019161178f565b820191906000526020600020905b81548152906001019060200180831161177257829003601f168201915b5050505050905083565b606060006117a660085490565b905060008080805b848110156118345733600c60006117c6846001613fbe565b81526020810191909152604001600020600101546001600160a01b03161480611819575033600c60006117fa846001613fbe565b81526020810191909152604001600020600201546001600160a01b0316145b1561182c57611829600185613fbe565b93505b6001016117ae565b506000836001600160401b0381111561184f5761184f613799565b60405190808252806020026020018201604052801561188857816020015b61187561365a565b81526020019060019003908161186d5790505b50905060005b85811015611a3a5733600c60006118a6846001613fbe565b81526020810191909152604001600020600101546001600160a01b031614806118f9575033600c60006118da846001613fbe565b81526020810191909152604001600020600201546001600160a01b0316145b15611a3257611909816001613fbe565b6000818152600c6020908152604091829020825160c0810184528154815260018201546001600160a01b039081169382019390935260028201549092169282019290925260038201546060820152600482015460ff161515608082015260058201805493965091929091839160a08401919061198490613e15565b80601f01602080910402602001604051908101604052809291908181526020018280546119b090613e15565b80156119fd5780601f106119d2576101008083540402835291602001916119fd565b820191906000526020600020905b8154815290600101906020018083116119e057829003601f168201915b505050505081525050838681518110611a1857611a18613fea565b6020908102919091010152611a2e600186613fbe565b9450505b60010161188e565b5095945050505050565b6000818152600260205260408120546001600160a01b0316806107105760405162461bcd60e51b8152602060048201526018602482015277115490cdcc8c4e881a5b9d985b1a59081d1bdad95b88125160421b6044820152606401610843565b60006001600160a01b038216611b0e5760405162461bcd60e51b815260206004820152602960248201527f4552433732313a2061646472657373207a65726f206973206e6f7420612076616044820152683634b21037bbb732b960b91b6064820152608401610843565b506001600160a01b031660009081526003602052604090205490565b611b3261365a565b6000828152600c6020908152604091829020825160c0810184528154815260018201546001600160a01b039081169382019390935260028201549092169282019290925260038201546060820152600482015460ff161515608082015260058201805491929160a084019190611ba790613e15565b80601f0160208091040260200160405190810160405280929190818152602001828054611bd390613e15565b8015611c205780601f10611bf557610100808354040283529160200191611c20565b820191906000526020600020905b815481529060010190602001808311611c0357829003601f168201915b5050505050815250509050919050565b60606001805461072590613e15565b611175338383613084565b33611c5483611a44565b6001600160a01b031614611caa5760405162461bcd60e51b815260206004820152601d60248201527f4f6e6c7920746865204e4654206f776e65722063616e2072656c6973740000006044820152606401610843565b60008111611cfa5760405162461bcd60e51b815260206004820152601f60248201527f5072696365206d7573742062652067726561746572207468616e207a65726f006044820152606401610843565b6000828152600c60205260409020600481018054600160ff19909116811790915560038201839055600282018054336001600160a01b0319918216811790925591909201805430921682179055611d52919084612ead565b817fbe03728682d1fb99860367c3b95f7c28a74af28403c7805ebc7ae722543222cc3033846001600c6000898152602001908152602001600020600501604051611da09594939291906140e8565b60405180910390a25050565b606060116000838152602001908152602001600020805480602002602001604051908101604052809291908181526020016000905b82821015611ece576000848152602090819020604080516060810182526003860290920180546001600160a01b0316835260018101546001600160801b03169383019390935260028301805492939291840191611e3d90613e15565b80601f0160208091040260200160405190810160405280929190818152602001828054611e6990613e15565b8015611eb65780601f10611e8b57610100808354040283529160200191611eb6565b820191906000526020600020905b815481529060010190602001808311611e9957829003601f168201915b50505050508152505081526020019060010190611de1565b505050509050919050565b6010543414611f395760405162461bcd60e51b815260206004820152602660248201527f4d7573742070617920302e3031204554482066656520746f20737461727420616044820152653ab1ba34b7b760d11b6064820152608401610843565b603c826001600160801b03161015611fa65760405162461bcd60e51b815260206004820152602a60248201527f41756374696f6e206475726174696f6e206d757374206265206174206c656173604482015269742031206d696e75746560b01b6064820152608401610843565b6000848152600c60205260409020600201546001600160a01b0316331480611fe757506000848152600c60205260409020600101546001600160a01b031633145b6120235760405162461bcd60e51b815260206004820152600d60248201526c2737ba103a34329037bbb732b960991b6044820152606401610843565b61202c84612d56565b61206f5760405162461bcd60e51b8152602060048201526014602482015273151bdad95b88191bd95cc81b9bdd08195e1a5cdd60621b6044820152606401610843565b6000848152600c602052604090206004015460ff16156120d15760405162461bcd60e51b815260206004820152601e60248201527f4e465420697320616c7265616479206c697374656420666f722073616c6500006044820152606401610843565b600a546040516000916001600160a01b03169034908381818185875af1925050503d806000811461211e576040519150601f19603f3d011682016040523d82523d6000602084013e612123565b606091505b50509050806121805760405162461bcd60e51b815260206004820152602360248201527f4661696c656420746f2073656e642061756374696f6e2066656520746f206f776044820152623732b960e91b6064820152608401610843565b61218e600d80546001019055565b612199333087612ead565b60006121a4600d5490565b9050604051806101400160405280828152602001336001600160a01b03168152602001878152602001866001600160801b0316815260200160006001600160801b0316815260200160006001600160a01b03168152602001426001600160801b03168152602001856001600160801b0316815260200160001515815260200184815250600e60008381526020019081526020016000206000820151816000015560208201518160010160006101000a8154816001600160a01b0302191690836001600160a01b031602179055506040820151816002015560608201518160030160006101000a8154816001600160801b0302191690836001600160801b0316021790555060808201518160030160106101000a8154816001600160801b0302191690836001600160801b0316021790555060a08201518160040160006101000a8154816001600160a01b0302191690836001600160a01b0316021790555060c08201518160050160006101000a8154816001600160801b0302191690836001600160801b0316021790555060e08201518160050160106101000a8154816001600160801b0302191690836001600160801b031602179055506101008201518160060160006101000a81548160ff0219169083151502179055506101208201518160070190816123939190613e9d565b503391508290507f3654a00f91dd0ac6ecaadbc1445136cdbd8135727403afe6a6ef06cc482d256f88886123d06001600160801b038a1642613fbe565b60008c8152600c60205260409081902090516123f29493929160050190614123565b60405180910390a3505050505050565b61240c3383612e2f565b6124285760405162461bcd60e51b815260040161084390613f5b565b6109d584848484613152565b60606000612441600d5490565b90506000805b828110156124a0576001600160a01b038516600e6000612468846001613fbe565b81526020810191909152604001600020600101546001600160a01b031603612498578161249481613fd1565b9250505b600101612447565b506000816001600160401b038111156124bb576124bb613799565b6040519080825280602002602001820160405280156124f457816020015b6124e1613604565b8152602001906001900390816124d95790505b5090506000805b848110156126b7576001600160a01b038716600e600061251c846001613fbe565b81526020810191909152604001600020600101546001600160a01b0316036126af57600e600061254d836001613fbe565b815260208082019290925260409081016000208151610140810183528154815260018201546001600160a01b039081169482019490945260028201549281019290925260038101546001600160801b038082166060850152600160801b9182900481166080850152600483015490941660a0840152600582015480851660c08501520490921660e0820152600682015460ff1615156101008201526007820180549192916101208401919061260190613e15565b80601f016020809104026020016040519081016040528092919081815260200182805461262d90613e15565b801561267a5780601f1061264f5761010080835404028352916020019161267a565b820191906000526020600020905b81548152906001019060200180831161265d57829003601f168201915b50505050508152505083838151811061269557612695613fea565b602002602001018190525081806126ab90613fd1565b9250505b6001016124fb565b509095945050505050565b600a546001600160a01b031633146127285760405162461bcd60e51b815260206004820152602360248201527f4f6e6c79206f776e65722063616e20757064617465206c697374696e6720707260448201526269636560e81b6064820152608401610843565b600b55565b606061273882612c98565b6000828152600660205260408120805461275190613e15565b80601f016020809104026020016040519081016040528092919081815260200182805461277d90613e15565b80156127ca5780601f1061279f576101008083540402835291602001916127ca565b820191906000526020600020905b8154815290600101906020018083116127ad57829003601f168201915b5050505050905060006127e860408051602081019091526000815290565b905080516000036127fa575092915050565b81511561282c57808260405160200161281492919061415b565b60405160208183030381529060405292505050919050565b61283584613185565b949350505050565b6060600061284a600d5490565b90506000805b8281101561289e576000600e81612868846001613fbe565b81526020810191909152604001600020600681015490915060ff16612895578261289181613fd1565b9350505b50600101612850565b506000816001600160401b038111156128b9576128b9613799565b6040519080825280602002602001820160405280156128f257816020015b6128df613604565b8152602001906001900390816128d75790505b5090506000805b84811015610c57576000600e81612911846001613fbe565b81526020810191909152604001600020600681015490915060ff16612a7d5760408051610140810182528254815260018301546001600160a01b03908116602083015260028401549282019290925260038301546001600160801b038082166060840152600160801b9182900481166080840152600485015490931660a0830152600584015480841660c08401520490911660e0820152600682015460ff16151561010082015260078201805483916101208401916129cf90613e15565b80601f01602080910402602001604051908101604052809291908181526020018280546129fb90613e15565b8015612a485780601f10612a1d57610100808354040283529160200191612a48565b820191906000526020600020905b815481529060010190602001808311612a2b57829003601f168201915b505050505081525050848481518110612a6357612a63613fea565b60200260200101819052508280612a7990613fd1565b9350505b506001016128f9565b60606000612a9360085490565b90506000816001600160401b03811115612aaf57612aaf613799565b604051908082528060200260200182016040528015612ae857816020015b612ad561365a565b815260200190600190039081612acd5790505b509050600080805b84811015612c3357612b03816001613fbe565b6000818152600c6020908152604091829020825160c0810184528154815260018201546001600160a01b039081169382019390935260028201549092169282019290925260038201546060820152600482015460ff161515608082015260058201805493955091929091839160a084019190612b7e90613e15565b80601f0160208091040260200160405190810160405280929190818152602001828054612baa90613e15565b8015612bf75780601f10612bcc57610100808354040283529160200191612bf7565b820191906000526020600020905b815481529060010190602001808311612bda57829003601f168201915b505050505081525050858581518110612c1257612c12613fea565b6020908102919091010152612c28600185613fbe565b935050600101612af0565b5091949350505050565b60006108f460085490565b60006001600160e01b031982166380ac58cd60e01b1480612c7957506001600160e01b03198216635b5e139f60e01b145b8061071057506301ffc9a760e01b6001600160e01b0319831614610710565b612ca181612d56565b610efd5760405162461bcd60e51b8152602060048201526018602482015277115490cdcc8c4e881a5b9d985b1a59081d1bdad95b88125160421b6044820152606401610843565b600081815260046020526040902080546001600160a01b0319166001600160a01b0384169081179091558190612d1d82611a44565b6001600160a01b03167f8c5be1e5ebec7d5bd14f71427d1e84f3dd0314c0f7b2291e5b200ac8c7c3b92560405160405180910390a45050565b6000908152600260205260409020546001600160a01b0316151590565b612d7c82612d56565b612ddf5760405162461bcd60e51b815260206004820152602e60248201527f45524337323155524953746f726167653a2055524920736574206f66206e6f6e60448201526d32bc34b9ba32b73a103a37b5b2b760911b6064820152608401610843565b6000828152600660205260409020612df78282613e9d565b506040518281527ff8e1a15aba9398e019f0b49df1a4fde98ee17ae345cb5f6b5e2c27f5033e8ce79060200160405180910390a15050565b600080612e3b83611a44565b9050806001600160a01b0316846001600160a01b03161480612e8257506001600160a01b0380821660009081526005602090815260408083209388168352929052205460ff165b806128355750836001600160a01b0316612e9b846107a8565b6001600160a01b031614949350505050565b826001600160a01b0316612ec082611a44565b6001600160a01b031614612ee65760405162461bcd60e51b81526004016108439061418a565b6001600160a01b038216612f485760405162461bcd60e51b8152602060048201526024808201527f4552433732313a207472616e7366657220746f20746865207a65726f206164646044820152637265737360e01b6064820152608401610843565b826001600160a01b0316612f5b82611a44565b6001600160a01b031614612f815760405162461bcd60e51b81526004016108439061418a565b600081815260046020908152604080832080546001600160a01b03199081169091556001600160a01b0387811680865260038552838620805460001901905590871680865283862080546001019055868652600290945282852080549092168417909155905184937fddf252ad1be2c89b69c2b068fc378daa952ba7f163c4a11628f55a4df523b3ef91a4505050565b6002600754036130635760405162461bcd60e51b815260206004820152601f60248201527f5265656e7472616e637947756172643a207265656e7472616e742063616c6c006044820152606401610843565b6002600755565b6111758282604051806020016040528060008152506131f9565b816001600160a01b0316836001600160a01b0316036130e55760405162461bcd60e51b815260206004820152601960248201527f4552433732313a20617070726f766520746f2063616c6c6572000000000000006044820152606401610843565b6001600160a01b03838116600081815260056020908152604080832094871680845294825291829020805460ff191686151590811790915591519182527f17307eab39ab6107e8899845ad3d59bd9653f200f220920489ca2b5937696c31910160405180910390a3505050565b61315d848484612ead565b6131698484848461322c565b6109d55760405162461bcd60e51b8152600401610843906141cf565b606061319082612c98565b60006131a760408051602081019091526000815290565b905060008151116131c757604051806020016040528060008152506131f2565b806131d18461332d565b6040516020016131e292919061415b565b6040516020818303038152906040525b9392505050565b61320383836133bf565b613210600084848461322c565b6108e45760405162461bcd60e51b8152600401610843906141cf565b60006001600160a01b0384163b1561332257604051630a85bd0160e11b81526001600160a01b0385169063150b7a0290613270903390899088908890600401614221565b6020604051808303816000875af19250505080156132ab575060408051601f3d908101601f191682019092526132a891810190614254565b60015b613308573d8080156132d9576040519150601f19603f3d011682016040523d82523d6000602084013e6132de565b606091505b5080516000036133005760405162461bcd60e51b8152600401610843906141cf565b805181602001fd5b6001600160e01b031916630a85bd0160e11b149050612835565b506001949350505050565b6060600061333a8361352c565b60010190506000816001600160401b0381111561335957613359613799565b6040519080825280601f01601f191660200182016040528015613383576020820181803683370190505b5090508181016020015b600019016f181899199a1a9b1b9c1cb0b131b232b360811b600a86061a8153600a850494508461338d57509392505050565b6001600160a01b0382166134155760405162461bcd60e51b815260206004820181905260248201527f4552433732313a206d696e7420746f20746865207a65726f20616464726573736044820152606401610843565b61341e81612d56565b1561346b5760405162461bcd60e51b815260206004820152601c60248201527f4552433732313a20746f6b656e20616c7265616479206d696e746564000000006044820152606401610843565b61347481612d56565b156134c15760405162461bcd60e51b815260206004820152601c60248201527f4552433732313a20746f6b656e20616c7265616479206d696e746564000000006044820152606401610843565b6001600160a01b038216600081815260036020908152604080832080546001019055848352600290915280822080546001600160a01b0319168417905551839291907fddf252ad1be2c89b69c2b068fc378daa952ba7f163c4a11628f55a4df523b3ef908290a45050565b60008072184f03e93ff9f4daa797ed6e38ed64bf6a1f0160401b831061356b5772184f03e93ff9f4daa797ed6e38ed64bf6a1f0160401b830492506040015b6d04ee2d6d415b85acef81000000008310613597576d04ee2d6d415b85acef8100000000830492506020015b662386f26fc1000083106135b557662386f26fc10000830492506010015b6305f5e10083106135cd576305f5e100830492506008015b61271083106135e157612710830492506004015b606483106135f3576064830492506002015b600a83106107105760010192915050565b604080516101408101825260008082526020820181905291810182905260608082018390526080820183905260a0820183905260c0820183905260e0820183905261010082019290925261012081019190915290565b6040518060c001604052806000815260200160006001600160a01b0316815260200160006001600160a01b0316815260200160008152602001600015158152602001606081525090565b6001600160e01b031981168114610efd57600080fd5b6000602082840312156136cc57600080fd5b81356131f2816136a4565b60005b838110156136f25781810151838201526020016136da565b50506000910152565b600081518084526137138160208601602086016136d7565b601f01601f19169290920160200192915050565b6020815260006131f260208301846136fb565b60006020828403121561374c57600080fd5b5035919050565b80356001600160a01b038116811461376a57600080fd5b919050565b6000806040838503121561378257600080fd5b61378b83613753565b946020939093013593505050565b634e487b7160e01b600052604160045260246000fd5b6000806001600160401b038411156137c9576137c9613799565b50604051601f19601f85018116603f011681018181106001600160401b03821117156137f7576137f7613799565b60405283815290508082840185101561380f57600080fd5b83836020830137600060208583010152509392505050565b600082601f83011261383857600080fd5b6131f2838335602085016137af565b6000806040838503121561385a57600080fd5b8235915060208301356001600160401b0381111561387757600080fd5b61388385828601613827565b9150509250929050565b6000806000606084860312156138a257600080fd5b6138ab84613753565b92506138b960208501613753565b929592945050506040919091013590565b6000602082016020835280845180835260408501915060408160051b86010192506020860160005b82811015613a0057603f19878603018452815180518652602081015161392360208801826001600160a01b03169052565b5060408101516040870152606081015161394860608801826001600160801b03169052565b50608081015161396360808801826001600160801b03169052565b5060a081015161397e60a08801826001600160a01b03169052565b5060c081015161399960c08801826001600160801b03169052565b5060e08101516139b460e08801826001600160801b03169052565b506101008101516139ca61010088018215159052565b5061012081015190506101406101208701526139ea6101408701826136fb565b95505060209384019391909101906001016138f2565b50929695505050505050565b60008060408385031215613a1f57600080fd5b82359150613a2f60208401613753565b90509250929050565b8a81526001600160a01b038a81166020830152604082018a90526001600160801b038981166060840152888116608084015290871660a083015285811660c0830152841660e08201528215156101008201526101406101208201819052600090613aa4908301846136fb565b9c9b505050505050505050505050565b60008060408385031215613ac757600080fd5b82356001600160401b03811115613add57600080fd5b613ae985828601613827565b95602094909401359450505050565b60008060408385031215613b0b57600080fd5b50508035926020909101359150565b6001600160a01b03841681526001600160801b0383166020820152606060408201819052600090613b4d908301846136fb565b95945050505050565b8051825260018060a01b03602082015116602083015260018060a01b03604082015116604083015260608101516060830152608081015115156080830152600060a082015160c060a085015261283560c08501826136fb565b6000602082016020835280845180835260408501915060408160051b86010192506020860160005b82811015613a0057603f19878603018452613bf3858351613b56565b94506020938401939190910190600101613bd7565b600060208284031215613c1a57600080fd5b6131f282613753565b6020815260006131f26020830184613b56565b60008060408385031215613c4957600080fd5b613c5283613753565b915060208301358015158114613c6757600080fd5b809150509250929050565b6000602082016020835280845180835260408501915060408160051b86010192506020860160005b82811015613a0057868503603f19018452815180516001600160a01b031686526020808201516001600160801b031690870152604090810151606091870182905290613ce8908701826136fb565b9550506020938401939190910190600101613c9a565b80356001600160801b038116811461376a57600080fd5b60008060008060808587031215613d2b57600080fd5b84359350613d3b60208601613cfe565b9250613d4960408601613cfe565b915060608501356001600160401b03811115613d6457600080fd5b613d7087828801613827565b91505092959194509250565b60008060008060808587031215613d9257600080fd5b613d9b85613753565b9350613da960208601613753565b92506040850135915060608501356001600160401b03811115613dcb57600080fd5b8501601f81018713613ddc57600080fd5b613d70878235602084016137af565b60008060408385031215613dfe57600080fd5b613e0783613753565b9150613a2f60208401613753565b600181811c90821680613e2957607f821691505b602082108103613e4957634e487b7160e01b600052602260045260246000fd5b50919050565b601f8211156108e457806000526020600020601f840160051c81016020851015613e765750805b601f840160051c820191505b81811015613e965760008155600101613e82565b5050505050565b81516001600160401b03811115613eb657613eb6613799565b613eca81613ec48454613e15565b84613e4f565b6020601f821160018114613efe5760008315613ee65750848201515b600019600385901b1c1916600184901b178455613e96565b600084815260208120601f198516915b82811015613f2e5787850151825560209485019460019092019101613f0e565b5084821015613f4c5786840151600019600387901b60f8161c191681555b50505050600190811b01905550565b6020808252602d908201527f4552433732313a2063616c6c6572206973206e6f7420746f6b656e206f776e6560408201526c1c881bdc88185c1c1c9bdd9959609a1b606082015260800190565b634e487b7160e01b600052601160045260246000fd5b8082018082111561071057610710613fa8565b600060018201613fe357613fe3613fa8565b5060010190565b634e487b7160e01b600052603260045260246000fd5b6001600160801b03818116838216019081111561071057610710613fa8565b6001600160a01b0386811682528516602082015260408101849052821515606082015260a06080820181905260009061405a908301846136fb565b979650505050505050565b6000815461407281613e15565b80855260018216801561408c57600181146140a8576140df565b60ff1983166020870152602082151560051b87010193506140df565b84600052602060002060005b838110156140d65781546020828a0101526001820191506020810190506140b4565b87016020019450505b50505092915050565b6001600160a01b0386811682528516602082015260408101849052821515606082015260a06080820181905260009061405a90830184614065565b8481526001600160801b03841660208201528260408201526080606082015260006141516080830184614065565b9695505050505050565b6000835161416d8184602088016136d7565b8351908301906141818183602088016136d7565b01949350505050565b60208082526025908201527f4552433732313a207472616e736665722066726f6d20696e636f72726563742060408201526437bbb732b960d91b606082015260800190565b60208082526032908201527f4552433732313a207472616e7366657220746f206e6f6e20455243373231526560408201527131b2b4bb32b91034b6b83632b6b2b73a32b960711b606082015260800190565b6001600160a01b0385811682528416602082015260408101839052608060608201819052600090614151908301846136fb565b60006020828403121561426657600080fd5b81516131f2816136a456fea2646970667358221220e8259dba218defac5a13f61946307fb941fde15e1cccfc33653c410b4b8aa23c64736f6c634300081c0033",
  "linkReferences": {},
  "deployedLinkReferences": {}
}