{
  "_format": "hh-sol-artifact-1",
  "contractName": "NFTMarketplace",
  "sourceName": "contracts/NFTMarketplace.sol",
  "abi": [
    {
      "inputs": [],
      "stateMutability": "nonpayable",
      "type": "constructor"
    },
    {
      "anonymous": false,
      "inputs": [
        {
          "indexed": true,
          "internalType": "address",
          "name": "owner",
          "type": "address"
        },
        {
          "indexed": true,
          "internalType": "address",
          "name": "approved",
          "type": "address"
        },
        {
          "indexed": true,
          "internalType": "uint256",
          "name": "tokenId",
          "type": "uint256"
        }
      ],
      "name": "Approval",
      "type": "event"
    },
    {
      "anonymous": false,
      "inputs": [
        {
          "indexed": true,
          "internalType": "address",
          "name": "owner",
          "type": "address"
        },
        {
          "indexed": true,
          "internalType": "address",
          "name": "operator",
          "type": "address"
        },
        {
          "indexed": false,
          "internalType": "bool",
          "name": "approved",
          "type": "bool"
        }
      ],
      "name": "ApprovalForAll",
      "type": "event"
    },
    {
      "anonymous": false,
      "inputs": [
        {
          "indexed": true,
          "internalType": "uint256",
          "name": "auctionId",
          "type": "uint256"
        },
        {
          "indexed": true,
          "internalType": "address",
          "name": "seller",
          "type": "address"
        },
        {
          "indexed": false,
          "internalType": "uint256",
          "name": "tokenId",
          "type": "uint256"
        },
        {
          "indexed": false,
          "internalType": "uint256",
          "name": "minBid",
          "type": "uint256"
        },
        {
          "indexed": false,
          "internalType": "uint256",
          "name": "endTime",
          "type": "uint256"
        },
        {
          "indexed": false,
          "internalType": "string",
          "name": "auctionURI",
          "type": "string"
        }
      ],
      "name": "AuctionCreated",
      "type": "event"
    },
    {
      "anonymous": false,
      "inputs": [
        {
          "indexed": true,
          "internalType": "uint256",
          "name": "auctionId",
          "type": "uint256"
        },
        {
          "indexed": true,
          "internalType": "uint256",
          "name": "tokenId",
          "type": "uint256"
        },
        {
          "indexed": false,
          "internalType": "address",
          "name": "winner",
          "type": "address"
        },
        {
          "indexed": false,
          "internalType": "uint256",
          "name": "amount",
          "type": "uint256"
        }
      ],
      "name": "AuctionFinalized",
      "type": "event"
    },
    {
      "anonymous": false,
      "inputs": [
        {
          "indexed": false,
          "internalType": "uint256",
          "name": "_fromTokenId",
          "type": "uint256"
        },
        {
          "indexed": false,
          "internalType": "uint256",
          "name": "_toTokenId",
          "type": "uint256"
        }
      ],
      "name": "BatchMetadataUpdate",
      "type": "event"
    },
    {
      "anonymous": false,
      "inputs": [
        {
          "indexed": true,
          "internalType": "uint256",
          "name": "auctionId",
          "type": "uint256"
        },
        {
          "indexed": true,
          "internalType": "address",
          "name": "bidder",
          "type": "address"
        },
        {
          "indexed": false,
          "internalType": "uint256",
          "name": "amount",
          "type": "uint256"
        }
      ],
      "name": "BidPlaced",
      "type": "event"
    },
    {
      "anonymous": false,
      "inputs": [
        {
          "indexed": false,
          "internalType": "uint256",
          "name": "_tokenId",
          "type": "uint256"
        }
      ],
      "name": "MetadataUpdate",
      "type": "event"
    },
    {
      "anonymous": false,
      "inputs": [
        {
          "indexed": true,
          "internalType": "uint256",
          "name": "tokenId",
          "type": "uint256"
        },
        {
          "indexed": false,
          "internalType": "uint256",
          "name": "price",
          "type": "uint256"
        },
        {
          "indexed": false,
          "internalType": "address",
          "name": "owner",
          "type": "address"
        },
        {
          "indexed": false,
          "internalType": "bool",
          "name": "currentlyListed",
          "type": "bool"
        }
      ],
      "name": "TokenBoughtSuccess",
      "type": "event"
    },
    {
      "anonymous": false,
      "inputs": [
        {
          "indexed": true,
          "internalType": "uint256",
          "name": "tokenId",
          "type": "uint256"
        },
        {
          "indexed": false,
          "internalType": "address",
          "name": "owner",
          "type": "address"
        },
        {
          "indexed": false,
          "internalType": "address",
          "name": "seller",
          "type": "address"
        },
        {
          "indexed": false,
          "internalType": "uint256",
          "name": "price",
          "type": "uint256"
        },
        {
          "indexed": false,
          "internalType": "bool",
          "name": "currentlyListed",
          "type": "bool"
        },
        {
          "indexed": false,
          "internalType": "string",
          "name": "tokenURI",
          "type": "string"
        }
      ],
      "name": "TokenListedSuccess",
      "type": "event"
    },
    {
      "anonymous": false,
      "inputs": [
        {
          "indexed": true,
          "internalType": "address",
          "name": "from",
          "type": "address"
        },
        {
          "indexed": true,
          "internalType": "address",
          "name": "to",
          "type": "address"
        },
        {
          "indexed": true,
          "internalType": "uint256",
          "name": "tokenId",
          "type": "uint256"
        }
      ],
      "name": "Transfer",
      "type": "event"
    },
    {
      "inputs": [
        {
          "internalType": "address",
          "name": "to",
          "type": "address"
        },
        {
          "internalType": "uint256",
          "name": "tokenId",
          "type": "uint256"
        }
      ],
      "name": "approve",
      "outputs": [],
      "stateMutability": "nonpayable",
      "type": "function"
    },
    {
      "inputs": [
        {
          "internalType": "uint256",
          "name": "",
          "type": "uint256"
        },
        {
          "internalType": "uint256",
          "name": "",
          "type": "uint256"
        }
      ],
      "name": "auctionBids",
      "outputs": [
        {
          "internalType": "address",
          "name": "bidder",
          "type": "address"
        },
        {
          "internalType": "uint128",
          "name": "amount",
          "type": "uint128"
        },
        {
          "internalType": "string",
          "name": "name",
          "type": "string"
        }
      ],
      "stateMutability": "view",
      "type": "function"
    },
    {
      "inputs": [],
      "name": "auctionFee",
      "outputs": [
        {
          "internalType": "uint256",
          "name": "",
          "type": "uint256"
        }
      ],
      "stateMutability": "view",
      "type": "function"
    },
    {
      "inputs": [
        {
          "internalType": "uint256",
          "name": "",
          "type": "uint256"
        }
      ],
      "name": "auctions",
      "outputs": [
        {
          "internalType": "uint256",
          "name": "auctionId",
          "type": "uint256"
        },
        {
          "internalType": "address",
          "name": "seller",
          "type": "address"
        },
        {
          "internalType": "uint256",
          "name": "tokenId",
          "type": "uint256"
        },
        {
          "internalType": "uint128",
          "name": "minBid",
          "type": "uint128"
        },
        {
          "internalType": "uint128",
          "name": "highestBid",
          "type": "uint128"
        },
        {
          "internalType": "address",
          "name": "highestBidder",
          "type": "address"
        },
        {
          "internalType": "uint128",
          "name": "startTime",
          "type": "uint128"
        },
        {
          "internalType": "uint128",
          "name": "duration",
          "type": "uint128"
        },
        {
          "internalType": "bool",
          "name": "settled",
          "type": "bool"
        },
        {
          "internalType": "string",
          "name": "auctionURI",
          "type": "string"
        }
      ],
      "stateMutability": "view",
      "type": "function"
    },
    {
      "inputs": [
        {
          "internalType": "address",
          "name": "owner",
          "type": "address"
        }
      ],
      "name": "balanceOf",
      "outputs": [
        {
          "internalType": "uint256",
          "name": "",
          "type": "uint256"
        }
      ],
      "stateMutability": "view",
      "type": "function"
    },
    {
      "inputs": [
        {
          "internalType": "uint256",
          "name": "",
          "type": "uint256"
        },
        {
          "internalType": "address",
          "name": "",
          "type": "address"
        }
      ],
      "name": "bids",
      "outputs": [
        {
          "internalType": "uint256",
          "name": "",
          "type": "uint256"
        }
      ],
      "stateMutability": "view",
      "type": "function"
    },
    {
      "inputs": [
        {
          "internalType": "uint256",
          "name": "tokenId",
          "type": "uint256"
        }
      ],
      "name": "buyNFT",
      "outputs": [],
      "stateMutability": "payable",
      "type": "function"
    },
    {
      "inputs": [
        {
          "internalType": "uint256",
          "name": "tokenId",
          "type": "uint256"
        },
        {
          "internalType": "uint128",
          "name": "minBid",
          "type": "uint128"
        },
        {
          "internalType": "uint128",
          "name": "duration",
          "type": "uint128"
        },
        {
          "internalType": "string",
          "name": "auctionURI",
          "type": "string"
        }
      ],
      "name": "createAuction",
      "outputs": [],
      "stateMutability": "payable",
      "type": "function"
    },
    {
      "inputs": [],
      "name": "getActiveAuctions",
      "outputs": [
        {
          "components": [
            {
              "internalType": "uint256",
              "name": "auctionId",
              "type": "uint256"
            },
            {
              "internalType": "address",
              "name": "seller",
              "type": "address"
            },
            {
              "internalType": "uint256",
              "name": "tokenId",
              "type": "uint256"
            },
            {
              "internalType": "uint128",
              "name": "minBid",
              "type": "uint128"
            },
            {
              "internalType": "uint128",
              "name": "highestBid",
              "type": "uint128"
            },
            {
              "internalType": "address",
              "name": "highestBidder",
              "type": "address"
            },
            {
              "internalType": "uint128",
              "name": "startTime",
              "type": "uint128"
            },
            {
              "internalType": "uint128",
              "name": "duration",
              "type": "uint128"
            },
            {
              "internalType": "bool",
              "name": "settled",
              "type": "bool"
            },
            {
              "internalType": "string",
              "name": "auctionURI",
              "type": "string"
            }
          ],
          "internalType": "struct NFTMarketplace.AuctionItem[]",
          "name": "",
          "type": "tuple[]"
        }
      ],
      "stateMutability": "view",
      "type": "function"
    },
    {
      "inputs": [
        {
          "internalType": "uint256",
          "name": "auctionId",
          "type": "uint256"
        }
      ],
      "name": "getAllBids",
      "outputs": [
        {
          "components": [
            {
              "internalType": "address",
              "name": "bidder",
              "type": "address"
            },
            {
              "internalType": "uint128",
              "name": "amount",
              "type": "uint128"
            },
            {
              "internalType": "string",
              "name": "name",
              "type": "string"
            }
          ],
          "internalType": "struct NFTMarketplace.Bid[]",
          "name": "",
          "type": "tuple[]"
        }
      ],
      "stateMutability": "view",
      "type": "function"
    },
    {
      "inputs": [],
      "name": "getAllNFTs",
      "outputs": [
        {
          "components": [
            {
              "internalType": "uint256",
              "name": "tokenId",
              "type": "uint256"
            },
            {
              "internalType": "address payable",
              "name": "owner",
              "type": "address"
            },
            {
              "internalType": "address payable",
              "name": "seller",
              "type": "address"
            },
            {
              "internalType": "uint256",
              "name": "price",
              "type": "uint256"
            },
            {
              "internalType": "bool",
              "name": "currentlyListed",
              "type": "bool"
            },
            {
              "internalType": "string",
              "name": "tokenURI",
              "type": "string"
            }
          ],
          "internalType": "struct NFTMarketplace.ListedToken[]",
          "name": "",
          "type": "tuple[]"
        }
      ],
      "stateMutability": "view",
      "type": "function"
    },
    {
      "inputs": [
        {
          "internalType": "uint256",
          "name": "tokenId",
          "type": "uint256"
        }
      ],
      "name": "getApproved",
      "outputs": [
        {
          "internalType": "address",
          "name": "",
          "type": "address"
        }
      ],
      "stateMutability": "view",
      "type": "function"
    },
    {
      "inputs": [],
      "name": "getCurrentAuctionId",
      "outputs": [
        {
          "internalType": "uint256",
          "name": "",
          "type": "uint256"
        }
      ],
      "stateMutability": "view",
      "type": "function"
    },
    {
      "inputs": [],
      "name": "getCurrentToken",
      "outputs": [
        {
          "internalType": "uint256",
          "name": "",
          "type": "uint256"
        }
      ],
      "stateMutability": "view",
      "type": "function"
    },
    {
      "inputs": [],
      "name": "getListPrice",
      "outputs": [
        {
          "internalType": "uint256",
          "name": "",
          "type": "uint256"
        }
      ],
      "stateMutability": "view",
      "type": "function"
    },
    {
      "inputs": [
        {
          "internalType": "uint256",
          "name": "tokenId",
          "type": "uint256"
        }
      ],
      "name": "getListedTokenForId",
      "outputs": [
        {
          "components": [
            {
              "internalType": "uint256",
              "name": "tokenId",
              "type": "uint256"
            },
            {
              "internalType": "address payable",
              "name": "owner",
              "type": "address"
            },
            {
              "internalType": "address payable",
              "name": "seller",
              "type": "address"
            },
            {
              "internalType": "uint256",
              "name": "price",
              "type": "uint256"
            },
            {
              "internalType": "bool",
              "name": "currentlyListed",
              "type": "bool"
            },
            {
              "internalType": "string",
              "name": "tokenURI",
              "type": "string"
            }
          ],
          "internalType": "struct NFTMarketplace.ListedToken",
          "name": "",
          "type": "tuple"
        }
      ],
      "stateMutability": "view",
      "type": "function"
    },
    {
      "inputs": [
        {
          "internalType": "address",
          "name": "user",
          "type": "address"
        }
      ],
      "name": "getMyAuctions",
      "outputs": [
        {
          "components": [
            {
              "internalType": "uint256",
              "name": "auctionId",
              "type": "uint256"
            },
            {
              "internalType": "address",
              "name": "seller",
              "type": "address"
            },
            {
              "internalType": "uint256",
              "name": "tokenId",
              "type": "uint256"
            },
            {
              "internalType": "uint128",
              "name": "minBid",
              "type": "uint128"
            },
            {
              "internalType": "uint128",
              "name": "highestBid",
              "type": "uint128"
            },
            {
              "internalType": "address",
              "name": "highestBidder",
              "type": "address"
            },
            {
              "internalType": "uint128",
              "name": "startTime",
              "type": "uint128"
            },
            {
              "internalType": "uint128",
              "name": "duration",
              "type": "uint128"
            },
            {
              "internalType": "bool",
              "name": "settled",
              "type": "bool"
            },
            {
              "internalType": "string",
              "name": "auctionURI",
              "type": "string"
            }
          ],
          "internalType": "struct NFTMarketplace.AuctionItem[]",
          "name": "",
          "type": "tuple[]"
        }
      ],
      "stateMutability": "view",
      "type": "function"
    },
    {
      "inputs": [],
      "name": "getMyNFTs",
      "outputs": [
        {
          "components": [
            {
              "internalType": "uint256",
              "name": "tokenId",
              "type": "uint256"
            },
            {
              "internalType": "address payable",
              "name": "owner",
              "type": "address"
            },
            {
              "internalType": "address payable",
              "name": "seller",
              "type": "address"
            },
            {
              "internalType": "uint256",
              "name": "price",
              "type": "uint256"
            },
            {
              "internalType": "bool",
              "name": "currentlyListed",
              "type": "bool"
            },
            {
              "internalType": "string",
              "name": "tokenURI",
              "type": "string"
            }
          ],
          "internalType": "struct NFTMarketplace.ListedToken[]",
          "name": "",
          "type": "tuple[]"
        }
      ],
      "stateMutability": "view",
      "type": "function"
    },
    {
      "inputs": [],
      "name": "getNonActiveAuctions",
      "outputs": [
        {
          "components": [
            {
              "internalType": "uint256",
              "name": "auctionId",
              "type": "uint256"
            },
            {
              "internalType": "address",
              "name": "seller",
              "type": "address"
            },
            {
              "internalType": "uint256",
              "name": "tokenId",
              "type": "uint256"
            },
            {
              "internalType": "uint128",
              "name": "minBid",
              "type": "uint128"
            },
            {
              "internalType": "uint128",
              "name": "highestBid",
              "type": "uint128"
            },
            {
              "internalType": "address",
              "name": "highestBidder",
              "type": "address"
            },
            {
              "internalType": "uint128",
              "name": "startTime",
              "type": "uint128"
            },
            {
              "internalType": "uint128",
              "name": "duration",
              "type": "uint128"
            },
            {
              "internalType": "bool",
              "name": "settled",
              "type": "bool"
            },
            {
              "internalType": "string",
              "name": "auctionURI",
              "type": "string"
            }
          ],
          "internalType": "struct NFTMarketplace.AuctionItem[]",
          "name": "",
          "type": "tuple[]"
        }
      ],
      "stateMutability": "view",
      "type": "function"
    },
    {
      "inputs": [
        {
          "internalType": "address",
          "name": "owner",
          "type": "address"
        },
        {
          "internalType": "address",
          "name": "operator",
          "type": "address"
        }
      ],
      "name": "isApprovedForAll",
      "outputs": [
        {
          "internalType": "bool",
          "name": "",
          "type": "bool"
        }
      ],
      "stateMutability": "view",
      "type": "function"
    },
    {
      "inputs": [],
      "name": "listPrice",
      "outputs": [
        {
          "internalType": "uint256",
          "name": "",
          "type": "uint256"
        }
      ],
      "stateMutability": "view",
      "type": "function"
    },
    {
      "inputs": [
        {
          "internalType": "string",
          "name": "tokenURI",
          "type": "string"
        },
        {
          "internalType": "uint256",
          "name": "price",
          "type": "uint256"
        }
      ],
      "name": "mintNFT",
      "outputs": [
        {
          "internalType": "uint256",
          "name": "",
          "type": "uint256"
        }
      ],
      "stateMutability": "payable",
      "type": "function"
    },
    {
      "inputs": [],
      "name": "name",
      "outputs": [
        {
          "internalType": "string",
          "name": "",
          "type": "string"
        }
      ],
      "stateMutability": "view",
      "type": "function"
    },
    {
      "inputs": [],
      "name": "owner",
      "outputs": [
        {
          "internalType": "address payable",
          "name": "",
          "type": "address"
        }
      ],
      "stateMutability": "view",
      "type": "function"
    },
    {
      "inputs": [
        {
          "internalType": "uint256",
          "name": "tokenId",
          "type": "uint256"
        }
      ],
      "name": "ownerOf",
      "outputs": [
        {
          "internalType": "address",
          "name": "",
          "type": "address"
        }
      ],
      "stateMutability": "view",
      "type": "function"
    },
    {
      "inputs": [
        {
          "internalType": "uint256",
          "name": "auctionId",
          "type": "uint256"
        },
        {
          "internalType": "string",
          "name": "name",
          "type": "string"
        }
      ],
      "name": "placeBid",
      "outputs": [],
      "stateMutability": "payable",
      "type": "function"
    },
    {
      "inputs": [
        {
          "internalType": "uint256",
          "name": "tokenId",
          "type": "uint256"
        },
        {
          "internalType": "uint256",
          "name": "price",
          "type": "uint256"
        }
      ],
      "name": "relistNFT",
      "outputs": [],
      "stateMutability": "nonpayable",
      "type": "function"
    },
    {
      "inputs": [
        {
          "internalType": "address",
          "name": "from",
          "type": "address"
        },
        {
          "internalType": "address",
          "name": "to",
          "type": "address"
        },
        {
          "internalType": "uint256",
          "name": "tokenId",
          "type": "uint256"
        }
      ],
      "name": "safeTransferFrom",
      "outputs": [],
      "stateMutability": "nonpayable",
      "type": "function"
    },
    {
      "inputs": [
        {
          "internalType": "address",
          "name": "from",
          "type": "address"
        },
        {
          "internalType": "address",
          "name": "to",
          "type": "address"
        },
        {
          "internalType": "uint256",
          "name": "tokenId",
          "type": "uint256"
        },
        {
          "internalType": "bytes",
          "name": "data",
          "type": "bytes"
        }
      ],
      "name": "safeTransferFrom",
      "outputs": [],
      "stateMutability": "nonpayable",
      "type": "function"
    },
    {
      "inputs": [
        {
          "internalType": "address",
          "name": "operator",
          "type": "address"
        },
        {
          "internalType": "bool",
          "name": "approved",
          "type": "bool"
        }
      ],
      "name": "setApprovalForAll",
      "outputs": [],
      "stateMutability": "nonpayable",
      "type": "function"
    },
    {
      "inputs": [
        {
          "internalType": "uint256",
          "name": "auctionId",
          "type": "uint256"
        }
      ],
      "name": "settleAuction",
      "outputs": [],
      "stateMutability": "nonpayable",
      "type": "function"
    },
    {
      "inputs": [
        {
          "internalType": "bytes4",
          "name": "interfaceId",
          "type": "bytes4"
        }
      ],
      "name": "supportsInterface",
      "outputs": [
        {
          "internalType": "bool",
          "name": "",
          "type": "bool"
        }
      ],
      "stateMutability": "view",
      "type": "function"
    },
    {
      "inputs": [],
      "name": "symbol",
      "outputs": [
        {
          "internalType": "string",
          "name": "",
          "type": "string"
        }
      ],
      "stateMutability": "view",
      "type": "function"
    },
    {
      "inputs": [
        {
          "internalType": "uint256",
          "name": "tokenId",
          "type": "uint256"
        }
      ],
      "name": "tokenURI",
      "outputs": [
        {
          "internalType": "string",
          "name": "",
          "type": "string"
        }
      ],
      "stateMutability": "view",
      "type": "function"
    },
    {
      "inputs": [
        {
          "internalType": "address",
          "name": "from",
          "type": "address"
        },
        {
          "internalType": "address",
          "name": "to",
          "type": "address"
        },
        {
          "internalType": "uint256",
          "name": "tokenId",
          "type": "uint256"
        }
      ],
      "name": "transferFrom",
      "outputs": [],
      "stateMutability": "nonpayable",
      "type": "function"
    },
    {
      "inputs": [
        {
          "internalType": "uint256",
          "name": "_listPrice",
          "type": "uint256"
        }
      ],
      "name": "updateListPrice",
      "outputs": [],
      "stateMutability": "payable",
      "type": "function"
    }
  ],
  "bytecode": "0x6080604052662386f26fc10000600b55662386f26fc1000060105534801561002657600080fd5b506040518060400160405280600e81526020016d4e46544d61726b6574706c61636560901b815250604051806040016040528060048152602001634e46544d60e01b815250816000908161007a9190610145565b5060016100878282610145565b5050600160075550600a80546001600160a01b03191633179055610203565b634e487b7160e01b600052604160045260246000fd5b600181811c908216806100d057607f821691505b6020821081036100f057634e487b7160e01b600052602260045260246000fd5b50919050565b601f82111561014057806000526020600020601f840160051c8101602085101561011d5750805b601f840160051c820191505b8181101561013d5760008155600101610129565b50505b505050565b81516001600160401b0381111561015e5761015e6100a6565b6101728161016c84546100bc565b846100f6565b6020601f8211600181146101a6576000831561018e5750848201515b600019600385901b1c1916600184901b17845561013d565b600084815260208120601f198516915b828110156101d657878501518255602094850194600190920191016101b6565b50848210156101f45786840151600019600387901b60f8161c191681555b50505050600190811b01905550565b6141c3806102126000396000f3fe60806040526004361061020f5760003560e01c806368f1945f11610118578063b1fb9472116100a0578063c87b56dd1161006f578063c87b56dd14610618578063cf44b5d514610638578063e0391b091461064d578063e985e9c514610662578063ef2d1746146106ab57600080fd5b8063b1fb9472146105b2578063b88d4fde146105c5578063bcf05bf7146105e5578063c322579c1461060557600080fd5b80638e264590116100e75780638e2645901461050357806395d89b4114610530578063a22cb46514610545578063a2e4e49414610565578063a528ff831461058557600080fd5b806368f1945f146104985780636eb588d9146104ad57806370a08231146104c35780638da5cb5b146104e357600080fd5b806337aab0631161019b578063571a26a01161016a578063571a26a0146103de5780635afa3a72146104145780635f93de4914610427578063629cb2e4146104565780636352211e1461047857600080fd5b806337aab063146103605780633f1ffcec1461037357806342842e0e146103ab57806351ed8288146103cb57600080fd5b806314525b6b116101e257806314525b6b146102c5578063157db316146102e957806323b872dd146102fe5780632ade28a51461031e5780632e9936111461034057600080fd5b806301ffc9a71461021457806306fdde0314610249578063081812fc1461026b578063095ea7b3146102a3575b600080fd5b34801561022057600080fd5b5061023461022f3660046135d6565b6106c0565b60405190151581526020015b60405180910390f35b34801561025557600080fd5b5061025e6106eb565b6040516102409190613643565b34801561027757600080fd5b5061028b610286366004613656565b61077d565b6040516001600160a01b039091168152602001610240565b3480156102af57600080fd5b506102c36102be36600461368b565b6107a4565b005b3480156102d157600080fd5b506102db60105481565b604051908152602001610240565b3480156102f557600080fd5b506102db6108be565b34801561030a57600080fd5b506102c36103193660046136b5565b6108ce565b34801561032a57600080fd5b506103336108ff565b60405161024091906136f2565b34801561034c57600080fd5b506102c361035b366004613656565b610b54565b6102c361036e3660046138e2565b610df3565b34801561037f57600080fd5b506102db61038e366004613928565b600f60209081526000928352604080842090915290825290205481565b3480156103b757600080fd5b506102c36103c63660046136b5565b61106c565b6102c36103d9366004613656565b611087565b3480156103ea57600080fd5b506103fe6103f9366004613656565b611228565b6040516102409a99989796959493929190613954565b6102db6104223660046139d0565b611321565b34801561043357600080fd5b50610447610442366004613a14565b6115ac565b60405161024093929190613a36565b34801561046257600080fd5b5061046b61168c565b6040516102409190613acb565b34801561048457600080fd5b5061028b610493366004613656565b611937565b3480156104a457600080fd5b50600b546102db565b3480156104b957600080fd5b506102db600b5481565b3480156104cf57600080fd5b506102db6104de366004613b24565b611997565b3480156104ef57600080fd5b50600a5461028b906001600160a01b031681565b34801561050f57600080fd5b5061052361051e366004613656565b611a1d565b6040516102409190613b3f565b34801561053c57600080fd5b5061025e611b23565b34801561055157600080fd5b506102c3610560366004613b52565b611b32565b34801561057157600080fd5b506102c3610580366004613a14565b611b3d565b34801561059157600080fd5b506105a56105a0366004613656565b611c9f565b6040516102409190613b8e565b6102c36105c0366004613c31565b611dcc565b3480156105d157600080fd5b506102c36105e0366004613c98565b6122f9565b3480156105f157600080fd5b50610333610600366004613b24565b612331565b6102c3610613366004613656565b6125bf565b34801561062457600080fd5b5061025e610633366004613656565b61262a565b34801561064457600080fd5b5061033361273a565b34801561065957600080fd5b5061046b612983565b34801561066e57600080fd5b5061023461067d366004613d07565b6001600160a01b03918216600090815260056020908152604080832093909416825291909152205460ff1690565b3480156106b757600080fd5b506102db612b3a565b60006001600160e01b03198216632483248360e11b14806106e557506106e582612b45565b92915050565b6060600080546106fa90613d31565b80601f016020809104026020016040519081016040528092919081815260200182805461072690613d31565b80156107735780601f1061074857610100808354040283529160200191610773565b820191906000526020600020905b81548152906001019060200180831161075657829003601f168201915b5050505050905090565b600061078882612b95565b506000908152600460205260409020546001600160a01b031690565b60006107af82611937565b9050806001600160a01b0316836001600160a01b0316036108215760405162461bcd60e51b815260206004820152602160248201527f4552433732313a20617070726f76616c20746f2063757272656e74206f776e656044820152603960f91b60648201526084015b60405180910390fd5b336001600160a01b038216148061083d575061083d813361067d565b6108af5760405162461bcd60e51b815260206004820152603d60248201527f4552433732313a20617070726f76652063616c6c6572206973206e6f7420746f60448201527f6b656e206f776e6572206f7220617070726f76656420666f7220616c6c0000006064820152608401610818565b6108b98383612bf4565b505050565b60006108c9600d5490565b905090565b6108d83382612c62565b6108f45760405162461bcd60e51b815260040161081890613d6b565b6108b9838383612ce0565b6060600061090c600d5490565b90506000805b82811015610961576000600e8161092a846001613dce565b81526020810191909152604001600020600681015490915060ff1615610958578261095481613de1565b9350505b50600101610912565b506000816001600160401b0381111561097c5761097c613834565b6040519080825280602002602001820160405280156109b557816020015b6109a2613520565b81526020019060019003908161099a5790505b5090506000805b84811015610b4a576000600e816109d4846001613dce565b81526020810191909152604001600020600681015490915060ff1615610b415760408051610140810182528254815260018301546001600160a01b03908116602083015260028401549282019290925260038301546001600160801b038082166060840152600160801b9182900481166080840152600485015490931660a0830152600584015480841660c08401520490911660e0820152600682015460ff1615156101008201526007820180548391610120840191610a9390613d31565b80601f0160208091040260200160405190810160405280929190818152602001828054610abf90613d31565b8015610b0c5780601f10610ae157610100808354040283529160200191610b0c565b820191906000526020600020905b815481529060010190602001808311610aef57829003601f168201915b505050505081525050848481518110610b2757610b27613dfa565b60200260200101819052508280610b3d90613de1565b9350505b506001016109bc565b5090949350505050565b610b5c612e44565b6000818152600e602052604090206005810154610b8b906001600160801b03600160801b820481169116613e10565b6001600160801b0316421015610bd75760405162461bcd60e51b8152602060048201526011602482015270105d58dd1a5bdb881b9bdd08195b991959607a1b6044820152606401610818565b600681015460ff1615610c1e5760405162461bcd60e51b815260206004820152600f60248201526e105b1c9958591e481cd95d1d1b1959608a1b6044820152606401610818565b60068101805460ff1916600117905560048101546001600160a01b031615610d0b5760048101546002820154610c619130916001600160a01b0390911690612ce0565b600181015460038201546040516001600160a01b03909216916001600160801b03600160801b9092049190911680156108fc02916000818181858888f19350505050158015610cb4573d6000803e3d6000fd5b50600481018054600280840180546000908152600c602052604080822060010180546001600160a01b03199081166001600160a01b0397881617909155955492548252902090910180549093169116179055610d82565b60018101546002820154610d2c9130916001600160a01b0390911690612ce0565b60018082018054600280850180546000908152600c602052604080822090960180546001600160a01b03199081166001600160a01b03968716179091559454915481529490942001805490921692169190911790555b600281015460048201546003830154604080516001600160a01b039093168352600160801b9091046001600160801b0316602083015284917f446087716b3a41f4a80627ad75ee7f352afc92d2aef521502620231ba64c0e1b910160405180910390a350610df06001600755565b50565b610dfb612e44565b6000828152600e602052604090206005810154610e2a906001600160801b03600160801b820481169116613e10565b6001600160801b03164210610e715760405162461bcd60e51b815260206004820152600d60248201526c105d58dd1a5bdb88195b991959609a1b6044820152606401610818565b6003810154600160801b90046001600160801b031634118015610ea1575060038101546001600160801b03163410155b610edb5760405162461bcd60e51b815260206004820152600b60248201526a42696420746f6f206c6f7760a81b6044820152606401610818565b60048101546001600160a01b031615610f4357600481015460038201546040516001600160a01b03909216916001600160801b03600160801b9092049190911680156108fc02916000818181858888f19350505050158015610f41573d6000803e3d6000fd5b505b600381810180546001600160801b03908116600160801b3480841691820292909217909355600485018054336001600160a01b031991821681179092556000898152600f602090815260408083208584528252808320959095558a82526011815284822085516060810187529485528482019788529484018a81528554600181810188559684529190922084519190980290970180549092166001600160a01b03909716969096178155935191840180546fffffffffffffffffffffffffffffffff19169290931691909117909155915160028201906110239082613e7d565b505060405134815233915084907f0e54eff26401bf69b81b26f60bd85ef47f5d85275c1d268d84f68d6897431c479060200160405180910390a3506110686001600755565b5050565b6108b9838383604051806020016040528060008152506122f9565b61108f612e44565b6000818152600c6020526040902060038101546002909101546001600160a01b0316348214611128576040805162461bcd60e51b81526020600482015260248101919091527f506c65617365207375626d6974207468652061736b696e67207072696365206960448201527f6e206f7264657220746f20636f6d706c657465207468652070757263686173656064820152608401610818565b6000838152600c6020526040902060048101805460ff191690556001810180546001600160a01b03199081163390811790925560029092018054909216179055611176600980546001019055565b611181303385612ce0565b61118b30846107a4565b6040516001600160a01b038216903480156108fc02916000818181858888f193505050501580156111c0573d6000803e3d6000fd5b506000838152600c6020908152604091829020600401548251858152339281019290925260ff16151581830152905184917fa6fcef706a46784e1a391af3cb4d93b8606d16168685050658b2690f82a4f59f919081900360600190a25050610df06001600755565b600e602052600090815260409020805460018201546002830154600384015460048501546005860154600687015460078801805497986001600160a01b039788169896976001600160801b0380881698600160801b9889900482169897909216968682169604169360ff16929061129e90613d31565b80601f01602080910402602001604051908101604052809291908181526020018280546112ca90613d31565b80156113175780601f106112ec57610100808354040283529160200191611317565b820191906000526020600020905b8154815290600101906020018083116112fa57829003601f168201915b505050505090508a565b6000600b5434146113805760405162461bcd60e51b815260206004820152602360248201527f486f706566756c6c792073656e64696e672074686520636f727265637420707260448201526269636560e81b6064820152608401610818565b600082116113db5760405162461bcd60e51b815260206004820152602260248201527f4d616b652073757265207468652070726963652069736e2774206e6567617469604482015261766560f01b6064820152608401610818565b600a546040516000916001600160a01b03169034908381818185875af1925050503d8060008114611428576040519150601f19603f3d011682016040523d82523d6000602084013e61142d565b606091505b505090508061147e5760405162461bcd60e51b815260206004820181905260248201527f4661696c656420746f2073656e64206d696e742066656520746f206f776e65726044820152606401610818565b61148c600880546001019055565b600061149760085490565b90506114a33382612e9d565b6114ad8186612eb7565b6040805160c081018252828152306020808301918252338385019081526060840189815260016080860181815260a087018d815260008a8152600c9096529790942086518155945190850180546001600160a01b03199081166001600160a01b039384161790915592516002860180549094169116179091555160038301555160048201805460ff1916911515919091179055915190919060058201906115549082613e7d565b50905050611563333083612ce0565b807fbe03728682d1fb99860367c3b95f7c28a74af28403c7805ebc7ae722543222cc30338760018a60405161159c959493929190613f3b565b60405180910390a2949350505050565b601160205281600052604060002081815481106115c857600080fd5b60009182526020909120600390910201805460018201546002830180546001600160a01b0390931695506001600160801b0390911693509061160990613d31565b80601f016020809104026020016040519081016040528092919081815260200182805461163590613d31565b80156116825780601f1061165757610100808354040283529160200191611682565b820191906000526020600020905b81548152906001019060200180831161166557829003601f168201915b5050505050905083565b6060600061169960085490565b905060008080805b848110156117275733600c60006116b9846001613dce565b81526020810191909152604001600020600101546001600160a01b0316148061170c575033600c60006116ed846001613dce565b81526020810191909152604001600020600201546001600160a01b0316145b1561171f5761171c600185613dce565b93505b6001016116a1565b506000836001600160401b0381111561174257611742613834565b60405190808252806020026020018201604052801561177b57816020015b611768613576565b8152602001906001900390816117605790505b50905060005b8581101561192d5733600c6000611799846001613dce565b81526020810191909152604001600020600101546001600160a01b031614806117ec575033600c60006117cd846001613dce565b81526020810191909152604001600020600201546001600160a01b0316145b15611925576117fc816001613dce565b6000818152600c6020908152604091829020825160c0810184528154815260018201546001600160a01b039081169382019390935260028201549092169282019290925260038201546060820152600482015460ff161515608082015260058201805493965091929091839160a08401919061187790613d31565b80601f01602080910402602001604051908101604052809291908181526020018280546118a390613d31565b80156118f05780601f106118c5576101008083540402835291602001916118f0565b820191906000526020600020905b8154815290600101906020018083116118d357829003601f168201915b50505050508152505083868151811061190b5761190b613dfa565b6020908102919091010152611921600186613dce565b9450505b600101611781565b5095945050505050565b6000818152600260205260408120546001600160a01b0316806106e55760405162461bcd60e51b8152602060048201526018602482015277115490cdcc8c4e881a5b9d985b1a59081d1bdad95b88125160421b6044820152606401610818565b60006001600160a01b038216611a015760405162461bcd60e51b815260206004820152602960248201527f4552433732313a2061646472657373207a65726f206973206e6f7420612076616044820152683634b21037bbb732b960b91b6064820152608401610818565b506001600160a01b031660009081526003602052604090205490565b611a25613576565b6000828152600c6020908152604091829020825160c0810184528154815260018201546001600160a01b039081169382019390935260028201549092169282019290925260038201546060820152600482015460ff161515608082015260058201805491929160a084019190611a9a90613d31565b80601f0160208091040260200160405190810160405280929190818152602001828054611ac690613d31565b8015611b135780601f10611ae857610100808354040283529160200191611b13565b820191906000526020600020905b815481529060010190602001808311611af657829003601f168201915b5050505050815250509050919050565b6060600180546106fa90613d31565b611068338383612f82565b33611b4783611937565b6001600160a01b031614611b9d5760405162461bcd60e51b815260206004820152601d60248201527f4f6e6c7920746865204e4654206f776e65722063616e2072656c6973740000006044820152606401610818565b60008111611bed5760405162461bcd60e51b815260206004820152601f60248201527f5072696365206d7573742062652067726561746572207468616e207a65726f006044820152606401610818565b6000828152600c60205260409020600481018054600160ff19909116811790915560038201839055600282018054336001600160a01b0319918216811790925591909201805430921682179055611c45919084612ce0565b817fbe03728682d1fb99860367c3b95f7c28a74af28403c7805ebc7ae722543222cc3033846001600c6000898152602001908152602001600020600501604051611c93959493929190614004565b60405180910390a25050565b606060116000838152602001908152602001600020805480602002602001604051908101604052809291908181526020016000905b82821015611dc1576000848152602090819020604080516060810182526003860290920180546001600160a01b0316835260018101546001600160801b03169383019390935260028301805492939291840191611d3090613d31565b80601f0160208091040260200160405190810160405280929190818152602001828054611d5c90613d31565b8015611da95780601f10611d7e57610100808354040283529160200191611da9565b820191906000526020600020905b815481529060010190602001808311611d8c57829003601f168201915b50505050508152505081526020019060010190611cd4565b505050509050919050565b6010543414611e2c5760405162461bcd60e51b815260206004820152602660248201527f4d7573742070617920302e3031204554482066656520746f20737461727420616044820152653ab1ba34b7b760d11b6064820152608401610818565b603c826001600160801b03161015611e995760405162461bcd60e51b815260206004820152602a60248201527f41756374696f6e206475726174696f6e206d757374206265206174206c656173604482015269742031206d696e75746560b01b6064820152608401610818565b6000848152600c60205260409020600201546001600160a01b0316331480611eda57506000848152600c60205260409020600101546001600160a01b031633145b611f165760405162461bcd60e51b815260206004820152600d60248201526c2737ba103a34329037bbb732b960991b6044820152606401610818565b6000848152600260205260409020546001600160a01b0316611f715760405162461bcd60e51b8152602060048201526014602482015273151bdad95b88191bd95cc81b9bdd08195e1a5cdd60621b6044820152606401610818565b6000848152600c602052604090206004015460ff1615611fd35760405162461bcd60e51b815260206004820152601e60248201527f4e465420697320616c7265616479206c697374656420666f722073616c6500006044820152606401610818565b600a546040516000916001600160a01b03169034908381818185875af1925050503d8060008114612020576040519150601f19603f3d011682016040523d82523d6000602084013e612025565b606091505b50509050806120825760405162461bcd60e51b815260206004820152602360248201527f4661696c656420746f2073656e642061756374696f6e2066656520746f206f776044820152623732b960e91b6064820152608401610818565b612090600d80546001019055565b600061209b600d5490565b9050604051806101400160405280828152602001336001600160a01b03168152602001878152602001866001600160801b0316815260200160006001600160801b0316815260200160006001600160a01b03168152602001426001600160801b03168152602001856001600160801b0316815260200160001515815260200184815250600e60008381526020019081526020016000206000820151816000015560208201518160010160006101000a8154816001600160a01b0302191690836001600160a01b031602179055506040820151816002015560608201518160030160006101000a8154816001600160801b0302191690836001600160801b0316021790555060808201518160030160106101000a8154816001600160801b0302191690836001600160801b0316021790555060a08201518160040160006101000a8154816001600160a01b0302191690836001600160a01b0316021790555060c08201518160050160006101000a8154816001600160801b0302191690836001600160801b0316021790555060e08201518160050160106101000a8154816001600160801b0302191690836001600160801b031602179055506101008201518160060160006101000a81548160ff02191690831515021790555061012082015181600701908161228a9190613e7d565b503391508290507f3654a00f91dd0ac6ecaadbc1445136cdbd8135727403afe6a6ef06cc482d256f88886122c76001600160801b038a1642613dce565b60008c8152600c60205260409081902090516122e9949392916005019061403f565b60405180910390a3505050505050565b6123033383612c62565b61231f5760405162461bcd60e51b815260040161081890613d6b565b61232b84848484613050565b50505050565b6060600061233e600d5490565b90506000805b8281101561239d576001600160a01b038516600e6000612365846001613dce565b81526020810191909152604001600020600101546001600160a01b031603612395578161239181613de1565b9250505b600101612344565b506000816001600160401b038111156123b8576123b8613834565b6040519080825280602002602001820160405280156123f157816020015b6123de613520565b8152602001906001900390816123d65790505b5090506000805b848110156125b4576001600160a01b038716600e6000612419846001613dce565b81526020810191909152604001600020600101546001600160a01b0316036125ac57600e600061244a836001613dce565b815260208082019290925260409081016000208151610140810183528154815260018201546001600160a01b039081169482019490945260028201549281019290925260038101546001600160801b038082166060850152600160801b9182900481166080850152600483015490941660a0840152600582015480851660c08501520490921660e0820152600682015460ff161515610100820152600782018054919291610120840191906124fe90613d31565b80601f016020809104026020016040519081016040528092919081815260200182805461252a90613d31565b80156125775780601f1061254c57610100808354040283529160200191612577565b820191906000526020600020905b81548152906001019060200180831161255a57829003601f168201915b50505050508152505083838151811061259257612592613dfa565b602002602001018190525081806125a890613de1565b9250505b6001016123f8565b509095945050505050565b600a546001600160a01b031633146126255760405162461bcd60e51b815260206004820152602360248201527f4f6e6c79206f776e65722063616e20757064617465206c697374696e6720707260448201526269636560e81b6064820152608401610818565b600b55565b606061263582612b95565b6000828152600660205260408120805461264e90613d31565b80601f016020809104026020016040519081016040528092919081815260200182805461267a90613d31565b80156126c75780601f1061269c576101008083540402835291602001916126c7565b820191906000526020600020905b8154815290600101906020018083116126aa57829003601f168201915b5050505050905060006126e560408051602081019091526000815290565b905080516000036126f7575092915050565b815115612729578082604051602001612711929190614077565b60405160208183030381529060405292505050919050565b61273284613083565b949350505050565b60606000612747600d5490565b90506000805b8281101561279b576000600e81612765846001613dce565b81526020810191909152604001600020600681015490915060ff16612792578261278e81613de1565b9350505b5060010161274d565b506000816001600160401b038111156127b6576127b6613834565b6040519080825280602002602001820160405280156127ef57816020015b6127dc613520565b8152602001906001900390816127d45790505b5090506000805b84811015610b4a576000600e8161280e846001613dce565b81526020810191909152604001600020600681015490915060ff1661297a5760408051610140810182528254815260018301546001600160a01b03908116602083015260028401549282019290925260038301546001600160801b038082166060840152600160801b9182900481166080840152600485015490931660a0830152600584015480841660c08401520490911660e0820152600682015460ff16151561010082015260078201805483916101208401916128cc90613d31565b80601f01602080910402602001604051908101604052809291908181526020018280546128f890613d31565b80156129455780601f1061291a57610100808354040283529160200191612945565b820191906000526020600020905b81548152906001019060200180831161292857829003601f168201915b50505050508152505084848151811061296057612960613dfa565b6020026020010181905250828061297690613de1565b9350505b506001016127f6565b6060600061299060085490565b90506000816001600160401b038111156129ac576129ac613834565b6040519080825280602002602001820160405280156129e557816020015b6129d2613576565b8152602001906001900390816129ca5790505b509050600080805b84811015612b3057612a00816001613dce565b6000818152600c6020908152604091829020825160c0810184528154815260018201546001600160a01b039081169382019390935260028201549092169282019290925260038201546060820152600482015460ff161515608082015260058201805493955091929091839160a084019190612a7b90613d31565b80601f0160208091040260200160405190810160405280929190818152602001828054612aa790613d31565b8015612af45780601f10612ac957610100808354040283529160200191612af4565b820191906000526020600020905b815481529060010190602001808311612ad757829003601f168201915b505050505081525050858581518110612b0f57612b0f613dfa565b6020908102919091010152612b25600185613dce565b9350506001016129ed565b5091949350505050565b60006108c960085490565b60006001600160e01b031982166380ac58cd60e01b1480612b7657506001600160e01b03198216635b5e139f60e01b145b806106e557506301ffc9a760e01b6001600160e01b03198316146106e5565b6000818152600260205260409020546001600160a01b0316610df05760405162461bcd60e51b8152602060048201526018602482015277115490cdcc8c4e881a5b9d985b1a59081d1bdad95b88125160421b6044820152606401610818565b600081815260046020526040902080546001600160a01b0319166001600160a01b0384169081179091558190612c2982611937565b6001600160a01b03167f8c5be1e5ebec7d5bd14f71427d1e84f3dd0314c0f7b2291e5b200ac8c7c3b92560405160405180910390a45050565b600080612c6e83611937565b9050806001600160a01b0316846001600160a01b03161480612cb557506001600160a01b0380821660009081526005602090815260408083209388168352929052205460ff165b806127325750836001600160a01b0316612cce8461077d565b6001600160a01b031614949350505050565b826001600160a01b0316612cf382611937565b6001600160a01b031614612d195760405162461bcd60e51b8152600401610818906140a6565b6001600160a01b038216612d7b5760405162461bcd60e51b8152602060048201526024808201527f4552433732313a207472616e7366657220746f20746865207a65726f206164646044820152637265737360e01b6064820152608401610818565b826001600160a01b0316612d8e82611937565b6001600160a01b031614612db45760405162461bcd60e51b8152600401610818906140a6565b600081815260046020908152604080832080546001600160a01b03199081169091556001600160a01b0387811680865260038552838620805460001901905590871680865283862080546001019055868652600290945282852080549092168417909155905184937fddf252ad1be2c89b69c2b068fc378daa952ba7f163c4a11628f55a4df523b3ef91a4505050565b600260075403612e965760405162461bcd60e51b815260206004820152601f60248201527f5265656e7472616e637947756172643a207265656e7472616e742063616c6c006044820152606401610818565b6002600755565b6110688282604051806020016040528060008152506130f7565b6000828152600260205260409020546001600160a01b0316612f325760405162461bcd60e51b815260206004820152602e60248201527f45524337323155524953746f726167653a2055524920736574206f66206e6f6e60448201526d32bc34b9ba32b73a103a37b5b2b760911b6064820152608401610818565b6000828152600660205260409020612f4a8282613e7d565b506040518281527ff8e1a15aba9398e019f0b49df1a4fde98ee17ae345cb5f6b5e2c27f5033e8ce79060200160405180910390a15050565b816001600160a01b0316836001600160a01b031603612fe35760405162461bcd60e51b815260206004820152601960248201527f4552433732313a20617070726f766520746f2063616c6c6572000000000000006044820152606401610818565b6001600160a01b03838116600081815260056020908152604080832094871680845294825291829020805460ff191686151590811790915591519182527f17307eab39ab6107e8899845ad3d59bd9653f200f220920489ca2b5937696c31910160405180910390a3505050565b61305b848484612ce0565b6130678484848461312a565b61232b5760405162461bcd60e51b8152600401610818906140eb565b606061308e82612b95565b60006130a560408051602081019091526000815290565b905060008151116130c557604051806020016040528060008152506130f0565b806130cf8461322b565b6040516020016130e0929190614077565b6040516020818303038152906040525b9392505050565b61310183836132bd565b61310e600084848461312a565b6108b95760405162461bcd60e51b8152600401610818906140eb565b60006001600160a01b0384163b1561322057604051630a85bd0160e11b81526001600160a01b0385169063150b7a029061316e90339089908890889060040161413d565b6020604051808303816000875af19250505080156131a9575060408051601f3d908101601f191682019092526131a691810190614170565b60015b613206573d8080156131d7576040519150601f19603f3d011682016040523d82523d6000602084013e6131dc565b606091505b5080516000036131fe5760405162461bcd60e51b8152600401610818906140eb565b805181602001fd5b6001600160e01b031916630a85bd0160e11b149050612732565b506001949350505050565b6060600061323883613448565b60010190506000816001600160401b0381111561325757613257613834565b6040519080825280601f01601f191660200182016040528015613281576020820181803683370190505b5090508181016020015b600019016f181899199a1a9b1b9c1cb0b131b232b360811b600a86061a8153600a850494508461328b57509392505050565b6001600160a01b0382166133135760405162461bcd60e51b815260206004820181905260248201527f4552433732313a206d696e7420746f20746865207a65726f20616464726573736044820152606401610818565b6000818152600260205260409020546001600160a01b0316156133785760405162461bcd60e51b815260206004820152601c60248201527f4552433732313a20746f6b656e20616c7265616479206d696e746564000000006044820152606401610818565b6000818152600260205260409020546001600160a01b0316156133dd5760405162461bcd60e51b815260206004820152601c60248201527f4552433732313a20746f6b656e20616c7265616479206d696e746564000000006044820152606401610818565b6001600160a01b038216600081815260036020908152604080832080546001019055848352600290915280822080546001600160a01b0319168417905551839291907fddf252ad1be2c89b69c2b068fc378daa952ba7f163c4a11628f55a4df523b3ef908290a45050565b60008072184f03e93ff9f4daa797ed6e38ed64bf6a1f0160401b83106134875772184f03e93ff9f4daa797ed6e38ed64bf6a1f0160401b830492506040015b6d04ee2d6d415b85acef810000000083106134b3576d04ee2d6d415b85acef8100000000830492506020015b662386f26fc1000083106134d157662386f26fc10000830492506010015b6305f5e10083106134e9576305f5e100830492506008015b61271083106134fd57612710830492506004015b6064831061350f576064830492506002015b600a83106106e55760010192915050565b604080516101408101825260008082526020820181905291810182905260608082018390526080820183905260a0820183905260c0820183905260e0820183905261010082019290925261012081019190915290565b6040518060c001604052806000815260200160006001600160a01b0316815260200160006001600160a01b0316815260200160008152602001600015158152602001606081525090565b6001600160e01b031981168114610df057600080fd5b6000602082840312156135e857600080fd5b81356130f0816135c0565b60005b8381101561360e5781810151838201526020016135f6565b50506000910152565b6000815180845261362f8160208601602086016135f3565b601f01601f19169290920160200192915050565b6020815260006130f06020830184613617565b60006020828403121561366857600080fd5b5035919050565b80356001600160a01b038116811461368657600080fd5b919050565b6000806040838503121561369e57600080fd5b6136a78361366f565b946020939093013593505050565b6000806000606084860312156136ca57600080fd5b6136d38461366f565b92506136e16020850161366f565b929592945050506040919091013590565b6000602082016020835280845180835260408501915060408160051b86010192506020860160005b8281101561382857603f19878603018452815180518652602081015161374b60208801826001600160a01b03169052565b5060408101516040870152606081015161377060608801826001600160801b03169052565b50608081015161378b60808801826001600160801b03169052565b5060a08101516137a660a08801826001600160a01b03169052565b5060c08101516137c160c08801826001600160801b03169052565b5060e08101516137dc60e08801826001600160801b03169052565b506101008101516137f261010088018215159052565b506101208101519050610140610120870152613812610140870182613617565b955050602093840193919091019060010161371a565b50929695505050505050565b634e487b7160e01b600052604160045260246000fd5b6000806001600160401b0384111561386457613864613834565b50604051601f19601f85018116603f011681018181106001600160401b038211171561389257613892613834565b6040528381529050808284018510156138aa57600080fd5b83836020830137600060208583010152509392505050565b600082601f8301126138d357600080fd5b6130f08383356020850161384a565b600080604083850312156138f557600080fd5b8235915060208301356001600160401b0381111561391257600080fd5b61391e858286016138c2565b9150509250929050565b6000806040838503121561393b57600080fd5b8235915061394b6020840161366f565b90509250929050565b8a81526001600160a01b038a81166020830152604082018a90526001600160801b038981166060840152888116608084015290871660a083015285811660c0830152841660e082015282151561010082015261014061012082018190526000906139c090830184613617565b9c9b505050505050505050505050565b600080604083850312156139e357600080fd5b82356001600160401b038111156139f957600080fd5b613a05858286016138c2565b95602094909401359450505050565b60008060408385031215613a2757600080fd5b50508035926020909101359150565b6001600160a01b03841681526001600160801b0383166020820152606060408201819052600090613a6990830184613617565b95945050505050565b8051825260018060a01b03602082015116602083015260018060a01b03604082015116604083015260608101516060830152608081015115156080830152600060a082015160c060a085015261273260c0850182613617565b6000602082016020835280845180835260408501915060408160051b86010192506020860160005b8281101561382857603f19878603018452613b0f858351613a72565b94506020938401939190910190600101613af3565b600060208284031215613b3657600080fd5b6130f08261366f565b6020815260006130f06020830184613a72565b60008060408385031215613b6557600080fd5b613b6e8361366f565b915060208301358015158114613b8357600080fd5b809150509250929050565b6000602082016020835280845180835260408501915060408160051b86010192506020860160005b8281101561382857868503603f19018452815180516001600160a01b031686526020808201516001600160801b031690870152604090810151606091870182905290613c0490870182613617565b9550506020938401939190910190600101613bb6565b80356001600160801b038116811461368657600080fd5b60008060008060808587031215613c4757600080fd5b84359350613c5760208601613c1a565b9250613c6560408601613c1a565b915060608501356001600160401b03811115613c8057600080fd5b613c8c878288016138c2565b91505092959194509250565b60008060008060808587031215613cae57600080fd5b613cb78561366f565b9350613cc56020860161366f565b92506040850135915060608501356001600160401b03811115613ce757600080fd5b8501601f81018713613cf857600080fd5b613c8c8782356020840161384a565b60008060408385031215613d1a57600080fd5b613d238361366f565b915061394b6020840161366f565b600181811c90821680613d4557607f821691505b602082108103613d6557634e487b7160e01b600052602260045260246000fd5b50919050565b6020808252602d908201527f4552433732313a2063616c6c6572206973206e6f7420746f6b656e206f776e6560408201526c1c881bdc88185c1c1c9bdd9959609a1b606082015260800190565b634e487b7160e01b600052601160045260246000fd5b808201808211156106e5576106e5613db8565b600060018201613df357613df3613db8565b5060010190565b634e487b7160e01b600052603260045260246000fd5b6001600160801b0381811683821601908111156106e5576106e5613db8565b601f8211156108b957806000526020600020601f840160051c81016020851015613e565750805b601f840160051c820191505b81811015613e765760008155600101613e62565b5050505050565b81516001600160401b03811115613e9657613e96613834565b613eaa81613ea48454613d31565b84613e2f565b6020601f821160018114613ede5760008315613ec65750848201515b600019600385901b1c1916600184901b178455613e76565b600084815260208120601f198516915b82811015613f0e5787850151825560209485019460019092019101613eee565b5084821015613f2c5786840151600019600387901b60f8161c191681555b50505050600190811b01905550565b6001600160a01b0386811682528516602082015260408101849052821515606082015260a060808201819052600090613f7690830184613617565b979650505050505050565b60008154613f8e81613d31565b808552600182168015613fa85760018114613fc457613ffb565b60ff1983166020870152602082151560051b8701019350613ffb565b84600052602060002060005b83811015613ff25781546020828a010152600182019150602081019050613fd0565b87016020019450505b50505092915050565b6001600160a01b0386811682528516602082015260408101849052821515606082015260a060808201819052600090613f7690830184613f81565b8481526001600160801b038416602082015282604082015260806060820152600061406d6080830184613f81565b9695505050505050565b600083516140898184602088016135f3565b83519083019061409d8183602088016135f3565b01949350505050565b60208082526025908201527f4552433732313a207472616e736665722066726f6d20696e636f72726563742060408201526437bbb732b960d91b606082015260800190565b60208082526032908201527f4552433732313a207472616e7366657220746f206e6f6e20455243373231526560408201527131b2b4bb32b91034b6b83632b6b2b73a32b960711b606082015260800190565b6001600160a01b038581168252841660208201526040810183905260806060820181905260009061406d90830184613617565b60006020828403121561418257600080fd5b81516130f0816135c056fea2646970667358221220ca227b1a7c26bb6e7ceef0bc263c00c91252ba7fa0be8f0efb4828191c757c1864736f6c634300081c0033",
  "linkReferences": {},
  "deployedLinkReferences": {}
}