{
  "_format": "hh-sol-artifact-1",
  "contractName": "NFTMarketplace",
  "sourceName": "contracts/NFTMarketplace.sol",
  "abi": [
    {
      "inputs": [],
      "stateMutability": "nonpayable",
      "type": "constructor"
    },
    {
      "anonymous": false,
      "inputs": [
        {
          "indexed": true,
          "internalType": "address",
          "name": "owner",
          "type": "address"
        },
        {
          "indexed": true,
          "internalType": "address",
          "name": "approved",
          "type": "address"
        },
        {
          "indexed": true,
          "internalType": "uint256",
          "name": "tokenId",
          "type": "uint256"
        }
      ],
      "name": "Approval",
      "type": "event"
    },
    {
      "anonymous": false,
      "inputs": [
        {
          "indexed": true,
          "internalType": "address",
          "name": "owner",
          "type": "address"
        },
        {
          "indexed": true,
          "internalType": "address",
          "name": "operator",
          "type": "address"
        },
        {
          "indexed": false,
          "internalType": "bool",
          "name": "approved",
          "type": "bool"
        }
      ],
      "name": "ApprovalForAll",
      "type": "event"
    },
    {
      "anonymous": false,
      "inputs": [
        {
          "indexed": true,
          "internalType": "uint256",
          "name": "auctionId",
          "type": "uint256"
        },
        {
          "indexed": true,
          "internalType": "address",
          "name": "seller",
          "type": "address"
        },
        {
          "indexed": false,
          "internalType": "uint256",
          "name": "tokenId",
          "type": "uint256"
        },
        {
          "indexed": false,
          "internalType": "uint256",
          "name": "minBid",
          "type": "uint256"
        },
        {
          "indexed": false,
          "internalType": "uint256",
          "name": "endTime",
          "type": "uint256"
        },
        {
          "indexed": false,
          "internalType": "string",
          "name": "auctionURI",
          "type": "string"
        }
      ],
      "name": "AuctionCreated",
      "type": "event"
    },
    {
      "anonymous": false,
      "inputs": [
        {
          "indexed": true,
          "internalType": "uint256",
          "name": "auctionId",
          "type": "uint256"
        },
        {
          "indexed": true,
          "internalType": "uint256",
          "name": "tokenId",
          "type": "uint256"
        },
        {
          "indexed": false,
          "internalType": "address",
          "name": "winner",
          "type": "address"
        },
        {
          "indexed": false,
          "internalType": "uint256",
          "name": "amount",
          "type": "uint256"
        }
      ],
      "name": "AuctionFinalized",
      "type": "event"
    },
    {
      "anonymous": false,
      "inputs": [
        {
          "indexed": false,
          "internalType": "uint256",
          "name": "_fromTokenId",
          "type": "uint256"
        },
        {
          "indexed": false,
          "internalType": "uint256",
          "name": "_toTokenId",
          "type": "uint256"
        }
      ],
      "name": "BatchMetadataUpdate",
      "type": "event"
    },
    {
      "anonymous": false,
      "inputs": [
        {
          "indexed": true,
          "internalType": "uint256",
          "name": "auctionId",
          "type": "uint256"
        },
        {
          "indexed": true,
          "internalType": "address",
          "name": "bidder",
          "type": "address"
        },
        {
          "indexed": false,
          "internalType": "uint256",
          "name": "amount",
          "type": "uint256"
        }
      ],
      "name": "BidPlaced",
      "type": "event"
    },
    {
      "anonymous": false,
      "inputs": [
        {
          "indexed": false,
          "internalType": "uint256",
          "name": "_tokenId",
          "type": "uint256"
        }
      ],
      "name": "MetadataUpdate",
      "type": "event"
    },
    {
      "anonymous": false,
      "inputs": [
        {
          "indexed": true,
          "internalType": "uint256",
          "name": "tokenId",
          "type": "uint256"
        },
        {
          "indexed": false,
          "internalType": "uint256",
          "name": "price",
          "type": "uint256"
        },
        {
          "indexed": false,
          "internalType": "address",
          "name": "owner",
          "type": "address"
        },
        {
          "indexed": false,
          "internalType": "bool",
          "name": "currentlyListed",
          "type": "bool"
        }
      ],
      "name": "TokenBoughtSuccess",
      "type": "event"
    },
    {
      "anonymous": false,
      "inputs": [
        {
          "indexed": true,
          "internalType": "uint256",
          "name": "tokenId",
          "type": "uint256"
        },
        {
          "indexed": false,
          "internalType": "address",
          "name": "owner",
          "type": "address"
        },
        {
          "indexed": false,
          "internalType": "address",
          "name": "seller",
          "type": "address"
        },
        {
          "indexed": false,
          "internalType": "uint256",
          "name": "price",
          "type": "uint256"
        },
        {
          "indexed": false,
          "internalType": "bool",
          "name": "currentlyListed",
          "type": "bool"
        },
        {
          "indexed": false,
          "internalType": "string",
          "name": "tokenURI",
          "type": "string"
        }
      ],
      "name": "TokenListedSuccess",
      "type": "event"
    },
    {
      "anonymous": false,
      "inputs": [
        {
          "indexed": true,
          "internalType": "address",
          "name": "from",
          "type": "address"
        },
        {
          "indexed": true,
          "internalType": "address",
          "name": "to",
          "type": "address"
        },
        {
          "indexed": true,
          "internalType": "uint256",
          "name": "tokenId",
          "type": "uint256"
        }
      ],
      "name": "Transfer",
      "type": "event"
    },
    {
      "inputs": [
        {
          "internalType": "address",
          "name": "to",
          "type": "address"
        },
        {
          "internalType": "uint256",
          "name": "tokenId",
          "type": "uint256"
        }
      ],
      "name": "approve",
      "outputs": [],
      "stateMutability": "nonpayable",
      "type": "function"
    },
    {
      "inputs": [
        {
          "internalType": "uint256",
          "name": "",
          "type": "uint256"
        },
        {
          "internalType": "uint256",
          "name": "",
          "type": "uint256"
        }
      ],
      "name": "auctionBids",
      "outputs": [
        {
          "internalType": "address",
          "name": "bidder",
          "type": "address"
        },
        {
          "internalType": "uint128",
          "name": "amount",
          "type": "uint128"
        },
        {
          "internalType": "string",
          "name": "name",
          "type": "string"
        }
      ],
      "stateMutability": "view",
      "type": "function"
    },
    {
      "inputs": [],
      "name": "auctionFee",
      "outputs": [
        {
          "internalType": "uint256",
          "name": "",
          "type": "uint256"
        }
      ],
      "stateMutability": "view",
      "type": "function"
    },
    {
      "inputs": [
        {
          "internalType": "uint256",
          "name": "",
          "type": "uint256"
        }
      ],
      "name": "auctions",
      "outputs": [
        {
          "internalType": "uint256",
          "name": "auctionId",
          "type": "uint256"
        },
        {
          "internalType": "address",
          "name": "seller",
          "type": "address"
        },
        {
          "internalType": "uint256",
          "name": "tokenId",
          "type": "uint256"
        },
        {
          "internalType": "uint128",
          "name": "minBid",
          "type": "uint128"
        },
        {
          "internalType": "uint128",
          "name": "highestBid",
          "type": "uint128"
        },
        {
          "internalType": "address",
          "name": "highestBidder",
          "type": "address"
        },
        {
          "internalType": "uint128",
          "name": "startTime",
          "type": "uint128"
        },
        {
          "internalType": "uint128",
          "name": "duration",
          "type": "uint128"
        },
        {
          "internalType": "bool",
          "name": "settled",
          "type": "bool"
        },
        {
          "internalType": "string",
          "name": "auctionURI",
          "type": "string"
        }
      ],
      "stateMutability": "view",
      "type": "function"
    },
    {
      "inputs": [
        {
          "internalType": "address",
          "name": "owner",
          "type": "address"
        }
      ],
      "name": "balanceOf",
      "outputs": [
        {
          "internalType": "uint256",
          "name": "",
          "type": "uint256"
        }
      ],
      "stateMutability": "view",
      "type": "function"
    },
    {
      "inputs": [
        {
          "internalType": "uint256",
          "name": "",
          "type": "uint256"
        },
        {
          "internalType": "address",
          "name": "",
          "type": "address"
        }
      ],
      "name": "bids",
      "outputs": [
        {
          "internalType": "uint256",
          "name": "",
          "type": "uint256"
        }
      ],
      "stateMutability": "view",
      "type": "function"
    },
    {
      "inputs": [
        {
          "internalType": "uint256",
          "name": "tokenId",
          "type": "uint256"
        }
      ],
      "name": "buyNFT",
      "outputs": [],
      "stateMutability": "payable",
      "type": "function"
    },
    {
      "inputs": [
        {
          "internalType": "uint256",
          "name": "tokenId",
          "type": "uint256"
        },
        {
          "internalType": "uint128",
          "name": "minBid",
          "type": "uint128"
        },
        {
          "internalType": "uint128",
          "name": "duration",
          "type": "uint128"
        },
        {
          "internalType": "string",
          "name": "auctionURI",
          "type": "string"
        }
      ],
      "name": "createAuction",
      "outputs": [],
      "stateMutability": "payable",
      "type": "function"
    },
    {
      "inputs": [],
      "name": "getActiveAuctions",
      "outputs": [
        {
          "components": [
            {
              "internalType": "uint256",
              "name": "auctionId",
              "type": "uint256"
            },
            {
              "internalType": "address",
              "name": "seller",
              "type": "address"
            },
            {
              "internalType": "uint256",
              "name": "tokenId",
              "type": "uint256"
            },
            {
              "internalType": "uint128",
              "name": "minBid",
              "type": "uint128"
            },
            {
              "internalType": "uint128",
              "name": "highestBid",
              "type": "uint128"
            },
            {
              "internalType": "address",
              "name": "highestBidder",
              "type": "address"
            },
            {
              "internalType": "uint128",
              "name": "startTime",
              "type": "uint128"
            },
            {
              "internalType": "uint128",
              "name": "duration",
              "type": "uint128"
            },
            {
              "internalType": "bool",
              "name": "settled",
              "type": "bool"
            },
            {
              "internalType": "string",
              "name": "auctionURI",
              "type": "string"
            }
          ],
          "internalType": "struct NFTMarketplace.AuctionItem[]",
          "name": "",
          "type": "tuple[]"
        }
      ],
      "stateMutability": "view",
      "type": "function"
    },
    {
      "inputs": [
        {
          "internalType": "uint256",
          "name": "auctionId",
          "type": "uint256"
        }
      ],
      "name": "getAllBids",
      "outputs": [
        {
          "components": [
            {
              "internalType": "address",
              "name": "bidder",
              "type": "address"
            },
            {
              "internalType": "uint128",
              "name": "amount",
              "type": "uint128"
            },
            {
              "internalType": "string",
              "name": "name",
              "type": "string"
            }
          ],
          "internalType": "struct NFTMarketplace.Bid[]",
          "name": "",
          "type": "tuple[]"
        }
      ],
      "stateMutability": "view",
      "type": "function"
    },
    {
      "inputs": [],
      "name": "getAllNFTs",
      "outputs": [
        {
          "components": [
            {
              "internalType": "uint256",
              "name": "tokenId",
              "type": "uint256"
            },
            {
              "internalType": "address payable",
              "name": "owner",
              "type": "address"
            },
            {
              "internalType": "address payable",
              "name": "seller",
              "type": "address"
            },
            {
              "internalType": "uint256",
              "name": "price",
              "type": "uint256"
            },
            {
              "internalType": "bool",
              "name": "currentlyListed",
              "type": "bool"
            },
            {
              "internalType": "string",
              "name": "tokenURI",
              "type": "string"
            }
          ],
          "internalType": "struct NFTMarketplace.ListedToken[]",
          "name": "",
          "type": "tuple[]"
        }
      ],
      "stateMutability": "view",
      "type": "function"
    },
    {
      "inputs": [
        {
          "internalType": "uint256",
          "name": "tokenId",
          "type": "uint256"
        }
      ],
      "name": "getApproved",
      "outputs": [
        {
          "internalType": "address",
          "name": "",
          "type": "address"
        }
      ],
      "stateMutability": "view",
      "type": "function"
    },
    {
      "inputs": [],
      "name": "getCurrentAuctionId",
      "outputs": [
        {
          "internalType": "uint256",
          "name": "",
          "type": "uint256"
        }
      ],
      "stateMutability": "view",
      "type": "function"
    },
    {
      "inputs": [],
      "name": "getCurrentToken",
      "outputs": [
        {
          "internalType": "uint256",
          "name": "",
          "type": "uint256"
        }
      ],
      "stateMutability": "view",
      "type": "function"
    },
    {
      "inputs": [],
      "name": "getListPrice",
      "outputs": [
        {
          "internalType": "uint256",
          "name": "",
          "type": "uint256"
        }
      ],
      "stateMutability": "view",
      "type": "function"
    },
    {
      "inputs": [
        {
          "internalType": "uint256",
          "name": "tokenId",
          "type": "uint256"
        }
      ],
      "name": "getListedTokenForId",
      "outputs": [
        {
          "components": [
            {
              "internalType": "uint256",
              "name": "tokenId",
              "type": "uint256"
            },
            {
              "internalType": "address payable",
              "name": "owner",
              "type": "address"
            },
            {
              "internalType": "address payable",
              "name": "seller",
              "type": "address"
            },
            {
              "internalType": "uint256",
              "name": "price",
              "type": "uint256"
            },
            {
              "internalType": "bool",
              "name": "currentlyListed",
              "type": "bool"
            },
            {
              "internalType": "string",
              "name": "tokenURI",
              "type": "string"
            }
          ],
          "internalType": "struct NFTMarketplace.ListedToken",
          "name": "",
          "type": "tuple"
        }
      ],
      "stateMutability": "view",
      "type": "function"
    },
    {
      "inputs": [
        {
          "internalType": "address",
          "name": "user",
          "type": "address"
        }
      ],
      "name": "getMyAuctions",
      "outputs": [
        {
          "components": [
            {
              "internalType": "uint256",
              "name": "auctionId",
              "type": "uint256"
            },
            {
              "internalType": "address",
              "name": "seller",
              "type": "address"
            },
            {
              "internalType": "uint256",
              "name": "tokenId",
              "type": "uint256"
            },
            {
              "internalType": "uint128",
              "name": "minBid",
              "type": "uint128"
            },
            {
              "internalType": "uint128",
              "name": "highestBid",
              "type": "uint128"
            },
            {
              "internalType": "address",
              "name": "highestBidder",
              "type": "address"
            },
            {
              "internalType": "uint128",
              "name": "startTime",
              "type": "uint128"
            },
            {
              "internalType": "uint128",
              "name": "duration",
              "type": "uint128"
            },
            {
              "internalType": "bool",
              "name": "settled",
              "type": "bool"
            },
            {
              "internalType": "string",
              "name": "auctionURI",
              "type": "string"
            }
          ],
          "internalType": "struct NFTMarketplace.AuctionItem[]",
          "name": "",
          "type": "tuple[]"
        }
      ],
      "stateMutability": "view",
      "type": "function"
    },
    {
      "inputs": [],
      "name": "getMyNFTs",
      "outputs": [
        {
          "components": [
            {
              "internalType": "uint256",
              "name": "tokenId",
              "type": "uint256"
            },
            {
              "internalType": "address payable",
              "name": "owner",
              "type": "address"
            },
            {
              "internalType": "address payable",
              "name": "seller",
              "type": "address"
            },
            {
              "internalType": "uint256",
              "name": "price",
              "type": "uint256"
            },
            {
              "internalType": "bool",
              "name": "currentlyListed",
              "type": "bool"
            },
            {
              "internalType": "string",
              "name": "tokenURI",
              "type": "string"
            }
          ],
          "internalType": "struct NFTMarketplace.ListedToken[]",
          "name": "",
          "type": "tuple[]"
        }
      ],
      "stateMutability": "view",
      "type": "function"
    },
    {
      "inputs": [],
      "name": "getNonActiveAuctions",
      "outputs": [
        {
          "components": [
            {
              "internalType": "uint256",
              "name": "auctionId",
              "type": "uint256"
            },
            {
              "internalType": "address",
              "name": "seller",
              "type": "address"
            },
            {
              "internalType": "uint256",
              "name": "tokenId",
              "type": "uint256"
            },
            {
              "internalType": "uint128",
              "name": "minBid",
              "type": "uint128"
            },
            {
              "internalType": "uint128",
              "name": "highestBid",
              "type": "uint128"
            },
            {
              "internalType": "address",
              "name": "highestBidder",
              "type": "address"
            },
            {
              "internalType": "uint128",
              "name": "startTime",
              "type": "uint128"
            },
            {
              "internalType": "uint128",
              "name": "duration",
              "type": "uint128"
            },
            {
              "internalType": "bool",
              "name": "settled",
              "type": "bool"
            },
            {
              "internalType": "string",
              "name": "auctionURI",
              "type": "string"
            }
          ],
          "internalType": "struct NFTMarketplace.AuctionItem[]",
          "name": "",
          "type": "tuple[]"
        }
      ],
      "stateMutability": "view",
      "type": "function"
    },
    {
      "inputs": [
        {
          "internalType": "address",
          "name": "owner",
          "type": "address"
        },
        {
          "internalType": "address",
          "name": "operator",
          "type": "address"
        }
      ],
      "name": "isApprovedForAll",
      "outputs": [
        {
          "internalType": "bool",
          "name": "",
          "type": "bool"
        }
      ],
      "stateMutability": "view",
      "type": "function"
    },
    {
      "inputs": [],
      "name": "listPrice",
      "outputs": [
        {
          "internalType": "uint256",
          "name": "",
          "type": "uint256"
        }
      ],
      "stateMutability": "view",
      "type": "function"
    },
    {
      "inputs": [
        {
          "internalType": "string",
          "name": "tokenURI",
          "type": "string"
        },
        {
          "internalType": "uint256",
          "name": "price",
          "type": "uint256"
        }
      ],
      "name": "mintNFT",
      "outputs": [
        {
          "internalType": "uint256",
          "name": "",
          "type": "uint256"
        }
      ],
      "stateMutability": "payable",
      "type": "function"
    },
    {
      "inputs": [],
      "name": "name",
      "outputs": [
        {
          "internalType": "string",
          "name": "",
          "type": "string"
        }
      ],
      "stateMutability": "view",
      "type": "function"
    },
    {
      "inputs": [],
      "name": "owner",
      "outputs": [
        {
          "internalType": "address payable",
          "name": "",
          "type": "address"
        }
      ],
      "stateMutability": "view",
      "type": "function"
    },
    {
      "inputs": [
        {
          "internalType": "uint256",
          "name": "tokenId",
          "type": "uint256"
        }
      ],
      "name": "ownerOf",
      "outputs": [
        {
          "internalType": "address",
          "name": "",
          "type": "address"
        }
      ],
      "stateMutability": "view",
      "type": "function"
    },
    {
      "inputs": [
        {
          "internalType": "uint256",
          "name": "auctionId",
          "type": "uint256"
        },
        {
          "internalType": "string",
          "name": "name",
          "type": "string"
        }
      ],
      "name": "placeBid",
      "outputs": [],
      "stateMutability": "payable",
      "type": "function"
    },
    {
      "inputs": [
        {
          "internalType": "address",
          "name": "from",
          "type": "address"
        },
        {
          "internalType": "address",
          "name": "to",
          "type": "address"
        },
        {
          "internalType": "uint256",
          "name": "tokenId",
          "type": "uint256"
        }
      ],
      "name": "safeTransferFrom",
      "outputs": [],
      "stateMutability": "nonpayable",
      "type": "function"
    },
    {
      "inputs": [
        {
          "internalType": "address",
          "name": "from",
          "type": "address"
        },
        {
          "internalType": "address",
          "name": "to",
          "type": "address"
        },
        {
          "internalType": "uint256",
          "name": "tokenId",
          "type": "uint256"
        },
        {
          "internalType": "bytes",
          "name": "data",
          "type": "bytes"
        }
      ],
      "name": "safeTransferFrom",
      "outputs": [],
      "stateMutability": "nonpayable",
      "type": "function"
    },
    {
      "inputs": [
        {
          "internalType": "address",
          "name": "operator",
          "type": "address"
        },
        {
          "internalType": "bool",
          "name": "approved",
          "type": "bool"
        }
      ],
      "name": "setApprovalForAll",
      "outputs": [],
      "stateMutability": "nonpayable",
      "type": "function"
    },
    {
      "inputs": [
        {
          "internalType": "uint256",
          "name": "auctionId",
          "type": "uint256"
        }
      ],
      "name": "settleAuction",
      "outputs": [],
      "stateMutability": "nonpayable",
      "type": "function"
    },
    {
      "inputs": [
        {
          "internalType": "bytes4",
          "name": "interfaceId",
          "type": "bytes4"
        }
      ],
      "name": "supportsInterface",
      "outputs": [
        {
          "internalType": "bool",
          "name": "",
          "type": "bool"
        }
      ],
      "stateMutability": "view",
      "type": "function"
    },
    {
      "inputs": [],
      "name": "symbol",
      "outputs": [
        {
          "internalType": "string",
          "name": "",
          "type": "string"
        }
      ],
      "stateMutability": "view",
      "type": "function"
    },
    {
      "inputs": [
        {
          "internalType": "uint256",
          "name": "tokenId",
          "type": "uint256"
        }
      ],
      "name": "tokenURI",
      "outputs": [
        {
          "internalType": "string",
          "name": "",
          "type": "string"
        }
      ],
      "stateMutability": "view",
      "type": "function"
    },
    {
      "inputs": [
        {
          "internalType": "address",
          "name": "from",
          "type": "address"
        },
        {
          "internalType": "address",
          "name": "to",
          "type": "address"
        },
        {
          "internalType": "uint256",
          "name": "tokenId",
          "type": "uint256"
        }
      ],
      "name": "transferFrom",
      "outputs": [],
      "stateMutability": "nonpayable",
      "type": "function"
    },
    {
      "inputs": [
        {
          "internalType": "uint256",
          "name": "_listPrice",
          "type": "uint256"
        }
      ],
      "name": "updateListPrice",
      "outputs": [],
      "stateMutability": "payable",
      "type": "function"
    }
  ],
  "bytecode": "0x6080604052662386f26fc10000600b55662386f26fc1000060105534801561002657600080fd5b506040518060400160405280600e81526020016d4e46544d61726b6574706c61636560901b815250604051806040016040528060048152602001634e46544d60e01b815250816000908161007a9190610145565b5060016100878282610145565b5050600160075550600a80546001600160a01b03191633179055610203565b634e487b7160e01b600052604160045260246000fd5b600181811c908216806100d057607f821691505b6020821081036100f057634e487b7160e01b600052602260045260246000fd5b50919050565b601f82111561014057806000526020600020601f840160051c8101602085101561011d5750805b601f840160051c820191505b8181101561013d5760008155600101610129565b50505b505050565b81516001600160401b0381111561015e5761015e6100a6565b6101728161016c84546100bc565b846100f6565b6020601f8211600181146101a6576000831561018e5750848201515b600019600385901b1c1916600184901b17845561013d565b600084815260208120601f198516915b828110156101d657878501518255602094850194600190920191016101b6565b50848210156101f45786840151600019600387901b60f8161c191681555b50505050600190811b01905550565b613eef806102126000396000f3fe6080604052600436106102045760003560e01c80636352211e11610118578063b1fb9472116100a0578063c87b56dd1161006f578063c87b56dd146105ed578063cf44b5d51461060d578063e0391b0914610622578063e985e9c514610637578063ef2d17461461068057600080fd5b8063b1fb947214610587578063b88d4fde1461059a578063bcf05bf7146105ba578063c322579c146105da57600080fd5b80638da5cb5b116100e75780638da5cb5b146104d85780638e264590146104f857806395d89b4114610525578063a22cb4651461053a578063a528ff831461055a57600080fd5b80636352211e1461046d57806368f1945f1461048d5780636eb588d9146104a257806370a08231146104b857600080fd5b80632e9936111161019b57806351ed82881161016a57806351ed8288146103c0578063571a26a0146103d35780635afa3a72146104095780635f93de491461041c578063629cb2e41461044b57600080fd5b80632e9936111461033557806337aab063146103555780633f1ffcec1461036857806342842e0e146103a057600080fd5b806314525b6b116101d757806314525b6b146102ba578063157db316146102de57806323b872dd146102f35780632ade28a51461031357600080fd5b806301ffc9a71461020957806306fdde031461023e578063081812fc14610260578063095ea7b314610298575b600080fd5b34801561021557600080fd5b50610229610224366004613344565b610695565b60405190151581526020015b60405180910390f35b34801561024a57600080fd5b506102536106c0565b60405161023591906133b1565b34801561026c57600080fd5b5061028061027b3660046133c4565b610752565b6040516001600160a01b039091168152602001610235565b3480156102a457600080fd5b506102b86102b33660046133f9565b610779565b005b3480156102c657600080fd5b506102d060105481565b604051908152602001610235565b3480156102ea57600080fd5b506102d0610893565b3480156102ff57600080fd5b506102b861030e366004613423565b6108a3565b34801561031f57600080fd5b506103286108d4565b6040516102359190613460565b34801561034157600080fd5b506102b86103503660046133c4565b610b29565b6102b8610363366004613650565b610d21565b34801561037457600080fd5b506102d0610383366004613696565b600f60209081526000928352604080842090915290825290205481565b3480156103ac57600080fd5b506102b86103bb366004613423565b610f9a565b6102b86103ce3660046133c4565b610fb5565b3480156103df57600080fd5b506103f36103ee3660046133c4565b61115a565b6040516102359a999897969594939291906136c2565b6102d061041736600461373e565b611253565b34801561042857600080fd5b5061043c610437366004613782565b6114de565b604051610235939291906137a4565b34801561045757600080fd5b506104606115be565b6040516102359190613839565b34801561047957600080fd5b506102806104883660046133c4565b611869565b34801561049957600080fd5b50600b546102d0565b3480156104ae57600080fd5b506102d0600b5481565b3480156104c457600080fd5b506102d06104d3366004613892565b6118c9565b3480156104e457600080fd5b50600a54610280906001600160a01b031681565b34801561050457600080fd5b506105186105133660046133c4565b61194f565b60405161023591906138ad565b34801561053157600080fd5b50610253611a55565b34801561054657600080fd5b506102b86105553660046138c0565b611a64565b34801561056657600080fd5b5061057a6105753660046133c4565b611a6f565b60405161023591906138fc565b6102b861059536600461399f565b611b9c565b3480156105a657600080fd5b506102b86105b5366004613a06565b612067565b3480156105c657600080fd5b506103286105d5366004613892565b61209f565b6102b86105e83660046133c4565b61232d565b3480156105f957600080fd5b506102536106083660046133c4565b612398565b34801561061957600080fd5b506103286124a8565b34801561062e57600080fd5b506104606126f1565b34801561064357600080fd5b50610229610652366004613a75565b6001600160a01b03918216600090815260056020908152604080832093909416825291909152205460ff1690565b34801561068c57600080fd5b506102d06128a8565b60006001600160e01b03198216632483248360e11b14806106ba57506106ba826128b3565b92915050565b6060600080546106cf90613a9f565b80601f01602080910402602001604051908101604052809291908181526020018280546106fb90613a9f565b80156107485780601f1061071d57610100808354040283529160200191610748565b820191906000526020600020905b81548152906001019060200180831161072b57829003601f168201915b5050505050905090565b600061075d82612903565b506000908152600460205260409020546001600160a01b031690565b600061078482611869565b9050806001600160a01b0316836001600160a01b0316036107f65760405162461bcd60e51b815260206004820152602160248201527f4552433732313a20617070726f76616c20746f2063757272656e74206f776e656044820152603960f91b60648201526084015b60405180910390fd5b336001600160a01b038216148061081257506108128133610652565b6108845760405162461bcd60e51b815260206004820152603d60248201527f4552433732313a20617070726f76652063616c6c6572206973206e6f7420746f60448201527f6b656e206f776e6572206f7220617070726f76656420666f7220616c6c00000060648201526084016107ed565b61088e8383612962565b505050565b600061089e600d5490565b905090565b6108ad33826129d0565b6108c95760405162461bcd60e51b81526004016107ed90613ad9565b61088e838383612a4e565b606060006108e1600d5490565b90506000805b82811015610936576000600e816108ff846001613b3c565b81526020810191909152604001600020600681015490915060ff161561092d578261092981613b4f565b9350505b506001016108e7565b506000816001600160401b03811115610951576109516135a2565b60405190808252806020026020018201604052801561098a57816020015b61097761328e565b81526020019060019003908161096f5790505b5090506000805b84811015610b1f576000600e816109a9846001613b3c565b81526020810191909152604001600020600681015490915060ff1615610b165760408051610140810182528254815260018301546001600160a01b03908116602083015260028401549282019290925260038301546001600160801b038082166060840152600160801b9182900481166080840152600485015490931660a0830152600584015480841660c08401520490911660e0820152600682015460ff1615156101008201526007820180548391610120840191610a6890613a9f565b80601f0160208091040260200160405190810160405280929190818152602001828054610a9490613a9f565b8015610ae15780601f10610ab657610100808354040283529160200191610ae1565b820191906000526020600020905b815481529060010190602001808311610ac457829003601f168201915b505050505081525050848481518110610afc57610afc613b68565b60200260200101819052508280610b1290613b4f565b9350505b50600101610991565b5090949350505050565b610b31612bb2565b6000818152600e602052604090206005810154610b60906001600160801b03600160801b820481169116613b7e565b6001600160801b0316421015610bac5760405162461bcd60e51b8152602060048201526011602482015270105d58dd1a5bdb881b9bdd08195b991959607a1b60448201526064016107ed565b600681015460ff1615610bf35760405162461bcd60e51b815260206004820152600f60248201526e105b1c9958591e481cd95d1d1b1959608a1b60448201526064016107ed565b60068101805460ff1916600117905560048101546001600160a01b031615610c8f5760048101546002820154610c369130916001600160a01b0390911690612a4e565b600181015460038201546040516001600160a01b03909216916001600160801b03600160801b9092049190911680156108fc02916000818181858888f19350505050158015610c89573d6000803e3d6000fd5b50610cb0565b60018101546002820154610cb09130916001600160a01b0390911690612a4e565b600281015460048201546003830154604080516001600160a01b039093168352600160801b9091046001600160801b0316602083015284917f446087716b3a41f4a80627ad75ee7f352afc92d2aef521502620231ba64c0e1b910160405180910390a350610d1e6001600755565b50565b610d29612bb2565b6000828152600e602052604090206005810154610d58906001600160801b03600160801b820481169116613b7e565b6001600160801b03164210610d9f5760405162461bcd60e51b815260206004820152600d60248201526c105d58dd1a5bdb88195b991959609a1b60448201526064016107ed565b6003810154600160801b90046001600160801b031634118015610dcf575060038101546001600160801b03163410155b610e095760405162461bcd60e51b815260206004820152600b60248201526a42696420746f6f206c6f7760a81b60448201526064016107ed565b60048101546001600160a01b031615610e7157600481015460038201546040516001600160a01b03909216916001600160801b03600160801b9092049190911680156108fc02916000818181858888f19350505050158015610e6f573d6000803e3d6000fd5b505b600381810180546001600160801b03908116600160801b3480841691820292909217909355600485018054336001600160a01b031991821681179092556000898152600f602090815260408083208584528252808320959095558a82526011815284822085516060810187529485528482019788529484018a81528554600181810188559684529190922084519190980290970180549092166001600160a01b03909716969096178155935191840180546fffffffffffffffffffffffffffffffff1916929093169190911790915591516002820190610f519082613beb565b505060405134815233915084907f0e54eff26401bf69b81b26f60bd85ef47f5d85275c1d268d84f68d6897431c479060200160405180910390a350610f966001600755565b5050565b61088e83838360405180602001604052806000815250612067565b610fbd612bb2565b6000818152600c6020526040902060038101546002909101546001600160a01b0316348214611056576040805162461bcd60e51b81526020600482015260248101919091527f506c65617365207375626d6974207468652061736b696e67207072696365206960448201527f6e206f7264657220746f20636f6d706c6574652074686520707572636861736560648201526084016107ed565b6000838152600c6020526040902060048101805460ff19166001908117909155810180546001600160a01b031990811633908117909255600290920180549092161790556110a8600980546001019055565b6110b3303385612a4e565b6110bd3084610779565b6040516001600160a01b038216903480156108fc02916000818181858888f193505050501580156110f2573d6000803e3d6000fd5b506000838152600c6020908152604091829020600401548251858152339281019290925260ff16151581830152905184917fa6fcef706a46784e1a391af3cb4d93b8606d16168685050658b2690f82a4f59f919081900360600190a25050610d1e6001600755565b600e602052600090815260409020805460018201546002830154600384015460048501546005860154600687015460078801805497986001600160a01b039788169896976001600160801b0380881698600160801b9889900482169897909216968682169604169360ff1692906111d090613a9f565b80601f01602080910402602001604051908101604052809291908181526020018280546111fc90613a9f565b80156112495780601f1061121e57610100808354040283529160200191611249565b820191906000526020600020905b81548152906001019060200180831161122c57829003601f168201915b505050505090508a565b6000600b5434146112b25760405162461bcd60e51b815260206004820152602360248201527f486f706566756c6c792073656e64696e672074686520636f727265637420707260448201526269636560e81b60648201526084016107ed565b6000821161130d5760405162461bcd60e51b815260206004820152602260248201527f4d616b652073757265207468652070726963652069736e2774206e6567617469604482015261766560f01b60648201526084016107ed565b600a546040516000916001600160a01b03169034908381818185875af1925050503d806000811461135a576040519150601f19603f3d011682016040523d82523d6000602084013e61135f565b606091505b50509050806113b05760405162461bcd60e51b815260206004820181905260248201527f4661696c656420746f2073656e64206d696e742066656520746f206f776e657260448201526064016107ed565b6113be600880546001019055565b60006113c960085490565b90506113d53382612c0b565b6113df8186612c25565b6040805160c081018252828152306020808301918252338385019081526060840189815260016080860181815260a087018d815260008a8152600c9096529790942086518155945190850180546001600160a01b03199081166001600160a01b039384161790915592516002860180549094169116179091555160038301555160048201805460ff1916911515919091179055915190919060058201906114869082613beb565b50905050611495333083612a4e565b807fbe03728682d1fb99860367c3b95f7c28a74af28403c7805ebc7ae722543222cc30338760018a6040516114ce959493929190613ca9565b60405180910390a2949350505050565b601160205281600052604060002081815481106114fa57600080fd5b60009182526020909120600390910201805460018201546002830180546001600160a01b0390931695506001600160801b0390911693509061153b90613a9f565b80601f016020809104026020016040519081016040528092919081815260200182805461156790613a9f565b80156115b45780601f10611589576101008083540402835291602001916115b4565b820191906000526020600020905b81548152906001019060200180831161159757829003601f168201915b5050505050905083565b606060006115cb60085490565b905060008080805b848110156116595733600c60006115eb846001613b3c565b81526020810191909152604001600020600101546001600160a01b0316148061163e575033600c600061161f846001613b3c565b81526020810191909152604001600020600201546001600160a01b0316145b156116515761164e600185613b3c565b93505b6001016115d3565b506000836001600160401b03811115611674576116746135a2565b6040519080825280602002602001820160405280156116ad57816020015b61169a6132e4565b8152602001906001900390816116925790505b50905060005b8581101561185f5733600c60006116cb846001613b3c565b81526020810191909152604001600020600101546001600160a01b0316148061171e575033600c60006116ff846001613b3c565b81526020810191909152604001600020600201546001600160a01b0316145b156118575761172e816001613b3c565b6000818152600c6020908152604091829020825160c0810184528154815260018201546001600160a01b039081169382019390935260028201549092169282019290925260038201546060820152600482015460ff161515608082015260058201805493965091929091839160a0840191906117a990613a9f565b80601f01602080910402602001604051908101604052809291908181526020018280546117d590613a9f565b80156118225780601f106117f757610100808354040283529160200191611822565b820191906000526020600020905b81548152906001019060200180831161180557829003601f168201915b50505050508152505083868151811061183d5761183d613b68565b6020908102919091010152611853600186613b3c565b9450505b6001016116b3565b5095945050505050565b6000818152600260205260408120546001600160a01b0316806106ba5760405162461bcd60e51b8152602060048201526018602482015277115490cdcc8c4e881a5b9d985b1a59081d1bdad95b88125160421b60448201526064016107ed565b60006001600160a01b0382166119335760405162461bcd60e51b815260206004820152602960248201527f4552433732313a2061646472657373207a65726f206973206e6f7420612076616044820152683634b21037bbb732b960b91b60648201526084016107ed565b506001600160a01b031660009081526003602052604090205490565b6119576132e4565b6000828152600c6020908152604091829020825160c0810184528154815260018201546001600160a01b039081169382019390935260028201549092169282019290925260038201546060820152600482015460ff161515608082015260058201805491929160a0840191906119cc90613a9f565b80601f01602080910402602001604051908101604052809291908181526020018280546119f890613a9f565b8015611a455780601f10611a1a57610100808354040283529160200191611a45565b820191906000526020600020905b815481529060010190602001808311611a2857829003601f168201915b5050505050815250509050919050565b6060600180546106cf90613a9f565b610f96338383612cf0565b606060116000838152602001908152602001600020805480602002602001604051908101604052809291908181526020016000905b82821015611b91576000848152602090819020604080516060810182526003860290920180546001600160a01b0316835260018101546001600160801b03169383019390935260028301805492939291840191611b0090613a9f565b80601f0160208091040260200160405190810160405280929190818152602001828054611b2c90613a9f565b8015611b795780601f10611b4e57610100808354040283529160200191611b79565b820191906000526020600020905b815481529060010190602001808311611b5c57829003601f168201915b50505050508152505081526020019060010190611aa4565b505050509050919050565b6010543414611bfc5760405162461bcd60e51b815260206004820152602660248201527f4d7573742070617920302e3031204554482066656520746f20737461727420616044820152653ab1ba34b7b760d11b60648201526084016107ed565b603c826001600160801b03161015611c695760405162461bcd60e51b815260206004820152602a60248201527f41756374696f6e206475726174696f6e206d757374206265206174206c656173604482015269742031206d696e75746560b01b60648201526084016107ed565b6000848152600c60205260409020600201546001600160a01b0316331480611caa57506000848152600c60205260409020600101546001600160a01b031633145b611ce65760405162461bcd60e51b815260206004820152600d60248201526c2737ba103a34329037bbb732b960991b60448201526064016107ed565b6000848152600260205260409020546001600160a01b0316611d415760405162461bcd60e51b8152602060048201526014602482015273151bdad95b88191bd95cc81b9bdd08195e1a5cdd60621b60448201526064016107ed565b600a546040516000916001600160a01b03169034908381818185875af1925050503d8060008114611d8e576040519150601f19603f3d011682016040523d82523d6000602084013e611d93565b606091505b5050905080611df05760405162461bcd60e51b815260206004820152602360248201527f4661696c656420746f2073656e642061756374696f6e2066656520746f206f776044820152623732b960e91b60648201526084016107ed565b611dfe600d80546001019055565b6000611e09600d5490565b9050604051806101400160405280828152602001336001600160a01b03168152602001878152602001866001600160801b0316815260200160006001600160801b0316815260200160006001600160a01b03168152602001426001600160801b03168152602001856001600160801b0316815260200160001515815260200184815250600e60008381526020019081526020016000206000820151816000015560208201518160010160006101000a8154816001600160a01b0302191690836001600160a01b031602179055506040820151816002015560608201518160030160006101000a8154816001600160801b0302191690836001600160801b0316021790555060808201518160030160106101000a8154816001600160801b0302191690836001600160801b0316021790555060a08201518160040160006101000a8154816001600160a01b0302191690836001600160a01b0316021790555060c08201518160050160006101000a8154816001600160801b0302191690836001600160801b0316021790555060e08201518160050160106101000a8154816001600160801b0302191690836001600160801b031602179055506101008201518160060160006101000a81548160ff021916908315150217905550610120820151816007019081611ff89190613beb565b503391508290507f3654a00f91dd0ac6ecaadbc1445136cdbd8135727403afe6a6ef06cc482d256f88886120356001600160801b038a1642613b3c565b60008c8152600c60205260409081902090516120579493929160050190613cef565b60405180910390a3505050505050565b61207133836129d0565b61208d5760405162461bcd60e51b81526004016107ed90613ad9565b61209984848484612dbe565b50505050565b606060006120ac600d5490565b90506000805b8281101561210b576001600160a01b038516600e60006120d3846001613b3c565b81526020810191909152604001600020600101546001600160a01b03160361210357816120ff81613b4f565b9250505b6001016120b2565b506000816001600160401b03811115612126576121266135a2565b60405190808252806020026020018201604052801561215f57816020015b61214c61328e565b8152602001906001900390816121445790505b5090506000805b84811015612322576001600160a01b038716600e6000612187846001613b3c565b81526020810191909152604001600020600101546001600160a01b03160361231a57600e60006121b8836001613b3c565b815260208082019290925260409081016000208151610140810183528154815260018201546001600160a01b039081169482019490945260028201549281019290925260038101546001600160801b038082166060850152600160801b9182900481166080850152600483015490941660a0840152600582015480851660c08501520490921660e0820152600682015460ff1615156101008201526007820180549192916101208401919061226c90613a9f565b80601f016020809104026020016040519081016040528092919081815260200182805461229890613a9f565b80156122e55780601f106122ba576101008083540402835291602001916122e5565b820191906000526020600020905b8154815290600101906020018083116122c857829003601f168201915b50505050508152505083838151811061230057612300613b68565b6020026020010181905250818061231690613b4f565b9250505b600101612166565b509095945050505050565b600a546001600160a01b031633146123935760405162461bcd60e51b815260206004820152602360248201527f4f6e6c79206f776e65722063616e20757064617465206c697374696e6720707260448201526269636560e81b60648201526084016107ed565b600b55565b60606123a382612903565b600082815260066020526040812080546123bc90613a9f565b80601f01602080910402602001604051908101604052809291908181526020018280546123e890613a9f565b80156124355780601f1061240a57610100808354040283529160200191612435565b820191906000526020600020905b81548152906001019060200180831161241857829003601f168201915b50505050509050600061245360408051602081019091526000815290565b90508051600003612465575092915050565b81511561249757808260405160200161247f929190613d99565b60405160208183030381529060405292505050919050565b6124a084612df1565b949350505050565b606060006124b5600d5490565b90506000805b82811015612509576000600e816124d3846001613b3c565b81526020810191909152604001600020600681015490915060ff1661250057826124fc81613b4f565b9350505b506001016124bb565b506000816001600160401b03811115612524576125246135a2565b60405190808252806020026020018201604052801561255d57816020015b61254a61328e565b8152602001906001900390816125425790505b5090506000805b84811015610b1f576000600e8161257c846001613b3c565b81526020810191909152604001600020600681015490915060ff166126e85760408051610140810182528254815260018301546001600160a01b03908116602083015260028401549282019290925260038301546001600160801b038082166060840152600160801b9182900481166080840152600485015490931660a0830152600584015480841660c08401520490911660e0820152600682015460ff161515610100820152600782018054839161012084019161263a90613a9f565b80601f016020809104026020016040519081016040528092919081815260200182805461266690613a9f565b80156126b35780601f10612688576101008083540402835291602001916126b3565b820191906000526020600020905b81548152906001019060200180831161269657829003601f168201915b5050505050815250508484815181106126ce576126ce613b68565b602002602001018190525082806126e490613b4f565b9350505b50600101612564565b606060006126fe60085490565b90506000816001600160401b0381111561271a5761271a6135a2565b60405190808252806020026020018201604052801561275357816020015b6127406132e4565b8152602001906001900390816127385790505b509050600080805b8481101561289e5761276e816001613b3c565b6000818152600c6020908152604091829020825160c0810184528154815260018201546001600160a01b039081169382019390935260028201549092169282019290925260038201546060820152600482015460ff161515608082015260058201805493955091929091839160a0840191906127e990613a9f565b80601f016020809104026020016040519081016040528092919081815260200182805461281590613a9f565b80156128625780601f1061283757610100808354040283529160200191612862565b820191906000526020600020905b81548152906001019060200180831161284557829003601f168201915b50505050508152505085858151811061287d5761287d613b68565b6020908102919091010152612893600185613b3c565b93505060010161275b565b5091949350505050565b600061089e60085490565b60006001600160e01b031982166380ac58cd60e01b14806128e457506001600160e01b03198216635b5e139f60e01b145b806106ba57506301ffc9a760e01b6001600160e01b03198316146106ba565b6000818152600260205260409020546001600160a01b0316610d1e5760405162461bcd60e51b8152602060048201526018602482015277115490cdcc8c4e881a5b9d985b1a59081d1bdad95b88125160421b60448201526064016107ed565b600081815260046020526040902080546001600160a01b0319166001600160a01b038416908117909155819061299782611869565b6001600160a01b03167f8c5be1e5ebec7d5bd14f71427d1e84f3dd0314c0f7b2291e5b200ac8c7c3b92560405160405180910390a45050565b6000806129dc83611869565b9050806001600160a01b0316846001600160a01b03161480612a2357506001600160a01b0380821660009081526005602090815260408083209388168352929052205460ff165b806124a05750836001600160a01b0316612a3c84610752565b6001600160a01b031614949350505050565b826001600160a01b0316612a6182611869565b6001600160a01b031614612a875760405162461bcd60e51b81526004016107ed90613dc8565b6001600160a01b038216612ae95760405162461bcd60e51b8152602060048201526024808201527f4552433732313a207472616e7366657220746f20746865207a65726f206164646044820152637265737360e01b60648201526084016107ed565b826001600160a01b0316612afc82611869565b6001600160a01b031614612b225760405162461bcd60e51b81526004016107ed90613dc8565b600081815260046020908152604080832080546001600160a01b03199081169091556001600160a01b0387811680865260038552838620805460001901905590871680865283862080546001019055868652600290945282852080549092168417909155905184937fddf252ad1be2c89b69c2b068fc378daa952ba7f163c4a11628f55a4df523b3ef91a4505050565b600260075403612c045760405162461bcd60e51b815260206004820152601f60248201527f5265656e7472616e637947756172643a207265656e7472616e742063616c6c0060448201526064016107ed565b6002600755565b610f96828260405180602001604052806000815250612e65565b6000828152600260205260409020546001600160a01b0316612ca05760405162461bcd60e51b815260206004820152602e60248201527f45524337323155524953746f726167653a2055524920736574206f66206e6f6e60448201526d32bc34b9ba32b73a103a37b5b2b760911b60648201526084016107ed565b6000828152600660205260409020612cb88282613beb565b506040518281527ff8e1a15aba9398e019f0b49df1a4fde98ee17ae345cb5f6b5e2c27f5033e8ce79060200160405180910390a15050565b816001600160a01b0316836001600160a01b031603612d515760405162461bcd60e51b815260206004820152601960248201527f4552433732313a20617070726f766520746f2063616c6c65720000000000000060448201526064016107ed565b6001600160a01b03838116600081815260056020908152604080832094871680845294825291829020805460ff191686151590811790915591519182527f17307eab39ab6107e8899845ad3d59bd9653f200f220920489ca2b5937696c31910160405180910390a3505050565b612dc9848484612a4e565b612dd584848484612e98565b6120995760405162461bcd60e51b81526004016107ed90613e0d565b6060612dfc82612903565b6000612e1360408051602081019091526000815290565b90506000815111612e335760405180602001604052806000815250612e5e565b80612e3d84612f99565b604051602001612e4e929190613d99565b6040516020818303038152906040525b9392505050565b612e6f838361302b565b612e7c6000848484612e98565b61088e5760405162461bcd60e51b81526004016107ed90613e0d565b60006001600160a01b0384163b15612f8e57604051630a85bd0160e11b81526001600160a01b0385169063150b7a0290612edc903390899088908890600401613e5f565b6020604051808303816000875af1925050508015612f17575060408051601f3d908101601f19168201909252612f1491810190613e9c565b60015b612f74573d808015612f45576040519150601f19603f3d011682016040523d82523d6000602084013e612f4a565b606091505b508051600003612f6c5760405162461bcd60e51b81526004016107ed90613e0d565b805181602001fd5b6001600160e01b031916630a85bd0160e11b1490506124a0565b506001949350505050565b60606000612fa6836131b6565b60010190506000816001600160401b03811115612fc557612fc56135a2565b6040519080825280601f01601f191660200182016040528015612fef576020820181803683370190505b5090508181016020015b600019016f181899199a1a9b1b9c1cb0b131b232b360811b600a86061a8153600a8504945084612ff957509392505050565b6001600160a01b0382166130815760405162461bcd60e51b815260206004820181905260248201527f4552433732313a206d696e7420746f20746865207a65726f206164647265737360448201526064016107ed565b6000818152600260205260409020546001600160a01b0316156130e65760405162461bcd60e51b815260206004820152601c60248201527f4552433732313a20746f6b656e20616c7265616479206d696e7465640000000060448201526064016107ed565b6000818152600260205260409020546001600160a01b03161561314b5760405162461bcd60e51b815260206004820152601c60248201527f4552433732313a20746f6b656e20616c7265616479206d696e7465640000000060448201526064016107ed565b6001600160a01b038216600081815260036020908152604080832080546001019055848352600290915280822080546001600160a01b0319168417905551839291907fddf252ad1be2c89b69c2b068fc378daa952ba7f163c4a11628f55a4df523b3ef908290a45050565b60008072184f03e93ff9f4daa797ed6e38ed64bf6a1f0160401b83106131f55772184f03e93ff9f4daa797ed6e38ed64bf6a1f0160401b830492506040015b6d04ee2d6d415b85acef81000000008310613221576d04ee2d6d415b85acef8100000000830492506020015b662386f26fc10000831061323f57662386f26fc10000830492506010015b6305f5e1008310613257576305f5e100830492506008015b612710831061326b57612710830492506004015b6064831061327d576064830492506002015b600a83106106ba5760010192915050565b604080516101408101825260008082526020820181905291810182905260608082018390526080820183905260a0820183905260c0820183905260e0820183905261010082019290925261012081019190915290565b6040518060c001604052806000815260200160006001600160a01b0316815260200160006001600160a01b0316815260200160008152602001600015158152602001606081525090565b6001600160e01b031981168114610d1e57600080fd5b60006020828403121561335657600080fd5b8135612e5e8161332e565b60005b8381101561337c578181015183820152602001613364565b50506000910152565b6000815180845261339d816020860160208601613361565b601f01601f19169290920160200192915050565b602081526000612e5e6020830184613385565b6000602082840312156133d657600080fd5b5035919050565b80356001600160a01b03811681146133f457600080fd5b919050565b6000806040838503121561340c57600080fd5b613415836133dd565b946020939093013593505050565b60008060006060848603121561343857600080fd5b613441846133dd565b925061344f602085016133dd565b929592945050506040919091013590565b6000602082016020835280845180835260408501915060408160051b86010192506020860160005b8281101561359657603f1987860301845281518051865260208101516134b960208801826001600160a01b03169052565b506040810151604087015260608101516134de60608801826001600160801b03169052565b5060808101516134f960808801826001600160801b03169052565b5060a081015161351460a08801826001600160a01b03169052565b5060c081015161352f60c08801826001600160801b03169052565b5060e081015161354a60e08801826001600160801b03169052565b5061010081015161356061010088018215159052565b506101208101519050610140610120870152613580610140870182613385565b9550506020938401939190910190600101613488565b50929695505050505050565b634e487b7160e01b600052604160045260246000fd5b6000806001600160401b038411156135d2576135d26135a2565b50604051601f19601f85018116603f011681018181106001600160401b0382111715613600576136006135a2565b60405283815290508082840185101561361857600080fd5b83836020830137600060208583010152509392505050565b600082601f83011261364157600080fd5b612e5e838335602085016135b8565b6000806040838503121561366357600080fd5b8235915060208301356001600160401b0381111561368057600080fd5b61368c85828601613630565b9150509250929050565b600080604083850312156136a957600080fd5b823591506136b9602084016133dd565b90509250929050565b8a81526001600160a01b038a81166020830152604082018a90526001600160801b038981166060840152888116608084015290871660a083015285811660c0830152841660e0820152821515610100820152610140610120820181905260009061372e90830184613385565b9c9b505050505050505050505050565b6000806040838503121561375157600080fd5b82356001600160401b0381111561376757600080fd5b61377385828601613630565b95602094909401359450505050565b6000806040838503121561379557600080fd5b50508035926020909101359150565b6001600160a01b03841681526001600160801b03831660208201526060604082018190526000906137d790830184613385565b95945050505050565b8051825260018060a01b03602082015116602083015260018060a01b03604082015116604083015260608101516060830152608081015115156080830152600060a082015160c060a08501526124a060c0850182613385565b6000602082016020835280845180835260408501915060408160051b86010192506020860160005b8281101561359657603f1987860301845261387d8583516137e0565b94506020938401939190910190600101613861565b6000602082840312156138a457600080fd5b612e5e826133dd565b602081526000612e5e60208301846137e0565b600080604083850312156138d357600080fd5b6138dc836133dd565b9150602083013580151581146138f157600080fd5b809150509250929050565b6000602082016020835280845180835260408501915060408160051b86010192506020860160005b8281101561359657868503603f19018452815180516001600160a01b031686526020808201516001600160801b03169087015260409081015160609187018290529061397290870182613385565b9550506020938401939190910190600101613924565b80356001600160801b03811681146133f457600080fd5b600080600080608085870312156139b557600080fd5b843593506139c560208601613988565b92506139d360408601613988565b915060608501356001600160401b038111156139ee57600080fd5b6139fa87828801613630565b91505092959194509250565b60008060008060808587031215613a1c57600080fd5b613a25856133dd565b9350613a33602086016133dd565b92506040850135915060608501356001600160401b03811115613a5557600080fd5b8501601f81018713613a6657600080fd5b6139fa878235602084016135b8565b60008060408385031215613a8857600080fd5b613a91836133dd565b91506136b9602084016133dd565b600181811c90821680613ab357607f821691505b602082108103613ad357634e487b7160e01b600052602260045260246000fd5b50919050565b6020808252602d908201527f4552433732313a2063616c6c6572206973206e6f7420746f6b656e206f776e6560408201526c1c881bdc88185c1c1c9bdd9959609a1b606082015260800190565b634e487b7160e01b600052601160045260246000fd5b808201808211156106ba576106ba613b26565b600060018201613b6157613b61613b26565b5060010190565b634e487b7160e01b600052603260045260246000fd5b6001600160801b0381811683821601908111156106ba576106ba613b26565b601f82111561088e57806000526020600020601f840160051c81016020851015613bc45750805b601f840160051c820191505b81811015613be45760008155600101613bd0565b5050505050565b81516001600160401b03811115613c0457613c046135a2565b613c1881613c128454613a9f565b84613b9d565b6020601f821160018114613c4c5760008315613c345750848201515b600019600385901b1c1916600184901b178455613be4565b600084815260208120601f198516915b82811015613c7c5787850151825560209485019460019092019101613c5c565b5084821015613c9a5786840151600019600387901b60f8161c191681555b50505050600190811b01905550565b6001600160a01b0386811682528516602082015260408101849052821515606082015260a060808201819052600090613ce490830184613385565b979650505050505050565b8481526001600160801b0384166020820152826040820152608060608201526000808354613d1c81613a9f565b8060808601526001821660008114613d3b5760018114613d5757613d8b565b60ff19831660a087015260a082151560051b8701019350613d8b565b86600052602060002060005b83811015613d8257815488820160a00152600190910190602001613d63565b870160a0019450505b509198975050505050505050565b60008351613dab818460208801613361565b835190830190613dbf818360208801613361565b01949350505050565b60208082526025908201527f4552433732313a207472616e736665722066726f6d20696e636f72726563742060408201526437bbb732b960d91b606082015260800190565b60208082526032908201527f4552433732313a207472616e7366657220746f206e6f6e20455243373231526560408201527131b2b4bb32b91034b6b83632b6b2b73a32b960711b606082015260800190565b6001600160a01b0385811682528416602082015260408101839052608060608201819052600090613e9290830184613385565b9695505050505050565b600060208284031215613eae57600080fd5b8151612e5e8161332e56fea2646970667358221220ee0d840a1faeffb0d7bb325cee4351b074fad4bd0d925c09cbef2e79c37140e964736f6c634300081c0033",
  "linkReferences": {},
  "deployedLinkReferences": {}
}