{
  "_format": "hh-sol-artifact-1",
  "contractName": "Auction",
  "sourceName": "contracts/Auction.sol",
  "abi": [
    {
      "anonymous": false,
      "inputs": [
        {
          "indexed": true,
          "internalType": "uint256",
          "name": "auctionId",
          "type": "uint256"
        },
        {
          "indexed": true,
          "internalType": "address",
          "name": "seller",
          "type": "address"
        },
        {
          "indexed": false,
          "internalType": "address",
          "name": "nftAddress",
          "type": "address"
        },
        {
          "indexed": false,
          "internalType": "uint256",
          "name": "tokenId",
          "type": "uint256"
        },
        {
          "indexed": false,
          "internalType": "uint256",
          "name": "minBid",
          "type": "uint256"
        },
        {
          "indexed": false,
          "internalType": "uint256",
          "name": "endTime",
          "type": "uint256"
        }
      ],
      "name": "AuctionCreated",
      "type": "event"
    },
    {
      "anonymous": false,
      "inputs": [
        {
          "indexed": true,
          "internalType": "uint256",
          "name": "auctionId",
          "type": "uint256"
        },
        {
          "indexed": false,
          "internalType": "address",
          "name": "winner",
          "type": "address"
        },
        {
          "indexed": false,
          "internalType": "uint256",
          "name": "amount",
          "type": "uint256"
        }
      ],
      "name": "AuctionSettled",
      "type": "event"
    },
    {
      "anonymous": false,
      "inputs": [
        {
          "indexed": true,
          "internalType": "uint256",
          "name": "auctionId",
          "type": "uint256"
        },
        {
          "indexed": true,
          "internalType": "address",
          "name": "bidder",
          "type": "address"
        },
        {
          "indexed": false,
          "internalType": "uint256",
          "name": "amount",
          "type": "uint256"
        }
      ],
      "name": "BidPlaced",
      "type": "event"
    },
    {
      "inputs": [],
      "name": "auctionCount",
      "outputs": [
        {
          "internalType": "uint256",
          "name": "",
          "type": "uint256"
        }
      ],
      "stateMutability": "view",
      "type": "function"
    },
    {
      "inputs": [
        {
          "internalType": "uint256",
          "name": "",
          "type": "uint256"
        }
      ],
      "name": "auctions",
      "outputs": [
        {
          "internalType": "address",
          "name": "seller",
          "type": "address"
        },
        {
          "internalType": "address",
          "name": "nftAddress",
          "type": "address"
        },
        {
          "internalType": "uint256",
          "name": "tokenId",
          "type": "uint256"
        },
        {
          "internalType": "uint256",
          "name": "minBid",
          "type": "uint256"
        },
        {
          "internalType": "uint256",
          "name": "highestBid",
          "type": "uint256"
        },
        {
          "internalType": "address",
          "name": "highestBidder",
          "type": "address"
        },
        {
          "internalType": "uint256",
          "name": "endTime",
          "type": "uint256"
        },
        {
          "internalType": "bool",
          "name": "settled",
          "type": "bool"
        }
      ],
      "stateMutability": "view",
      "type": "function"
    },
    {
      "inputs": [
        {
          "internalType": "uint256",
          "name": "auctionId",
          "type": "uint256"
        }
      ],
      "name": "bid",
      "outputs": [],
      "stateMutability": "payable",
      "type": "function"
    },
    {
      "inputs": [
        {
          "internalType": "uint256",
          "name": "",
          "type": "uint256"
        },
        {
          "internalType": "address",
          "name": "",
          "type": "address"
        }
      ],
      "name": "bids",
      "outputs": [
        {
          "internalType": "uint256",
          "name": "",
          "type": "uint256"
        }
      ],
      "stateMutability": "view",
      "type": "function"
    },
    {
      "inputs": [
        {
          "internalType": "address",
          "name": "nftAddress",
          "type": "address"
        },
        {
          "internalType": "uint256",
          "name": "tokenId",
          "type": "uint256"
        },
        {
          "internalType": "uint256",
          "name": "minBid",
          "type": "uint256"
        },
        {
          "internalType": "uint256",
          "name": "duration",
          "type": "uint256"
        }
      ],
      "name": "createAuction",
      "outputs": [],
      "stateMutability": "nonpayable",
      "type": "function"
    },
    {
      "inputs": [
        {
          "internalType": "uint256",
          "name": "auctionId",
          "type": "uint256"
        }
      ],
      "name": "settleAuction",
      "outputs": [],
      "stateMutability": "nonpayable",
      "type": "function"
    }
  ],
  "bytecode": "0x6080604052348015600f57600080fd5b5060016000556109ba806100246000396000f3fe6080604052600436106100555760003560e01c80632ad715731461005a5780632e993611146100835780633f1ffcec146100a5578063454a2ab3146100dd578063571a26a0146100f057806361beb1d7146101b2575b600080fd5b34801561006657600080fd5b5061007060025481565b6040519081526020015b60405180910390f35b34801561008f57600080fd5b506100a361009e36600461087f565b6101d2565b005b3480156100b157600080fd5b506100706100c03660046108ad565b600360209081526000928352604080842090915290825290205481565b6100a36100eb36600461087f565b61042d565b3480156100fc57600080fd5b5061016261010b36600461087f565b6001602081905260009182526040909120805491810154600282015460038301546004840154600585015460068601546007909601546001600160a01b039788169795861696949593949293909116919060ff1688565b604080516001600160a01b03998a16815297891660208901528701959095526060860193909352608085019190915290931660a083015260c082019290925290151560e08201526101000161007a565b3480156101be57600080fd5b506100a36101cd3660046108dd565b6105a7565b6101da610826565b600081815260016020526040902060068101544210156102355760405162461bcd60e51b8152602060048201526011602482015270105d58dd1a5bdb881b9bdd08195b991959607a1b60448201526064015b60405180910390fd5b600781015460ff161561027c5760405162461bcd60e51b815260206004820152600f60248201526e105b1c9958591e481cd95d1d1b1959608a1b604482015260640161022c565b60078101805460ff1916600117905560058101546001600160a01b031615610359576001810154600582015460028301546040516323b872dd60e01b81523060048201526001600160a01b03928316602482015260448101919091529116906323b872dd90606401600060405180830381600087803b1580156102fe57600080fd5b505af1158015610312573d6000803e3d6000fd5b5050825460048401546040516001600160a01b03909216935080156108fc029250906000818181858888f19350505050158015610353573d6000803e3d6000fd5b506103cf565b6001810154815460028301546040516323b872dd60e01b81523060048201526001600160a01b03928316602482015260448101919091529116906323b872dd90606401600060405180830381600087803b1580156103b657600080fd5b505af11580156103ca573d6000803e3d6000fd5b505050505b60058101546004820154604080516001600160a01b039093168352602083019190915283917fc9f72b276a388619c6d185d146697036241880c36654b1a3ffdad07c24038d99910160405180910390a25061042a6001600055565b50565b610435610826565b6000818152600160205260409020600681015442106104865760405162461bcd60e51b815260206004820152600d60248201526c105d58dd1a5bdb88195b991959609a1b604482015260640161022c565b80600401543411801561049d575080600301543410155b6104d75760405162461bcd60e51b815260206004820152600b60248201526a42696420746f6f206c6f7760a81b604482015260640161022c565b60058101546001600160a01b03161561052c57600581015460048201546040516001600160a01b039092169181156108fc0291906000818181858888f1935050505015801561052a573d6000803e3d6000fd5b505b34600482018190556005820180546001600160a01b0319163390811790915560008481526003602090815260408083208484528252918290208490559051928352909184917f0e54eff26401bf69b81b26f60bd85ef47f5d85275c1d268d84f68d6897431c47910160405180910390a35061042a6001600055565b6040516331a9108f60e11b815260048101849052849033906001600160a01b03831690636352211e90602401602060405180830381865afa1580156105f0573d6000803e3d6000fd5b505050506040513d601f19601f820116820180604052508101906106149190610918565b6001600160a01b03161461065a5760405162461bcd60e51b815260206004820152600d60248201526c2737ba103a34329037bbb732b960991b604482015260640161022c565b6040516323b872dd60e01b8152336004820152306024820152604481018590526001600160a01b038216906323b872dd90606401600060405180830381600087803b1580156106a857600080fd5b505af11580156106bc573d6000803e3d6000fd5b5050600280549250905060006106d183610952565b909155505060408051610100810182523381526001600160a01b03871660208201529081018590526060810184905260006080820181905260a082015260c0810161071c844261096b565b8152600060209182018190526002805482526001808452604092839020855181546001600160a01b03199081166001600160a01b039283161783559587015192820180548716938216939093179092559285015183830155606085015160038401556080850151600484015560a085015160058401805490951691161790925560c0830151600682015560e0909201516007909201805460ff1916921515929092179091555433907f06b9e486c68303eb64052e0493f906f3d93a1b7149b6b8dcff221aebd16c35138787876107f2884261096b565b604080516001600160a01b039095168552602085019390935291830152606082015260800160405180910390a35050505050565b6002600054036108785760405162461bcd60e51b815260206004820152601f60248201527f5265656e7472616e637947756172643a207265656e7472616e742063616c6c00604482015260640161022c565b6002600055565b60006020828403121561089157600080fd5b5035919050565b6001600160a01b038116811461042a57600080fd5b600080604083850312156108c057600080fd5b8235915060208301356108d281610898565b809150509250929050565b600080600080608085870312156108f357600080fd5b84356108fe81610898565b966020860135965060408601359560600135945092505050565b60006020828403121561092a57600080fd5b815161093581610898565b9392505050565b634e487b7160e01b600052601160045260246000fd5b6000600182016109645761096461093c565b5060010190565b8082018082111561097e5761097e61093c565b9291505056fea2646970667358221220f33266282d0d287fc15e3097a67bd7518db901c460de3c390d1123a7aa890c5864736f6c634300081c0033",
  "linkReferences": {},
  "deployedLinkReferences": {}
}