{
  "_format": "hh-sol-artifact-1",
  "contractName": "NFTMarketplace",
  "sourceName": "contracts/NFTMarketplace.sol",
  "abi": [
    {
      "inputs": [],
      "stateMutability": "nonpayable",
      "type": "constructor"
    },
    {
      "anonymous": false,
      "inputs": [
        {
          "indexed": true,
          "internalType": "address",
          "name": "owner",
          "type": "address"
        },
        {
          "indexed": true,
          "internalType": "address",
          "name": "approved",
          "type": "address"
        },
        {
          "indexed": true,
          "internalType": "uint256",
          "name": "tokenId",
          "type": "uint256"
        }
      ],
      "name": "Approval",
      "type": "event"
    },
    {
      "anonymous": false,
      "inputs": [
        {
          "indexed": true,
          "internalType": "address",
          "name": "owner",
          "type": "address"
        },
        {
          "indexed": true,
          "internalType": "address",
          "name": "operator",
          "type": "address"
        },
        {
          "indexed": false,
          "internalType": "bool",
          "name": "approved",
          "type": "bool"
        }
      ],
      "name": "ApprovalForAll",
      "type": "event"
    },
    {
      "anonymous": false,
      "inputs": [
        {
          "indexed": false,
          "internalType": "uint256",
          "name": "_fromTokenId",
          "type": "uint256"
        },
        {
          "indexed": false,
          "internalType": "uint256",
          "name": "_toTokenId",
          "type": "uint256"
        }
      ],
      "name": "BatchMetadataUpdate",
      "type": "event"
    },
    {
      "anonymous": false,
      "inputs": [
        {
          "indexed": false,
          "internalType": "uint256",
          "name": "_tokenId",
          "type": "uint256"
        }
      ],
      "name": "MetadataUpdate",
      "type": "event"
    },
    {
      "anonymous": false,
      "inputs": [
        {
          "indexed": true,
          "internalType": "uint256",
          "name": "tokenId",
          "type": "uint256"
        },
        {
          "indexed": false,
          "internalType": "uint256",
          "name": "price",
          "type": "uint256"
        },
        {
          "indexed": false,
          "internalType": "address",
          "name": "owner",
          "type": "address"
        },
        {
          "indexed": false,
          "internalType": "bool",
          "name": "currentlyListed",
          "type": "bool"
        }
      ],
      "name": "TokenBoughtSuccess",
      "type": "event"
    },
    {
      "anonymous": false,
      "inputs": [
        {
          "indexed": true,
          "internalType": "uint256",
          "name": "tokenId",
          "type": "uint256"
        },
        {
          "indexed": false,
          "internalType": "address",
          "name": "owner",
          "type": "address"
        },
        {
          "indexed": false,
          "internalType": "address",
          "name": "seller",
          "type": "address"
        },
        {
          "indexed": false,
          "internalType": "uint256",
          "name": "price",
          "type": "uint256"
        },
        {
          "indexed": false,
          "internalType": "bool",
          "name": "currentlyListed",
          "type": "bool"
        }
      ],
      "name": "TokenListedSuccess",
      "type": "event"
    },
    {
      "anonymous": false,
      "inputs": [
        {
          "indexed": true,
          "internalType": "address",
          "name": "from",
          "type": "address"
        },
        {
          "indexed": true,
          "internalType": "address",
          "name": "to",
          "type": "address"
        },
        {
          "indexed": true,
          "internalType": "uint256",
          "name": "tokenId",
          "type": "uint256"
        }
      ],
      "name": "Transfer",
      "type": "event"
    },
    {
      "inputs": [
        {
          "internalType": "address",
          "name": "to",
          "type": "address"
        },
        {
          "internalType": "uint256",
          "name": "tokenId",
          "type": "uint256"
        }
      ],
      "name": "approve",
      "outputs": [],
      "stateMutability": "nonpayable",
      "type": "function"
    },
    {
      "inputs": [
        {
          "internalType": "address",
          "name": "owner",
          "type": "address"
        }
      ],
      "name": "balanceOf",
      "outputs": [
        {
          "internalType": "uint256",
          "name": "",
          "type": "uint256"
        }
      ],
      "stateMutability": "view",
      "type": "function"
    },
    {
      "inputs": [
        {
          "internalType": "uint256",
          "name": "tokenId",
          "type": "uint256"
        }
      ],
      "name": "buyNFT",
      "outputs": [],
      "stateMutability": "payable",
      "type": "function"
    },
    {
      "inputs": [],
      "name": "getAllNFTs",
      "outputs": [
        {
          "components": [
            {
              "internalType": "uint256",
              "name": "tokenId",
              "type": "uint256"
            },
            {
              "internalType": "address payable",
              "name": "owner",
              "type": "address"
            },
            {
              "internalType": "address payable",
              "name": "seller",
              "type": "address"
            },
            {
              "internalType": "uint256",
              "name": "price",
              "type": "uint256"
            },
            {
              "internalType": "bool",
              "name": "currentlyListed",
              "type": "bool"
            }
          ],
          "internalType": "struct NFTMarketplace.ListedToken[]",
          "name": "",
          "type": "tuple[]"
        }
      ],
      "stateMutability": "view",
      "type": "function"
    },
    {
      "inputs": [
        {
          "internalType": "uint256",
          "name": "tokenId",
          "type": "uint256"
        }
      ],
      "name": "getApproved",
      "outputs": [
        {
          "internalType": "address",
          "name": "",
          "type": "address"
        }
      ],
      "stateMutability": "view",
      "type": "function"
    },
    {
      "inputs": [],
      "name": "getCurrentToken",
      "outputs": [
        {
          "internalType": "uint256",
          "name": "",
          "type": "uint256"
        }
      ],
      "stateMutability": "view",
      "type": "function"
    },
    {
      "inputs": [],
      "name": "getLatestIdToListedToken",
      "outputs": [
        {
          "components": [
            {
              "internalType": "uint256",
              "name": "tokenId",
              "type": "uint256"
            },
            {
              "internalType": "address payable",
              "name": "owner",
              "type": "address"
            },
            {
              "internalType": "address payable",
              "name": "seller",
              "type": "address"
            },
            {
              "internalType": "uint256",
              "name": "price",
              "type": "uint256"
            },
            {
              "internalType": "bool",
              "name": "currentlyListed",
              "type": "bool"
            }
          ],
          "internalType": "struct NFTMarketplace.ListedToken",
          "name": "",
          "type": "tuple"
        }
      ],
      "stateMutability": "view",
      "type": "function"
    },
    {
      "inputs": [],
      "name": "getListPrice",
      "outputs": [
        {
          "internalType": "uint256",
          "name": "",
          "type": "uint256"
        }
      ],
      "stateMutability": "view",
      "type": "function"
    },
    {
      "inputs": [
        {
          "internalType": "uint256",
          "name": "tokenId",
          "type": "uint256"
        }
      ],
      "name": "getListedTokenForId",
      "outputs": [
        {
          "components": [
            {
              "internalType": "uint256",
              "name": "tokenId",
              "type": "uint256"
            },
            {
              "internalType": "address payable",
              "name": "owner",
              "type": "address"
            },
            {
              "internalType": "address payable",
              "name": "seller",
              "type": "address"
            },
            {
              "internalType": "uint256",
              "name": "price",
              "type": "uint256"
            },
            {
              "internalType": "bool",
              "name": "currentlyListed",
              "type": "bool"
            }
          ],
          "internalType": "struct NFTMarketplace.ListedToken",
          "name": "",
          "type": "tuple"
        }
      ],
      "stateMutability": "view",
      "type": "function"
    },
    {
      "inputs": [],
      "name": "getMyNFTs",
      "outputs": [
        {
          "components": [
            {
              "internalType": "uint256",
              "name": "tokenId",
              "type": "uint256"
            },
            {
              "internalType": "address payable",
              "name": "owner",
              "type": "address"
            },
            {
              "internalType": "address payable",
              "name": "seller",
              "type": "address"
            },
            {
              "internalType": "uint256",
              "name": "price",
              "type": "uint256"
            },
            {
              "internalType": "bool",
              "name": "currentlyListed",
              "type": "bool"
            }
          ],
          "internalType": "struct NFTMarketplace.ListedToken[]",
          "name": "",
          "type": "tuple[]"
        }
      ],
      "stateMutability": "view",
      "type": "function"
    },
    {
      "inputs": [
        {
          "internalType": "address",
          "name": "owner",
          "type": "address"
        },
        {
          "internalType": "address",
          "name": "operator",
          "type": "address"
        }
      ],
      "name": "isApprovedForAll",
      "outputs": [
        {
          "internalType": "bool",
          "name": "",
          "type": "bool"
        }
      ],
      "stateMutability": "view",
      "type": "function"
    },
    {
      "inputs": [
        {
          "internalType": "string",
          "name": "tokenURI",
          "type": "string"
        },
        {
          "internalType": "uint256",
          "name": "price",
          "type": "uint256"
        }
      ],
      "name": "mintNFT",
      "outputs": [
        {
          "internalType": "uint256",
          "name": "",
          "type": "uint256"
        }
      ],
      "stateMutability": "payable",
      "type": "function"
    },
    {
      "inputs": [],
      "name": "name",
      "outputs": [
        {
          "internalType": "string",
          "name": "",
          "type": "string"
        }
      ],
      "stateMutability": "view",
      "type": "function"
    },
    {
      "inputs": [
        {
          "internalType": "uint256",
          "name": "tokenId",
          "type": "uint256"
        }
      ],
      "name": "ownerOf",
      "outputs": [
        {
          "internalType": "address",
          "name": "",
          "type": "address"
        }
      ],
      "stateMutability": "view",
      "type": "function"
    },
    {
      "inputs": [
        {
          "internalType": "address",
          "name": "from",
          "type": "address"
        },
        {
          "internalType": "address",
          "name": "to",
          "type": "address"
        },
        {
          "internalType": "uint256",
          "name": "tokenId",
          "type": "uint256"
        }
      ],
      "name": "safeTransferFrom",
      "outputs": [],
      "stateMutability": "nonpayable",
      "type": "function"
    },
    {
      "inputs": [
        {
          "internalType": "address",
          "name": "from",
          "type": "address"
        },
        {
          "internalType": "address",
          "name": "to",
          "type": "address"
        },
        {
          "internalType": "uint256",
          "name": "tokenId",
          "type": "uint256"
        },
        {
          "internalType": "bytes",
          "name": "data",
          "type": "bytes"
        }
      ],
      "name": "safeTransferFrom",
      "outputs": [],
      "stateMutability": "nonpayable",
      "type": "function"
    },
    {
      "inputs": [
        {
          "internalType": "address",
          "name": "operator",
          "type": "address"
        },
        {
          "internalType": "bool",
          "name": "approved",
          "type": "bool"
        }
      ],
      "name": "setApprovalForAll",
      "outputs": [],
      "stateMutability": "nonpayable",
      "type": "function"
    },
    {
      "inputs": [
        {
          "internalType": "bytes4",
          "name": "interfaceId",
          "type": "bytes4"
        }
      ],
      "name": "supportsInterface",
      "outputs": [
        {
          "internalType": "bool",
          "name": "",
          "type": "bool"
        }
      ],
      "stateMutability": "view",
      "type": "function"
    },
    {
      "inputs": [],
      "name": "symbol",
      "outputs": [
        {
          "internalType": "string",
          "name": "",
          "type": "string"
        }
      ],
      "stateMutability": "view",
      "type": "function"
    },
    {
      "inputs": [
        {
          "internalType": "uint256",
          "name": "tokenId",
          "type": "uint256"
        }
      ],
      "name": "tokenURI",
      "outputs": [
        {
          "internalType": "string",
          "name": "",
          "type": "string"
        }
      ],
      "stateMutability": "view",
      "type": "function"
    },
    {
      "inputs": [
        {
          "internalType": "address",
          "name": "from",
          "type": "address"
        },
        {
          "internalType": "address",
          "name": "to",
          "type": "address"
        },
        {
          "internalType": "uint256",
          "name": "tokenId",
          "type": "uint256"
        }
      ],
      "name": "transferFrom",
      "outputs": [],
      "stateMutability": "nonpayable",
      "type": "function"
    },
    {
      "inputs": [
        {
          "internalType": "uint256",
          "name": "_listPrice",
          "type": "uint256"
        }
      ],
      "name": "updateListPrice",
      "outputs": [],
      "stateMutability": "payable",
      "type": "function"
    }
  ],
  "bytecode": "0x6080604052662386f26fc10000600a5534801561001b57600080fd5b506040518060400160405280600e81526020016d4e46544d61726b6574706c61636560901b815250604051806040016040528060048152602001634e46544d60e01b815250816000908161006f9190610135565b50600161007c8282610135565b5050600980546001600160a01b03191633179055506101f3565b634e487b7160e01b600052604160045260246000fd5b600181811c908216806100c057607f821691505b6020821081036100e057634e487b7160e01b600052602260045260246000fd5b50919050565b601f82111561013057806000526020600020601f840160051c8101602085101561010d5750805b601f840160051c820191505b8181101561012d5760008155600101610119565b50505b505050565b81516001600160401b0381111561014e5761014e610096565b6101628161015c84546100ac565b846100e6565b6020601f821160018114610196576000831561017e5750848201515b600019600385901b1c1916600184901b17845561012d565b600084815260208120601f198516915b828110156101c657878501518255602094850194600190920191016101a6565b50848210156101e45786840151600019600387901b60f8161c191681555b50505050600190811b01905550565b61216b806102026000396000f3fe6080604052600436106101355760003560e01c806370a08231116100ab578063c322579c1161006f578063c322579c14610358578063c87b56dd1461036b578063d1a88ae51461038b578063e0391b09146103a0578063e985e9c5146103b5578063ef2d1746146103fe57600080fd5b806370a08231146102b65780638e264590146102d657806395d89b4114610303578063a22cb46514610318578063b88d4fde1461033857600080fd5b806342842e0e116100fd57806342842e0e1461020b57806351ed82881461022b5780635afa3a721461023e578063629cb2e41461025f5780636352211e1461028157806368f1945f146102a157600080fd5b806301ffc9a71461013a57806306fdde031461016f578063081812fc14610191578063095ea7b3146101c957806323b872dd146101eb575b600080fd5b34801561014657600080fd5b5061015a610155366004611aa3565b610413565b60405190151581526020015b60405180910390f35b34801561017b57600080fd5b5061018461043e565b6040516101669190611b10565b34801561019d57600080fd5b506101b16101ac366004611b23565b6104d0565b6040516001600160a01b039091168152602001610166565b3480156101d557600080fd5b506101e96101e4366004611b58565b6104f7565b005b3480156101f757600080fd5b506101e9610206366004611b82565b610611565b34801561021757600080fd5b506101e9610226366004611b82565b610642565b6101e9610239366004611b23565b61065d565b61025161024c366004611c4f565b61081c565b604051908152602001610166565b34801561026b57600080fd5b5061027461085e565b6040516101669190611ce8565b34801561028d57600080fd5b506101b161029c366004611b23565b610a71565b3480156102ad57600080fd5b50600a54610251565b3480156102c257600080fd5b506102516102d1366004611d36565b610ad1565b3480156102e257600080fd5b506102f66102f1366004611b23565b610b57565b6040516101669190611d51565b34801561030f57600080fd5b50610184610bc1565b34801561032457600080fd5b506101e9610333366004611d5f565b610bd0565b34801561034457600080fd5b506101e9610353366004611d9b565b610bdf565b6101e9610366366004611b23565b610c17565b34801561037757600080fd5b50610184610386366004611b23565b610c82565b34801561039757600080fd5b506102f6610d92565b3480156103ac57600080fd5b50610274610e09565b3480156103c157600080fd5b5061015a6103d0366004611e17565b6001600160a01b03918216600090815260056020908152604080832093909416825291909152205460ff1690565b34801561040a57600080fd5b50610251610f28565b60006001600160e01b03198216632483248360e11b1480610438575061043882610f38565b92915050565b60606000805461044d90611e4a565b80601f016020809104026020016040519081016040528092919081815260200182805461047990611e4a565b80156104c65780601f1061049b576101008083540402835291602001916104c6565b820191906000526020600020905b8154815290600101906020018083116104a957829003601f168201915b5050505050905090565b60006104db82610f88565b506000908152600460205260409020546001600160a01b031690565b600061050282610a71565b9050806001600160a01b0316836001600160a01b0316036105745760405162461bcd60e51b815260206004820152602160248201527f4552433732313a20617070726f76616c20746f2063757272656e74206f776e656044820152603960f91b60648201526084015b60405180910390fd5b336001600160a01b0382161480610590575061059081336103d0565b6106025760405162461bcd60e51b815260206004820152603d60248201527f4552433732313a20617070726f76652063616c6c6572206973206e6f7420746f60448201527f6b656e206f776e6572206f7220617070726f76656420666f7220616c6c000000606482015260840161056b565b61060c8383610fea565b505050565b61061b3382611058565b6106375760405162461bcd60e51b815260040161056b90611e84565b61060c8383836110d6565b61060c83838360405180602001604052806000815250610bdf565b6000818152600b6020526040902060038101546002909101546001600160a01b03163482146106f6576040805162461bcd60e51b81526020600482015260248101919091527f506c65617365207375626d6974207468652061736b696e67207072696365206960448201527f6e206f7264657220746f20636f6d706c65746520746865207075726368617365606482015260840161056b565b6000838152600b6020526040902060048101805460ff1916600117905560020180546001600160a01b03191633179055610734600880546001019055565b61073f3033856110d6565b61074930846104f7565b600954600a546040516001600160a01b039092169181156108fc0291906000818181858888f19350505050158015610785573d6000803e3d6000fd5b506040516001600160a01b038216903480156108fc02916000818181858888f193505050501580156107bb573d6000803e3d6000fd5b506000838152600b6020908152604091829020600401548251858152339281019290925260ff16151581830152905184917fa6fcef706a46784e1a391af3cb4d93b8606d16168685050658b2690f82a4f59f919081900360600190a2505050565b600061082c600780546001019055565b600061083760075490565b9050610843338261123a565b61084d8185611254565b610857818461131f565b9392505050565b6060600061086b60075490565b905060008080805b848110156108f95733600b600061088b846001611ed1565b81526020810191909152604001600020600101546001600160a01b031614806108de575033600b60006108bf846001611ed1565b81526020810191909152604001600020600201546001600160a01b0316145b156108f1576108ee600185611ed1565b93505b600101610873565b5060008367ffffffffffffffff81111561091557610915611bbf565b60405190808252806020026020018201604052801561094e57816020015b61093b611a5f565b8152602001906001900390816109335790505b50905060005b85811015610a675733600b600061096c846001611ed1565b81526020810191909152604001600020600101546001600160a01b031614806109bf575033600b60006109a0846001611ed1565b81526020810191909152604001600020600201546001600160a01b0316145b15610a5f576109cf816001611ed1565b6000818152600b6020908152604091829020825160a0810184528154815260018201546001600160a01b039081169382019390935260028201549092169282019290925260038201546060820152600482015460ff161515608082015284519295509091849087908110610a4557610a45611ef2565b6020908102919091010152610a5b600186611ed1565b9450505b600101610954565b5095945050505050565b6000818152600260205260408120546001600160a01b0316806104385760405162461bcd60e51b8152602060048201526018602482015277115490cdcc8c4e881a5b9d985b1a59081d1bdad95b88125160421b604482015260640161056b565b60006001600160a01b038216610b3b5760405162461bcd60e51b815260206004820152602960248201527f4552433732313a2061646472657373207a65726f206973206e6f7420612076616044820152683634b21037bbb732b960b91b606482015260840161056b565b506001600160a01b031660009081526003602052604090205490565b610b5f611a5f565b506000908152600b6020908152604091829020825160a0810184528154815260018201546001600160a01b03908116938201939093526002820154909216928201929092526003820154606082015260049091015460ff161515608082015290565b60606001805461044d90611e4a565b610bdb3383836114c1565b5050565b610be93383611058565b610c055760405162461bcd60e51b815260040161056b90611e84565b610c118484848461158f565b50505050565b6009546001600160a01b03163314610c7d5760405162461bcd60e51b815260206004820152602360248201527f4f6e6c79206f776e65722063616e20757064617465206c697374696e6720707260448201526269636560e81b606482015260840161056b565b600a55565b6060610c8d82610f88565b60008281526006602052604081208054610ca690611e4a565b80601f0160208091040260200160405190810160405280929190818152602001828054610cd290611e4a565b8015610d1f5780601f10610cf457610100808354040283529160200191610d1f565b820191906000526020600020905b815481529060010190602001808311610d0257829003601f168201915b505050505090506000610d3d60408051602081019091526000815290565b90508051600003610d4f575092915050565b815115610d81578082604051602001610d69929190611f08565b60405160208183030381529060405292505050919050565b610d8a846115c2565b949350505050565b610d9a611a5f565b6000610da560075490565b6000908152600b6020908152604091829020825160a0810184528154815260018201546001600160a01b03908116938201939093526002820154909216928201929092526003820154606082015260049091015460ff161515608082015292915050565b60606000610e1660075490565b905060008167ffffffffffffffff811115610e3357610e33611bbf565b604051908082528060200260200182016040528015610e6c57816020015b610e59611a5f565b815260200190600190039081610e515790505b509050600080805b84811015610f1e57610e87816001611ed1565b6000818152600b6020908152604091829020825160a0810184528154815260018201546001600160a01b039081169382019390935260028201549092169282019290925260038201546060820152600482015460ff161515608082015286519294509091869086908110610efd57610efd611ef2565b6020908102919091010152610f13600185611ed1565b935050600101610e74565b5091949350505050565b6000610f3360075490565b905090565b60006001600160e01b031982166380ac58cd60e01b1480610f6957506001600160e01b03198216635b5e139f60e01b145b8061043857506301ffc9a760e01b6001600160e01b0319831614610438565b6000818152600260205260409020546001600160a01b0316610fe75760405162461bcd60e51b8152602060048201526018602482015277115490cdcc8c4e881a5b9d985b1a59081d1bdad95b88125160421b604482015260640161056b565b50565b600081815260046020526040902080546001600160a01b0319166001600160a01b038416908117909155819061101f82610a71565b6001600160a01b03167f8c5be1e5ebec7d5bd14f71427d1e84f3dd0314c0f7b2291e5b200ac8c7c3b92560405160405180910390a45050565b60008061106483610a71565b9050806001600160a01b0316846001600160a01b031614806110ab57506001600160a01b0380821660009081526005602090815260408083209388168352929052205460ff165b80610d8a5750836001600160a01b03166110c4846104d0565b6001600160a01b031614949350505050565b826001600160a01b03166110e982610a71565b6001600160a01b03161461110f5760405162461bcd60e51b815260040161056b90611f37565b6001600160a01b0382166111715760405162461bcd60e51b8152602060048201526024808201527f4552433732313a207472616e7366657220746f20746865207a65726f206164646044820152637265737360e01b606482015260840161056b565b826001600160a01b031661118482610a71565b6001600160a01b0316146111aa5760405162461bcd60e51b815260040161056b90611f37565b600081815260046020908152604080832080546001600160a01b03199081169091556001600160a01b0387811680865260038552838620805460001901905590871680865283862080546001019055868652600290945282852080549092168417909155905184937fddf252ad1be2c89b69c2b068fc378daa952ba7f163c4a11628f55a4df523b3ef91a4505050565b610bdb828260405180602001604052806000815250611635565b6000828152600260205260409020546001600160a01b03166112cf5760405162461bcd60e51b815260206004820152602e60248201527f45524337323155524953746f726167653a2055524920736574206f66206e6f6e60448201526d32bc34b9ba32b73a103a37b5b2b760911b606482015260840161056b565b60008281526006602052604090206112e78282611fca565b506040518281527ff8e1a15aba9398e019f0b49df1a4fde98ee17ae345cb5f6b5e2c27f5033e8ce79060200160405180910390a15050565b600a54341461137c5760405162461bcd60e51b815260206004820152602360248201527f486f706566756c6c792073656e64696e672074686520636f727265637420707260448201526269636560e81b606482015260840161056b565b600081116113d75760405162461bcd60e51b815260206004820152602260248201527f4d616b652073757265207468652070726963652069736e2774206e6567617469604482015261766560f01b606482015260840161056b565b6040805160a081018252838152306020808301828152338486018181526060860188815260016080880181815260008c8152600b9097529890952096518755925193860180546001600160a01b039586166001600160a01b03199182161790915590516002870180549190951691161790925551600384015592516004909201805492151560ff19909316929092179091556114749190846110d6565b604080513081523360208201529081018290526001606082015282907f9339409317fd01fabff48b703019016f49159bacc801ae872d2ca637d226e4c09060800160405180910390a25050565b816001600160a01b0316836001600160a01b0316036115225760405162461bcd60e51b815260206004820152601960248201527f4552433732313a20617070726f766520746f2063616c6c657200000000000000604482015260640161056b565b6001600160a01b03838116600081815260056020908152604080832094871680845294825291829020805460ff191686151590811790915591519182527f17307eab39ab6107e8899845ad3d59bd9653f200f220920489ca2b5937696c31910160405180910390a3505050565b61159a8484846110d6565b6115a684848484611668565b610c115760405162461bcd60e51b815260040161056b90612089565b60606115cd82610f88565b60006115e460408051602081019091526000815290565b905060008151116116045760405180602001604052806000815250610857565b8061160e84611769565b60405160200161161f929190611f08565b6040516020818303038152906040529392505050565b61163f83836117fc565b61164c6000848484611668565b61060c5760405162461bcd60e51b815260040161056b90612089565b60006001600160a01b0384163b1561175e57604051630a85bd0160e11b81526001600160a01b0385169063150b7a02906116ac9033908990889088906004016120db565b6020604051808303816000875af19250505080156116e7575060408051601f3d908101601f191682019092526116e491810190612118565b60015b611744573d808015611715576040519150601f19603f3d011682016040523d82523d6000602084013e61171a565b606091505b50805160000361173c5760405162461bcd60e51b815260040161056b90612089565b805181602001fd5b6001600160e01b031916630a85bd0160e11b149050610d8a565b506001949350505050565b6060600061177683611987565b600101905060008167ffffffffffffffff81111561179657611796611bbf565b6040519080825280601f01601f1916602001820160405280156117c0576020820181803683370190505b5090508181016020015b600019016f181899199a1a9b1b9c1cb0b131b232b360811b600a86061a8153600a85049450846117ca57509392505050565b6001600160a01b0382166118525760405162461bcd60e51b815260206004820181905260248201527f4552433732313a206d696e7420746f20746865207a65726f2061646472657373604482015260640161056b565b6000818152600260205260409020546001600160a01b0316156118b75760405162461bcd60e51b815260206004820152601c60248201527f4552433732313a20746f6b656e20616c7265616479206d696e74656400000000604482015260640161056b565b6000818152600260205260409020546001600160a01b03161561191c5760405162461bcd60e51b815260206004820152601c60248201527f4552433732313a20746f6b656e20616c7265616479206d696e74656400000000604482015260640161056b565b6001600160a01b038216600081815260036020908152604080832080546001019055848352600290915280822080546001600160a01b0319168417905551839291907fddf252ad1be2c89b69c2b068fc378daa952ba7f163c4a11628f55a4df523b3ef908290a45050565b60008072184f03e93ff9f4daa797ed6e38ed64bf6a1f0160401b83106119c65772184f03e93ff9f4daa797ed6e38ed64bf6a1f0160401b830492506040015b6d04ee2d6d415b85acef810000000083106119f2576d04ee2d6d415b85acef8100000000830492506020015b662386f26fc100008310611a1057662386f26fc10000830492506010015b6305f5e1008310611a28576305f5e100830492506008015b6127108310611a3c57612710830492506004015b60648310611a4e576064830492506002015b600a83106104385760010192915050565b6040805160a08101825260008082526020820181905291810182905260608101829052608081019190915290565b6001600160e01b031981168114610fe757600080fd5b600060208284031215611ab557600080fd5b813561085781611a8d565b60005b83811015611adb578181015183820152602001611ac3565b50506000910152565b60008151808452611afc816020860160208601611ac0565b601f01601f19169290920160200192915050565b6020815260006108576020830184611ae4565b600060208284031215611b3557600080fd5b5035919050565b80356001600160a01b0381168114611b5357600080fd5b919050565b60008060408385031215611b6b57600080fd5b611b7483611b3c565b946020939093013593505050565b600080600060608486031215611b9757600080fd5b611ba084611b3c565b9250611bae60208501611b3c565b929592945050506040919091013590565b634e487b7160e01b600052604160045260246000fd5b60008067ffffffffffffffff841115611bf057611bf0611bbf565b50604051601f19601f85018116603f0116810181811067ffffffffffffffff82111715611c1f57611c1f611bbf565b604052838152905080828401851015611c3757600080fd5b83836020830137600060208583010152509392505050565b60008060408385031215611c6257600080fd5b823567ffffffffffffffff811115611c7957600080fd5b8301601f81018513611c8a57600080fd5b611c9985823560208401611bd5565b95602094909401359450505050565b805182526020808201516001600160a01b039081169184019190915260408083015190911690830152606080820151908301526080908101511515910152565b602080825282518282018190526000918401906040840190835b81811015611d2b57611d15838551611ca8565b6020939093019260a09290920191600101611d02565b509095945050505050565b600060208284031215611d4857600080fd5b61085782611b3c565b60a081016104388284611ca8565b60008060408385031215611d7257600080fd5b611d7b83611b3c565b915060208301358015158114611d9057600080fd5b809150509250929050565b60008060008060808587031215611db157600080fd5b611dba85611b3c565b9350611dc860208601611b3c565b925060408501359150606085013567ffffffffffffffff811115611deb57600080fd5b8501601f81018713611dfc57600080fd5b611e0b87823560208401611bd5565b91505092959194509250565b60008060408385031215611e2a57600080fd5b611e3383611b3c565b9150611e4160208401611b3c565b90509250929050565b600181811c90821680611e5e57607f821691505b602082108103611e7e57634e487b7160e01b600052602260045260246000fd5b50919050565b6020808252602d908201527f4552433732313a2063616c6c6572206973206e6f7420746f6b656e206f776e6560408201526c1c881bdc88185c1c1c9bdd9959609a1b606082015260800190565b8082018082111561043857634e487b7160e01b600052601160045260246000fd5b634e487b7160e01b600052603260045260246000fd5b60008351611f1a818460208801611ac0565b835190830190611f2e818360208801611ac0565b01949350505050565b60208082526025908201527f4552433732313a207472616e736665722066726f6d20696e636f72726563742060408201526437bbb732b960d91b606082015260800190565b601f82111561060c57806000526020600020601f840160051c81016020851015611fa35750805b601f840160051c820191505b81811015611fc35760008155600101611faf565b5050505050565b815167ffffffffffffffff811115611fe457611fe4611bbf565b611ff881611ff28454611e4a565b84611f7c565b6020601f82116001811461202c57600083156120145750848201515b600019600385901b1c1916600184901b178455611fc3565b600084815260208120601f198516915b8281101561205c578785015182556020948501946001909201910161203c565b508482101561207a5786840151600019600387901b60f8161c191681555b50505050600190811b01905550565b60208082526032908201527f4552433732313a207472616e7366657220746f206e6f6e20455243373231526560408201527131b2b4bb32b91034b6b83632b6b2b73a32b960711b606082015260800190565b6001600160a01b038581168252841660208201526040810183905260806060820181905260009061210e90830184611ae4565b9695505050505050565b60006020828403121561212a57600080fd5b815161085781611a8d56fea2646970667358221220941a7182009d88fc7041b8ddbf9c82a495f6be415b9f4ad128bc103e554feb5e64736f6c634300081c0033",
  "linkReferences": {},
  "deployedLinkReferences": {}
}